{
  "contractName": "WTemplate",
  "abi": [
    {
      "inputs": [
        {
          "internalType": "address",
          "name": "owner",
          "type": "address"
        },
        {
          "internalType": "address",
          "name": "sub",
          "type": "address"
        }
      ],
      "stateMutability": "nonpayable",
      "type": "constructor"
    },
    {
      "anonymous": false,
      "inputs": [
        {
          "indexed": true,
          "internalType": "address",
          "name": "id",
          "type": "address"
        }
      ],
      "name": "LogIdentityAdded",
      "type": "event"
    },
    {
      "anonymous": false,
      "inputs": [
        {
          "indexed": false,
          "internalType": "string",
          "name": "key",
          "type": "string"
        }
      ],
      "name": "LogUserAccessCreated",
      "type": "event"
    },
    {
      "anonymous": false,
      "inputs": [
        {
          "indexed": false,
          "internalType": "string",
          "name": "apiKey",
          "type": "string"
        }
      ],
      "name": "LogUserAccessEnabled",
      "type": "event"
    },
    {
      "anonymous": false,
      "inputs": [
        {
          "indexed": false,
          "internalType": "string",
          "name": "apiKey",
          "type": "string"
        }
      ],
      "name": "LogUserAccessRenewed",
      "type": "event"
    },
    {
      "anonymous": false,
      "inputs": [
        {
          "indexed": true,
          "internalType": "address",
          "name": "recipient",
          "type": "address"
        },
        {
          "indexed": true,
          "internalType": "uint256",
          "name": "next",
          "type": "uint256"
        },
        {
          "indexed": true,
          "internalType": "uint256",
          "name": "actorId",
          "type": "uint256"
        },
        {
          "indexed": false,
          "internalType": "uint256",
          "name": "documentId",
          "type": "uint256"
        }
      ],
      "name": "LogWorkflowStepCompleted",
      "type": "event"
    },
    {
      "anonymous": false,
      "inputs": [
        {
          "indexed": true,
          "internalType": "address",
          "name": "sender",
          "type": "address"
        },
        {
          "indexed": true,
          "internalType": "uint256",
          "name": "current",
          "type": "uint256"
        },
        {
          "indexed": true,
          "internalType": "uint256",
          "name": "actorId",
          "type": "uint256"
        }
      ],
      "name": "LogWorkflowStepStart",
      "type": "event"
    },
    {
      "anonymous": false,
      "inputs": [
        {
          "indexed": true,
          "internalType": "bytes32",
          "name": "role",
          "type": "bytes32"
        },
        {
          "indexed": true,
          "internalType": "address",
          "name": "account",
          "type": "address"
        },
        {
          "indexed": true,
          "internalType": "address",
          "name": "sender",
          "type": "address"
        }
      ],
      "name": "RoleGranted",
      "type": "event"
    },
    {
      "anonymous": false,
      "inputs": [
        {
          "indexed": true,
          "internalType": "bytes32",
          "name": "role",
          "type": "bytes32"
        },
        {
          "indexed": true,
          "internalType": "address",
          "name": "account",
          "type": "address"
        },
        {
          "indexed": true,
          "internalType": "address",
          "name": "sender",
          "type": "address"
        }
      ],
      "name": "RoleRevoked",
      "type": "event"
    },
    {
      "inputs": [],
      "name": "ADMIN",
      "outputs": [
        {
          "internalType": "bytes32",
          "name": "",
          "type": "bytes32"
        }
      ],
      "stateMutability": "view",
      "type": "function"
    },
    {
      "inputs": [],
      "name": "DEFAULT_ADMIN_ROLE",
      "outputs": [
        {
          "internalType": "bytes32",
          "name": "",
          "type": "bytes32"
        }
      ],
      "stateMutability": "view",
      "type": "function"
    },
    {
      "inputs": [
        {
          "internalType": "string",
          "name": "",
          "type": "string"
        }
      ],
      "name": "UserAccesss",
      "outputs": [
        {
          "internalType": "uint256",
          "name": "expires",
          "type": "uint256"
        },
        {
          "internalType": "string",
          "name": "description",
          "type": "string"
        },
        {
          "internalType": "bool",
          "name": "enabled",
          "type": "bool"
        },
        {
          "internalType": "bool",
          "name": "created",
          "type": "bool"
        },
        {
          "internalType": "string",
          "name": "did",
          "type": "string"
        }
      ],
      "stateMutability": "view",
      "type": "function"
    },
    {
      "inputs": [
        {
          "internalType": "address",
          "name": "user",
          "type": "address"
        }
      ],
      "name": "addACL",
      "outputs": [
        {
          "internalType": "bool",
          "name": "",
          "type": "bool"
        }
      ],
      "stateMutability": "nonpayable",
      "type": "function"
    },
    {
      "inputs": [
        {
          "internalType": "address",
          "name": "id",
          "type": "address"
        },
        {
          "internalType": "string",
          "name": "did",
          "type": "string"
        },
        {
          "internalType": "string",
          "name": "key",
          "type": "string"
        }
      ],
      "name": "addIdentity",
      "outputs": [
        {
          "internalType": "bool",
          "name": "",
          "type": "bool"
        }
      ],
      "stateMutability": "nonpayable",
      "type": "function"
    },
    {
      "inputs": [
        {
          "internalType": "string",
          "name": "key",
          "type": "string"
        },
        {
          "internalType": "uint256",
          "name": "expires",
          "type": "uint256"
        },
        {
          "internalType": "string",
          "name": "description",
          "type": "string"
        }
      ],
      "name": "createUserAccess",
      "outputs": [
        {
          "internalType": "string",
          "name": "",
          "type": "string"
        }
      ],
      "stateMutability": "nonpayable",
      "type": "function"
    },
    {
      "inputs": [
        {
          "internalType": "uint256",
          "name": "",
          "type": "uint256"
        },
        {
          "internalType": "uint256",
          "name": "",
          "type": "uint256"
        }
      ],
      "name": "findNext",
      "outputs": [
        {
          "internalType": "uint256",
          "name": "",
          "type": "uint256"
        }
      ],
      "stateMutability": "view",
      "type": "function"
    },
    {
      "inputs": [
        {
          "internalType": "bytes32",
          "name": "role",
          "type": "bytes32"
        }
      ],
      "name": "getRoleAdmin",
      "outputs": [
        {
          "internalType": "bytes32",
          "name": "",
          "type": "bytes32"
        }
      ],
      "stateMutability": "view",
      "type": "function"
    },
    {
      "inputs": [
        {
          "internalType": "bytes32",
          "name": "role",
          "type": "bytes32"
        },
        {
          "internalType": "uint256",
          "name": "index",
          "type": "uint256"
        }
      ],
      "name": "getRoleMember",
      "outputs": [
        {
          "internalType": "address",
          "name": "",
          "type": "address"
        }
      ],
      "stateMutability": "view",
      "type": "function"
    },
    {
      "inputs": [
        {
          "internalType": "bytes32",
          "name": "role",
          "type": "bytes32"
        }
      ],
      "name": "getRoleMemberCount",
      "outputs": [
        {
          "internalType": "uint256",
          "name": "",
          "type": "uint256"
        }
      ],
      "stateMutability": "view",
      "type": "function"
    },
    {
      "inputs": [
        {
          "internalType": "bytes32",
          "name": "role",
          "type": "bytes32"
        },
        {
          "internalType": "address",
          "name": "account",
          "type": "address"
        }
      ],
      "name": "grantRole",
      "outputs": [],
      "stateMutability": "nonpayable",
      "type": "function"
    },
    {
      "inputs": [
        {
          "internalType": "bytes32",
          "name": "role",
          "type": "bytes32"
        },
        {
          "internalType": "address",
          "name": "account",
          "type": "address"
        }
      ],
      "name": "hasRole",
      "outputs": [
        {
          "internalType": "bool",
          "name": "",
          "type": "bool"
        }
      ],
      "stateMutability": "view",
      "type": "function"
    },
    {
      "inputs": [
        {
          "internalType": "address",
          "name": "admin",
          "type": "address"
        }
      ],
      "name": "isAdmin",
      "outputs": [
        {
          "internalType": "bool",
          "name": "",
          "type": "bool"
        }
      ],
      "stateMutability": "view",
      "type": "function"
    },
    {
      "inputs": [],
      "name": "owner",
      "outputs": [
        {
          "internalType": "address",
          "name": "",
          "type": "address"
        }
      ],
      "stateMutability": "view",
      "type": "function"
    },
    {
      "inputs": [
        {
          "internalType": "address",
          "name": "user",
          "type": "address"
        }
      ],
      "name": "removeACL",
      "outputs": [
        {
          "internalType": "bool",
          "name": "",
          "type": "bool"
        }
      ],
      "stateMutability": "nonpayable",
      "type": "function"
    },
    {
      "inputs": [
        {
          "internalType": "address",
          "name": "id",
          "type": "address"
        },
        {
          "internalType": "string",
          "name": "key",
          "type": "string"
        },
        {
          "internalType": "uint256",
          "name": "expires",
          "type": "uint256"
        }
      ],
      "name": "renewUserAccess",
      "outputs": [
        {
          "internalType": "bool",
          "name": "",
          "type": "bool"
        }
      ],
      "stateMutability": "nonpayable",
      "type": "function"
    },
    {
      "inputs": [
        {
          "internalType": "bytes32",
          "name": "role",
          "type": "bytes32"
        },
        {
          "internalType": "address",
          "name": "account",
          "type": "address"
        }
      ],
      "name": "renounceRole",
      "outputs": [],
      "stateMutability": "nonpayable",
      "type": "function"
    },
    {
      "inputs": [
        {
          "internalType": "bytes32",
          "name": "role",
          "type": "bytes32"
        },
        {
          "internalType": "address",
          "name": "account",
          "type": "address"
        }
      ],
      "name": "revokeRole",
      "outputs": [],
      "stateMutability": "nonpayable",
      "type": "function"
    },
    {
      "inputs": [],
      "name": "stepCount",
      "outputs": [
        {
          "internalType": "uint256",
          "name": "",
          "type": "uint256"
        }
      ],
      "stateMutability": "view",
      "type": "function"
    },
    {
      "inputs": [
        {
          "internalType": "uint256",
          "name": "",
          "type": "uint256"
        }
      ],
      "name": "steps",
      "outputs": [
        {
          "internalType": "uint256",
          "name": "currentActor",
          "type": "uint256"
        },
        {
          "internalType": "uint256",
          "name": "current",
          "type": "uint256"
        },
        {
          "internalType": "uint256",
          "name": "next",
          "type": "uint256"
        },
        {
          "internalType": "uint256",
          "name": "forkId",
          "type": "uint256"
        },
        {
          "internalType": "uint256",
          "name": "mappingType",
          "type": "uint256"
        },
        {
          "internalType": "bytes",
          "name": "recipientValidationsBytes",
          "type": "bytes"
        },
        {
          "internalType": "bytes",
          "name": "senderValidationsBytes",
          "type": "bytes"
        },
        {
          "internalType": "bytes",
          "name": "statusChecksBytes",
          "type": "bytes"
        }
      ],
      "stateMutability": "view",
      "type": "function"
    },
    {
      "inputs": [],
      "name": "userCount",
      "outputs": [
        {
          "internalType": "uint256",
          "name": "_value",
          "type": "uint256"
        }
      ],
      "stateMutability": "view",
      "type": "function"
    },
    {
      "inputs": [
        {
          "internalType": "address",
          "name": "",
          "type": "address"
        }
      ],
      "name": "users",
      "outputs": [
        {
          "internalType": "uint256",
          "name": "expires",
          "type": "uint256"
        },
        {
          "internalType": "string",
          "name": "description",
          "type": "string"
        },
        {
          "internalType": "bool",
          "name": "enabled",
          "type": "bool"
        },
        {
          "internalType": "bool",
          "name": "created",
          "type": "bool"
        },
        {
          "internalType": "string",
          "name": "did",
          "type": "string"
        }
      ],
      "stateMutability": "view",
      "type": "function"
    },
    {
      "inputs": [
        {
          "internalType": "address",
          "name": "to",
          "type": "address"
        },
        {
          "internalType": "address",
          "name": "modelContract",
          "type": "address"
        }
      ],
      "name": "delegateTemplateOwner",
      "outputs": [
        {
          "internalType": "bool",
          "name": "",
          "type": "bool"
        }
      ],
      "stateMutability": "nonpayable",
      "type": "function"
    },
    {
      "inputs": [
        {
          "internalType": "bytes",
          "name": "rlpBytes",
          "type": "bytes"
        }
      ],
      "name": "createWF",
      "outputs": [
        {
          "internalType": "bool",
          "name": "",
          "type": "bool"
        }
      ],
      "stateMutability": "nonpayable",
      "type": "function"
    },
    {
      "inputs": [
        {
          "internalType": "address",
          "name": "to",
          "type": "address"
        },
        {
          "internalType": "uint256",
          "name": "step",
          "type": "uint256"
        },
        {
          "internalType": "uint256",
          "name": "actor",
          "type": "uint256"
        },
        {
          "internalType": "uint256",
          "name": "docId",
          "type": "uint256"
        },
        {
          "internalType": "uint256",
          "name": "extid",
          "type": "uint256"
        },
        {
          "internalType": "bytes",
          "name": "payload",
          "type": "bytes"
        }
      ],
      "name": "executeStep",
      "outputs": [],
      "stateMutability": "nonpayable",
      "type": "function"
    }
  ],
  "bytecode": "0x60806040523480156200001157600080fd5b50604051620036603803806200366083398181016040526200003791908101906200022e565b816200004d6000801b82620000bf60201b60201c565b80600360006101000a8154816001600160a01b0302191690836001600160a01b03160217905550506001600560006101000a81548160ff02191690831515021790555080600560016101000a8154816001600160a01b0302191690836001600160a01b03160217905550505062000285565b620000d18282620000d560201b60201c565b5050565b62000103816000808581526020019081526020016000206000016200015e60201b6200211f1790919060201c565b156200015a57620001196200018960201b60201c565b6001600160a01b0316816001600160a01b0316837f2f8788117e7eff1d82e926ec794901d17c78024a50270940304540a733656f0d60405160405180910390a45b5050565b60006200018183600001836001600160a01b031660001b6200019160201b60201c565b905092915050565b600033905090565b6000620001a583836200020b60201b60201c565b6200020057826000018290806001815401808255809150506001900390600052602060002001600090919091909150558260000180549050836001016000848152602001908152602001600020819055506001905062000205565b600090505b92915050565b600080836001016000848152602001908152602001600020541415905092915050565b6000806040838503121562000241578182fd5b82516200024e816200026d565b80925050602083015162000262816200026d565b809150509250929050565b60018060a01b03811681146200028257600080fd5b50565b6133cb80620002956000396000f3fe608060405234801561001057600080fd5b50600436106101735760003560e01c806384e5ddcb116100de57806398b9144611610097578063a87430ba11610071578063a87430ba146104f1578063ca15c87314610525578063d547741f14610555578063eb219a9d1461057157610173565b806398b91446146104735780639eaa8154146104a3578063a217fddf146104d357610173565b806384e5ddcb14610365578063856d0fb8146103955780638da5cb5b146103c55780638fd7c953146103e35780639010d07c1461041357806391d148541461044357610173565b80632f2ff15d116101305780632f2ff15d1461027457806336568abe14610290578063415deffa146102ac5780637217e0b9146102ca57806377289ff4146103015780637cd3262b1461033557610173565b806307973ccf14610178578063220d0df414610196578063248a9ca3146101c657806324d7806c146101f657806329cdcfd8146102265780632a0acc6a14610256575b600080fd5b61018061058d565b60405161018d9190613211565b60405180910390f35b6101b060048036036101ab9190810190612bdd565b610599565b6040516101bd9190612ecb565b60405180910390f35b6101e060048036036101db9190810190612aed565b6106ff565b6040516101ed9190612eba565b60405180910390f35b610210600480360361020b91908101906128cb565b61071e565b60405161021d9190612ea7565b60405180910390f35b610240600480360361023b91908101906128ee565b61076b565b60405161024d9190612ea7565b60405180910390f35b61025e610814565b60405161026b9190612eba565b60405180910390f35b61028e60048036036102899190810190612b08565b61082b565b005b6102aa60048036036102a59190810190612b08565b610884565b005b6102b46108d3565b6040516102c19190613211565b60405180910390f35b6102e460048036036102df9190810190612c47565b6108d9565b6040516102f89897969594939291906132f9565b60405180910390f35b61031b60048036036103169190810190612ba1565b610ae9565b60405161032c95949392919061328f565b60405180910390f35b61034f600480360361034a9190810190612c7d565b610c7f565b60405161035c9190613211565b60405180910390f35b61037f600480360361037a91908101906128cb565b610ca4565b60405161038c9190612ea7565b60405180910390f35b6103af60048036036103aa9190810190612b65565b610d1b565b6040516103bc9190612ea7565b60405180910390f35b6103cd6111d3565b6040516103da9190612e2f565b60405180910390f35b6103fd60048036036103f89190810190612994565b6111ec565b60405161040a9190612ea7565b60405180910390f35b61042d60048036036104289190810190612b41565b6112ee565b60405161043a9190612e2f565b60405180910390f35b61045d60048036036104589190810190612b08565b61131f565b60405161046a9190612ea7565b60405180910390f35b61048d600480360361048891908101906128cb565b611350565b60405161049a9190612ea7565b60405180910390f35b6104bd60048036036104b89190810190612922565b6113c7565b6040516104ca9190612ea7565b60405180910390f35b6104db611687565b6040516104e89190612eba565b60405180910390f35b61050b600480360361050691908101906128cb565b61168e565b60405161051c95949392919061328f565b60405180910390f35b61053f600480360361053a9190810190612aed565b61180e565b60405161054c9190613211565b60405180910390f35b61056f600480360361056a9190810190612b08565b611834565b005b61058b600480360361058691908101906129ea565b61188d565b005b60028060000154905081565b60606105b86040516105aa90612e17565b60405180910390203361131f565b6105dd5760405162461bcd60e51b81526004016105d49061302d565b60405180910390fd5b6040518060a00160405280848152602001838152602001600015158152602001600115158152602001604051806020016040528060008152508152506004856040516106299190612df9565b908152602001604051809103902060008201518160000155602082015181600101908051906020019061065d9291906125ab565b5060408201518160020160006101000a81548160ff02191690831515021790555060608201518160020160016101000a81548160ff02191690831515021790555060808201518160030190805190602001906106ba9291906125ab565b509050507f2db8c00ce40ae70a5d2121e4aac9d4a83122394ebad662ee1bfba58b4ab328b8846040516106ed9190612ecb565b60405180910390a18390509392505050565b6000806000838152602001908152602001600020600201549050919050565b600061073d60405161072f90612e17565b60405180910390208361131f565b6107625760405162461bcd60e51b815260040161075990612fcd565b60405180910390fd5b60019050919050565b6000600560019054906101000a90046001600160a01b03166001600160a01b0316336001600160a01b0316146107bc5760405162461bcd60e51b81526004016107b39061302d565b60405180910390fd5b82600660006101000a8154816001600160a01b0302191690836001600160a01b0316021790555081600760006101000a8154816001600160a01b0302191690836001600160a01b031602179055506001905092915050565b60405161082090612e17565b604051809103902081565b6108516000808481526020019081526020016000206002015461084c611cf9565b61131f565b6108765760405162461bcd60e51b815260040161086d90612f2f565b60405180910390fd5b6108808282611d01565b5050565b61088c611cf9565b6001600160a01b0316816001600160a01b0316146108c55760405162461bcd60e51b81526004016108bc906131bb565b60405180910390fd5b6108cf8282611d7a565b5050565b60085481565b6009602052806000526040600020600091509050806000015490806001015490806002015490806003015490806004015490806005018054600181600116156101000203166002900480601f0160208091040260200160405190810160405280929190818152602001828054600181600116156101000203166002900480156109a35780601f10610978576101008083540402835291602001916109a3565b820191906000526020600020905b81548152906001019060200180831161098657829003601f168201915b505050505090806006018054600181600116156101000203166002900480601f016020809104026020016040519081016040528092919081815260200182805460018160011615610100020316600290048015610a415780601f10610a1657610100808354040283529160200191610a41565b820191906000526020600020905b815481529060010190602001808311610a2457829003601f168201915b505050505090806007018054600181600116156101000203166002900480601f016020809104026020016040519081016040528092919081815260200182805460018160011615610100020316600290048015610adf5780601f10610ab457610100808354040283529160200191610adf565b820191906000526020600020905b815481529060010190602001808311610ac257829003601f168201915b5050505050905088565b600481805160208101820180518482526020830160208501208183528095505050505050600091509050806000015490806001018054600181600116156101000203166002900480601f016020809104026020016040519081016040528092919081815260200182805460018160011615610100020316600290048015610bb15780601f10610b8657610100808354040283529160200191610bb1565b820191906000526020600020905b815481529060010190602001808311610b9457829003601f168201915b5050505050908060020160009054906101000a900460ff16908060020160019054906101000a900460ff1690806003018054600181600116156101000203166002900480601f016020809104026020016040519081016040528092919081815260200182805460018160011615610100020316600290048015610c755780601f10610c4a57610100808354040283529160200191610c75565b820191906000526020600020905b815481529060010190602001808311610c5857829003601f168201915b5050505050905085565b600a602052816000526040600020602052806000526040600020600091509150505481565b6000336001600160a01b0316600360009054906101000a90046001600160a01b03166001600160a01b031614610cf55760405162461bcd60e51b8152600401610cec90613111565b60405180910390fd5b610d12604051610d0490612e17565b60405180910390208361082b565b60019050919050565b6000600560009054906101000a900460ff16610d525760405162461bcd60e51b8152600401610d499061314f565b60405180910390fd5b6000600560006101000a81548160ff021916908315150217905550600660009054906101000a90046001600160a01b03166001600160a01b0316336001600160a01b031614610dbc5760405162461bcd60e51b8152600401610db39061302d565b60405180910390fd5b6060610dcf610dca84611df3565b611e21565b9050610dd961262b565b610df682600081518110610de957fe5b6020026020010151611efe565b9050610e0061262b565b610e1d83600181518110610e1057fe5b6020026020010151611efe565b90505b610e2982611f4c565b156110da576060610e41610e3c84611f76565b611e21565b90506000610e6282600081518110610e5557fe5b6020026020010151611fd0565b90506000610e8383600181518110610e7657fe5b6020026020010151611fd0565b90506060610ea484600581518110610e9757fe5b6020026020010151612041565b90506060610ec585600681518110610eb857fe5b6020026020010151612041565b90506060610ee686600781518110610ed957fe5b6020026020010151612041565b9050604051806101000160405280868152602001858152602001610f1d88600281518110610f1057fe5b6020026020010151611fd0565b8152602001610f3f88600381518110610f3257fe5b6020026020010151611fd0565b8152602001610f6188600481518110610f5457fe5b6020026020010151611fd0565b81526020018481526020018381526020018281525060096000868152602001908152602001600020600082015181600001556020820151816001015560408201518160020155606082015181600301556080820151816004015560a0820151816005019080519060200190610fd792919061264b565b5060c0820151816006019080519060200190610ff492919061264b565b5060e082015181600701908051906020019061101192919061264b565b50905050600760009054906101000a90046001600160a01b03166001600160a01b0316634478699385600960008881526020019081526020016000206040518363ffffffff1660e01b815260040161106a9291906132d7565b602060405180830381600087803b15801561108457600080fd5b505af1158015611098573d6000803e3d6000fd5b505050506040513d601f19601f820116820180604052506110bc9190810190612a90565b50600860008154809291906001019190505550505050505050610e20565b6028600854106111055760405162461bcd60e51b81526004016110fc9061318d565b60405180910390fd5b5b61110f81611f4c565b156111ac57606061112761112283611f76565b611e21565b90506111468160028151811061113957fe5b6020026020010151611fd0565b600a60006111678460008151811061115a57fe5b6020026020010151611fd0565b815260200190815260200160002060006111948460018151811061118757fe5b6020026020010151611fd0565b81526020019081526020016000208190555050611106565b600193505050506001600560006101000a81548160ff021916908315150217905550919050565b600360009054906101000a90046001600160a01b031681565b60006004836040516111fe9190612df9565b908152602001604051809103902060020160019054906101000a900460ff168061125a5750600015156004846040516112379190612df9565b908152602001604051809103902060020160009054906101000a900460ff161515145b61127f5760405162461bcd60e51b8152600401611276906130b1565b60405180910390fd5b7f1e32bfb1438da67e5979717aa28c62784e38409253785bc0b990a1d0f719cde1836040516112ae9190612ecb565b60405180910390a18160016000866001600160a01b03166001600160a01b0316815260200190815260200160002060000181905550600190509392505050565b6000611317826000808681526020019081526020016000206000016120b790919063ffffffff16565b905092915050565b6000611348826000808681526020019081526020016000206000016120d190919063ffffffff16565b905092915050565b6000336001600160a01b0316600360009054906101000a90046001600160a01b03166001600160a01b0316146113a15760405162461bcd60e51b815260040161139890613111565b60405180910390fd5b6113be6040516113b090612e17565b604051809103902083611834565b60019050919050565b6000600115156004836040516113dd9190612df9565b908152602001604051809103902060020160019054906101000a900460ff161515148061143c5750600015156004836040516114199190612df9565b908152602001604051809103902060020160009054906101000a900460ff161515145b6114615760405162461bcd60e51b8152600401611458906130b1565b60405180910390fd5b60016004836040516114739190612df9565b908152602001604051809103902060020160006101000a81548160ff02191690831515021790555060016004836040516114ad9190612df9565b908152602001604051809103902060020160016101000a81548160ff021916908315150217905550826004836040516114e69190612df9565b9081526020016040518091039020600301908051906020019061150a9291906126cb565b5060048260405161151b9190612df9565b908152602001604051809103902060016000866001600160a01b03166001600160a01b03168152602001908152602001600020600082015481600001556001820181600101908054600181600116156101000203166002900461157f92919061274b565b506002820160009054906101000a900460ff168160020160006101000a81548160ff0219169083151502179055506002820160019054906101000a900460ff168160020160016101000a81548160ff0219169083151502179055506003820181600301908054600181600116156101000203166002900461160192919061274b565b50905050836001600160a01b03167f96a67e602614398240312075d810102f6156834a598faf543f8e2c2e4cecb6b860405160405180910390a27fdfd47723dd4e40d83e7d08197d77568ee0bc69e996db7671c7b411945a99b8dd8260405161166a9190612ecb565b60405180910390a161167c60026120f4565b600190509392505050565b6000801b81565b6001602052806000526040600020600091509050806000015490806001018054600181600116156101000203166002900480601f0160208091040260200160405190810160405280929190818152602001828054600181600116156101000203166002900480156117405780601f1061171557610100808354040283529160200191611740565b820191906000526020600020905b81548152906001019060200180831161172357829003601f168201915b5050505050908060020160009054906101000a900460ff16908060020160019054906101000a900460ff1690806003018054600181600116156101000203166002900480601f0160208091040260200160405190810160405280929190818152602001828054600181600116156101000203166002900480156118045780601f106117d957610100808354040283529160200191611804565b820191906000526020600020905b8154815290600101906020018083116117e757829003601f168201915b5050505050905085565b600061182d60008084815260200190815260200160002060000161210a565b9050919050565b61185a60008084815260200190815260200160002060020154611855611cf9565b61131f565b61187f5760405162461bcd60e51b81526004016118769061305a565b60405180910390fd5b6118898282611d7a565b5050565b600560009054906101000a900460ff166118c25760405162461bcd60e51b81526004016118b99061314f565b60405180910390fd5b6000600560006101000a81548160ff021916908315150217905550600960008781526020019081526020016000206000015486336001600160a01b03167f3c53e20059c8daa512f9d5e52ffc55e286a99e8aeb70371872191d2da39cac9660405160405180910390a44260016000336001600160a01b03166001600160a01b03168152602001908152602001600020600001541161197b5760405162461bcd60e51b8152600401611972906130e0565b60405180910390fd5b4260016000896001600160a01b03166001600160a01b0316815260200190815260200160002060000154116119cb5760405162461bcd60e51b81526004016119c290612ffb565b60405180910390fd5b600a600086815260200190815260200160002060008781526020019081526020016000205460001415611a195760405162461bcd60e51b8152600401611a1090612f85565b60405180910390fd5b6000600a60008781526020019081526020016000206000888152602001908152602001600020549050600260096000898152602001908152602001600020600401541415611b33576000600760009054906101000a90046001600160a01b03166001600160a01b0316636bed0743878b33600960008e8152602001908152602001600020600960008981526020019081526020016000208b8b8b6040518963ffffffff1660e01b8152600401611ad6989796959493929190613222565b6040805180830381600087803b158015611aef57600080fd5b505af1158015611b03573d6000803e3d6000fd5b505050506040513d601f19601f82011682018060405250611b279190810190612aba565b91505080915050611bf6565b600760009054906101000a90046001600160a01b03166001600160a01b031663eaba989b8933600960008c81526020019081526020016000206009600087815260200190815260200160002088886040518763ffffffff1660e01b8152600401611ba296959493929190612e48565b602060405180830381600087803b158015611bbc57600080fd5b505af1158015611bd0573d6000803e3d6000fd5b505050506040513d601f19601f82011682018060405250611bf49190810190612a90565b505b600960008281526020019081526020016000206000015481896001600160a01b03167fdf549a4efbe29e86cdb2cda1adac7e7b787c5e57cda0917ca6ba7134ac3d2829600760009054906101000a90046001600160a01b03166001600160a01b031663eb11ea2c6040518163ffffffff1660e01b815260040160206040518083038186803b158015611c8757600080fd5b505afa158015611c9b573d6000803e3d6000fd5b505050506040513d601f19601f82011682018060405250611cbf9190810190612c62565b604051611ccc9190613211565b60405180910390a4506001600560006101000a81548160ff02191690831515021790555050505050505050565b600033905090565b611d288160008085815260200190815260200160002060000161211f90919063ffffffff16565b15611d7657611d35611cf9565b6001600160a01b0316816001600160a01b0316837f2f8788117e7eff1d82e926ec794901d17c78024a50270940304540a733656f0d60405160405180910390a45b5050565b611da18160008085815260200190815260200160002060000161214290919063ffffffff16565b15611def57611dae611cf9565b6001600160a01b0316816001600160a01b0316837ff6391f5c32d9c69d2a47ea670b442974b53935d1edc7fd64eb21e047a839171b60405160405180910390a45b5050565b611dfb6127d2565b600060208301905060405180604001604052808451815260200182815250915050919050565b6060611e2c82612165565b611e3557600080fd5b6000611e40836121b3565b9050606081604051908082528060200260200182016040528015611e7e57816020015b611e6b6127ec565b815260200190600190039081611e635790505b5090506000611e908560200151612224565b8560200151019050600080600090505b84811015611ef157611eb1836122ad565b9150604051806040016040528083815260200184815250848281518110611ed457fe5b602002602001018190525081830192508080600101915050611ea0565b5082945050505050919050565b611f0661262b565b611f0f82612165565b611f1857600080fd5b6000611f278360200151612224565b8360200151019050604051806040016040528084815260200182815250915050919050565b6000611f566127d2565b826000015190508060000151816020015101836020015110915050919050565b611f7e6127d2565b611f8782611f4c565b611f9057600080fd5b6000826020015190506000611fa4826122ad565b905080820184602001818152505060405180604001604052808281526020018381525092505050919050565b6000808260000151118015611fea57506021826000015111155b611ff357600080fd5b60006120028360200151612224565b9050600081846000015103905060008083866020015101905080519150602083101561203557826020036101000a820491505b81945050505050919050565b60608082600001516040519080825280601f01601f19166020018201604052801561207b5781602001600182028036833780820191505090505b50905060008151141561209157809150506120b2565b60008160200190506120ac8460200151828660000151612365565b81925050505b919050565b60006120c683600001836123cc565b60001c905092915050565b60006120ec83600001836001600160a01b031660001b61241f565b905092915050565b6001816000016000828254019250508190555050565b600061211882600001612442565b9050919050565b600061213a83600001836001600160a01b031660001b612453565b905092915050565b600061215d83600001836001600160a01b031660001b6124c3565b905092915050565b6000808260000151141561217c57600090506121ae565b60008083602001519050805160001a915060c060ff168260ff1610156121a7576000925050506121ae565b6001925050505b919050565b600080826000015114156121ca576000905061221f565b600080905060006121de8460200151612224565b84602001510190506000846000015185602001510190505b8082101561221857612207826122ad565b8201915082806001019350506121f6565b8293505050505b919050565b600080825160001a9050608060ff168110156122445760009150506122a8565b60b860ff16811080612269575060c060ff168110158015612268575060f860ff1681105b5b156122785760019150506122a8565b60c060ff168110156122985760018060b80360ff168203019150506122a8565b60018060f80360ff168203019150505b919050565b6000806000835160001a9050608060ff168110156122ce576001915061235b565b60b860ff168110156122eb576001608060ff16820301915061235a565b60c060ff1681101561231b5760b78103600185019450806020036101000a85510460018201810193505050612359565b60f860ff1681101561233857600160c060ff168203019150612358565b60f78103600185019450806020036101000a855104600182018101935050505b5b5b5b8192505050919050565b6000811415612373576123c7565b5b602060ff1681106123a35782518252602060ff1683019250602060ff1682019150602060ff1681039050612374565b6000600182602060ff16036101000a03905080198451168184511681811785525050505b505050565b6000818360000180549050116123fd5760405162461bcd60e51b81526004016123f490612ee6565b60405180910390fd5b82600001828154811061240c57fe5b9060005260206000200154905092915050565b600080836001016000848152602001908152602001600020541415905092915050565b600081600001805490509050919050565b600061245f838361241f565b6124b85782600001829080600181540180825580915050600190039060005260206000200160009091909190915055826000018054905083600101600084815260200190815260200160002081905550600190506124bd565b600090505b92915050565b6000808360010160008481526020019081526020016000205490506000811461259f576000600182039050600060018660000180549050039050600086600001828154811061250e57fe5b906000526020600020015490508087600001848154811061252b57fe5b906000526020600020018190555060018301876001016000838152602001908152602001600020819055508660000180548061256357fe5b600190038181906000526020600020016000905590558660010160008781526020019081526020016000206000905560019450505050506125a5565b60009150505b92915050565b828054600181600116156101000203166002900490600052602060002090601f016020900481019282601f106125ec57805160ff191683800117855561261a565b8280016001018555821561261a579182015b828111156126195782518255916020019190600101906125fe565b5b5090506126279190612806565b5090565b604051806040016040528061263e6127ec565b8152602001600081525090565b828054600181600116156101000203166002900490600052602060002090601f016020900481019282601f1061268c57805160ff19168380011785556126ba565b828001600101855582156126ba579182015b828111156126b957825182559160200191906001019061269e565b5b5090506126c79190612806565b5090565b828054600181600116156101000203166002900490600052602060002090601f016020900481019282601f1061270c57805160ff191683800117855561273a565b8280016001018555821561273a579182015b8281111561273957825182559160200191906001019061271e565b5b5090506127479190612806565b5090565b828054600181600116156101000203166002900490600052602060002090601f016020900481019282601f1061278457805485556127c1565b828001600101855582156127c157600052602060002091601f016020900482015b828111156127c05782548255916001019190600101906127a5565b5b5090506127ce9190612806565b5090565b604051806040016040528060008152602001600081525090565b604051806040016040528060008152602001600081525090565b61282891905b8082111561282457600081600090555060010161280c565b5090565b90565b60008135905060018060a01b038116811461284557600080fd5b92915050565b600082601f83011261285b578081fd5b813567ffffffffffffffff80821115612872578283fd5b6040516020601f19601f8501168201018181108382111715612892578485fd5b80604052508093508281528560208487010111156128af57600080fd5b8260208601602083013760006020848301015250505092915050565b6000602082840312156128dc578081fd5b6128e6838361282b565b905092915050565b60008060408385031215612900578081fd5b61290a848461282b565b9150612919846020850161282b565b90509250929050565b600080600060608486031215612936578081fd5b612940858561282b565b9250602084013567ffffffffffffffff8082111561295c578283fd5b6129688783880161284b565b9350604086013591508082111561297d578283fd5b5061298a8682870161284b565b9150509250925092565b6000806000606084860312156129a8578283fd5b6129b2858561282b565b9250602084013567ffffffffffffffff8111156129cd578283fd5b6129d98682870161284b565b925050604084013590509250925092565b600080600080600080600060c0888a031215612a04578283fd5b612a0e898961282b565b96506020880135955060408801359450606088013593506080880135925060a088013567ffffffffffffffff80821115612a46578384fd5b818a018b601f820112612a57578485fd5b8035925081831115612a67578485fd5b8b6020848301011115612a78578485fd5b60208101945050508091505092959891949750929550565b600060208284031215612aa1578081fd5b81518015158114612ab0578182fd5b8091505092915050565b60008060408385031215612acc578182fd5b82518015158114612adb578283fd5b80925050602083015190509250929050565b600060208284031215612afe578081fd5b8135905092915050565b60008060408385031215612b1a578182fd5b82359150602083013560018060a01b0381168114612b36578182fd5b809150509250929050565b60008060408385031215612b53578182fd5b82359150602083013590509250929050565b600060208284031215612b76578081fd5b813567ffffffffffffffff811115612b8c578182fd5b612b988482850161284b565b91505092915050565b600060208284031215612bb2578081fd5b813567ffffffffffffffff811115612bc8578182fd5b612bd48482850161284b565b91505092915050565b600080600060608486031215612bf1578081fd5b833567ffffffffffffffff80821115612c08578283fd5b612c148783880161284b565b9450602086013593506040860135915080821115612c30578283fd5b50612c3d8682870161284b565b9150509250925092565b600060208284031215612c58578081fd5b8135905092915050565b600060208284031215612c73578081fd5b8151905092915050565b60008060408385031215612c8f578182fd5b82359150602083013590509250929050565b60008284528282602086013780602084860101526020601f19601f85011685010190509392505050565b60008151808452612ce3816020860160208601613362565b6020601f19601f83011685010191505092915050565b60008154600180821660008114612d175760018114612d3557612d74565b607f6002840416865260ff1983166020870152604086019350612d74565b600283048087528560005260208060002060005b83811015612d6857815483828c01015285820191508281019050612d49565b82818b01019750505050505b50505092915050565b600061010082548452600183015460208501526002830154604085015260038301546060850152600483015460808501528060a0850152612dc381850160058501612cf9565b84810360c0860152612dd88160068601612cf9565b91505083810360e0850152612df08160078501612cf9565b91505092915050565b60008251612e0b818460208701613362565b80830191505092915050565b60006420a226a4a760d91b8252600582019050919050565b600060208201905060018060a01b038316825292915050565b600060018060a01b03808916835280881660208401525060a06040830152612e7360a0830187612d7d565b8281036060840152612e858187612d7d565b8381036080850152612e98818688612ca1565b92505050979650505050505050565b6000602082019050821515825292915050565b600060208201905082825292915050565b600060208252612ede6020830184612ccb565b905092915050565b600060208252602260208301527f456e756d657261626c655365743a20696e646578206f7574206f6620626f756e604083015261647360f01b6060830152608082019050919050565b600060208252602f60208301527f416363657373436f6e74726f6c3a2073656e646572206d75737420626520616e60408301526e0818591b5a5b881d1bc819dc985b9d608a1b6060830152608082019050919050565b600060208252602160208301527f57465f54454d504c4154455f494e56414c49445f4143544f525f4f525f5354456040830152600560fc1b6060830152608082019050919050565b600060208252600d60208301526c24a72b20a624a22fa0a226a4a760991b6040830152606082019050919050565b60006020825260116020830152701253959053125117d49150d25412515395607a1b6040830152606082019050919050565b600060208252600c60208301526b24a72b20a624a22faaa9a2a960a11b6040830152606082019050919050565b600060208252603060208301527f416363657373436f6e74726f6c3a2073656e646572206d75737420626520616e60408301526f2061646d696e20746f207265766f6b6560801b6060830152608082019050919050565b600060208252600e60208301526d494e56414c49445f55415f4b455960901b6040830152606082019050919050565b600060208252601060208301526f131250d15394d15117d156141254915160821b6040830152606082019050919050565b600060208252601860208301527f444f45535f4e4f545f484156455f4f574e45525f524f4c4500000000000000006040830152606082019050919050565b600060208252601f60208301527f5265656e7472616e637947756172643a207265656e7472616e742063616c6c006040830152606082019050919050565b600060208252600d60208301526c15d197d4d5115417d312535255609a1b6040830152606082019050919050565b600060208252602f60208301527f416363657373436f6e74726f6c3a2063616e206f6e6c792072656e6f756e636560408301526e103937b632b9903337b91039b2b63360891b6060830152608082019050919050565b600060208201905082825292915050565b600089825260018060a01b03808a16602084015280891660408401525060e0606083015261325360e0830188612d7d565b82810360808401526132658188612d7d565b8660a085015283810360c085015261327e818688612ca1565b925050509998505050505050505050565b600086825260a060208301526132a860a0830187612ccb565b8515156040840152841515606084015282810360808401526132ca8185612ccb565b9150509695505050505050565b6000838252604060208301526132f06040830184612d7d565b90509392505050565b60006101008a83528960208401528860408401528760608401528660808401528060a084015261332b81840187612ccb565b83810360c085015261333d8187612ccb565b91505082810360e08401526133528185612ccb565b9150509998505050505050505050565b60005b83811015613380578082015181840152602081019050613365565b8381111561338f576000848401525b5050505056fea26469706673582212204e2a229cc632334e76489bcf1910e37e5ab21f3cd65b469d31357f5b19727de764736f6c63430006030033",
  "source": "pragma solidity ^0.6.0;\npragma experimental ABIEncoderV2;\n\n\nimport \"../RLPReader/RLPReader.sol\";\nimport \"../../node_modules/@openzeppelin/contracts/utils/ReentrancyGuard.sol\";\nimport \"../../node_modules/@openzeppelin/contracts/utils/EnumerableSet.sol\";\nimport './IWModel.sol';\nimport \"./WStep.sol\";\nimport \"./LibUserAccess.sol\";\n/*\nWTemplate is created with\n- An IWModel interface, contains the struct for message flow\n- WStep items that handles transitions between states. A WStep contains most of the workflow\n  logic incl. mapping logic, validations, and any approval API integration\n- WState represents a state (eg Accepted, Rejected, ...)\n- uint256[] are the different actors in the workflow and which actions they are allowed to execute\n- \n*/\ncontract WTemplate is LibWStep, LibUserAccess, ReentrancyGuard {\n    using RLPReader for RLPReader.RLPItem;\n    using RLPReader for RLPReader.Iterator;\n    using RLPReader for bytes;\n    using EnumerableSet for EnumerableSet.UintSet;\n    using EnumerableSet for EnumerableSet.AddressSet;\n\n    address subowner;\n    address delegatedOwner;\n    // interface model\n    IWModel model;\n    uint256 public stepCount;\n    mapping (uint256 => WStep) public steps;\n    // find next workflow step\n    mapping (uint256 => mapping (uint256 => uint256)) public findNext;\n\n    constructor(address owner, address sub) public LibUserAccess(owner) {\n        subowner =  sub;\n    }\n\n    function delegateTemplateOwner(address to, address modelContract) public returns (bool) {\n        require(msg.sender == subowner, \"INVALID_USER\");\n        delegatedOwner = to;\n        model = IWModel(modelContract);\n        return true;\n    }\n/*\n  createWF generates the \"decision tree\" by using the WSteps and uint256[] \n*/\n    function createWF(bytes memory rlpBytes) public nonReentrant returns (bool) {\n        require(msg.sender == delegatedOwner, \"INVALID_USER\");\n\n\n        RLPReader.RLPItem[] memory payload = rlpBytes.toRlpItem().toList();\n\n        RLPReader.Iterator memory _steps = payload[0].iterator();\n        RLPReader.Iterator memory _actorActions = payload[1].iterator();\n                \n        while (_steps.hasNext()) {\n            RLPReader.RLPItem[] memory s = _steps.next().toList();\n            uint256 currentActor = s[0].toUint();\n            uint256 current = s[1].toUint();\n            bytes memory recipients = s[5].toRlpBytes();\n            bytes memory senders = s[6].toRlpBytes();\n            bytes memory stepStates = s[7].toRlpBytes();\n            steps[current] = WStep({\n                currentActor: currentActor,\n                current: current, // current\n                next: s[2].toUint(), // next\n                forkId: s[3].toUint(), // forkId\n                mappingType: s[4].toUint(), // mappingType,\n                recipientValidationsBytes: recipients,\n                senderValidationsBytes: senders,\n                statusChecksBytes: stepStates\n            });\n\n            model.createValidations(current, steps[current]);\n    \n            stepCount++;\n        }\n        require(stepCount < 40, \"WF_STEP_LIMIT\");\n\n        while (_actorActions.hasNext()) {\n            RLPReader.RLPItem[] memory linkStep = _actorActions.next().toList();\n            findNext[linkStep[0].toUint()][linkStep[1].toUint()] = linkStep[2].toUint();\n        }\n        \n\n        return true;\n    }    \n\n\n    /*\n    * Runs next step sequence\n    */\n    function executeStep(address to, \n    uint256 step, uint256 actor, \n    uint256 docId, \n    uint256 extid, bytes calldata payload) external nonReentrant {\n        emit LogWorkflowStepStart(msg.sender, step, steps[step].currentActor);\n\n        require(users[msg.sender].expires  > now, \"LICENSED_EXPIRED\");\n        require(users[to].expires  > now, \"INVALID_RECIPIENT\");\n        require(0 != findNext[actor][step], \"WF_TEMPLATE_INVALID_ACTOR_OR_STEP\");\n        \n        uint256 next = findNext[actor][step];\n\n        if (steps[step].mappingType == 2) {\n            (, uint256 fork) = model.updateSwitch(docId, to, msg.sender, steps[step], steps[next], extid, payload);\n            next = fork;\n        } else {\n             model.onAddRow(to, msg.sender, steps[step], steps[next], payload);\n        }\n\n        emit LogWorkflowStepCompleted(\n            to,\n            next,\n            steps[next].currentActor,\n            model.getCurrentModelIndex()\n        );\n    }\n}\n",
  "sourcePath": "/home/rogelio/Code/document-escrow-contracts/contracts/Documents/WTemplate.sol",
  "compiler": {
    "name": "solc",
    "version": "0.6.3+commit.8dda9521.Emscripten.clang"
  },
  "schemaVersion": "3.1.0",
  "updatedAt": "2020-05-12T14:29:55.185Z",
  "devdoc": {
    "methods": {
      "getRoleAdmin(bytes32)": {
        "details": "Returns the admin role that controls `role`. See {grantRole} and {revokeRole}.     * To change a role's admin, use {_setRoleAdmin}."
      },
      "getRoleMember(bytes32,uint256)": {
        "details": "Returns one of the accounts that have `role`. `index` must be a value between 0 and {getRoleMemberCount}, non-inclusive.     * Role bearers are not sorted in any particular way, and their ordering may change at any point.     * WARNING: When using {getRoleMember} and {getRoleMemberCount}, make sure you perform all queries on the same block. See the following https://forum.openzeppelin.com/t/iterating-over-elements-on-enumerableset-in-openzeppelin-contracts/2296[forum post] for more information."
      },
      "getRoleMemberCount(bytes32)": {
        "details": "Returns the number of accounts that have `role`. Can be used together with {getRoleMember} to enumerate all bearers of a role."
      },
      "grantRole(bytes32,address)": {
        "details": "Grants `role` to `account`.     * If `account` had not been already granted `role`, emits a {RoleGranted} event.     * Requirements:     * - the caller must have ``role``'s admin role."
      },
      "hasRole(bytes32,address)": {
        "details": "Returns `true` if `account` has been granted `role`."
      },
      "renounceRole(bytes32,address)": {
        "details": "Revokes `role` from the calling account.     * Roles are often managed via {grantRole} and {revokeRole}: this function's purpose is to provide a mechanism for accounts to lose their privileges if they are compromised (such as when a trusted device is misplaced).     * If the calling account had been granted `role`, emits a {RoleRevoked} event.     * Requirements:     * - the caller must be `account`."
      },
      "revokeRole(bytes32,address)": {
        "details": "Revokes `role` from `account`.     * If `account` had been granted `role`, emits a {RoleRevoked} event.     * Requirements:     * - the caller must have ``role``'s admin role."
      }
    }
  },
  "userdoc": {
    "methods": {}
  }
}