{
    "contractName": "XDVDocumentAnchoring",
    "abi": [
        {
            "inputs": [
                {
                    "internalType": "address",
                    "name": "tokenAddress",
                    "type": "address"
                }
            ],
            "stateMutability": "nonpayable",
            "type": "constructor"
        },
        {
            "anonymous": false,
            "inputs": [
                {
                    "indexed": true,
                    "internalType": "address",
                    "name": "user",
                    "type": "address"
                },
                {
                    "indexed": true,
                    "internalType": "string",
                    "name": "userDid",
                    "type": "string"
                },
                {
                    "indexed": false,
                    "internalType": "string",
                    "name": "documentURI",
                    "type": "string"
                },
                {
                    "indexed": false,
                    "internalType": "uint256",
                    "name": "id",
                    "type": "uint256"
                }
            ],
            "name": "DocumentAnchored",
            "type": "event"
        },
        {
            "anonymous": false,
            "inputs": [
                {
                    "indexed": true,
                    "internalType": "address",
                    "name": "payee",
                    "type": "address"
                },
                {
                    "indexed": false,
                    "internalType": "uint256",
                    "name": "weiAmount",
                    "type": "uint256"
                }
            ],
            "name": "Withdrawn",
            "type": "event"
        },
        {
            "inputs": [
                {
                    "internalType": "address",
                    "name": "",
                    "type": "address"
                }
            ],
            "name": "accounting",
            "outputs": [
                {
                    "internalType": "uint256",
                    "name": "",
                    "type": "uint256"
                }
            ],
            "stateMutability": "view",
            "type": "function",
            "constant": true
        },
        {
            "inputs": [],
            "name": "fee",
            "outputs": [
                {
                    "internalType": "uint256",
                    "name": "",
                    "type": "uint256"
                }
            ],
            "stateMutability": "view",
            "type": "function",
            "constant": true
        },
        {
            "inputs": [
                {
                    "internalType": "address",
                    "name": "",
                    "type": "address"
                }
            ],
            "name": "minterDocumentAnchorCounter",
            "outputs": [
                {
                    "internalType": "uint256",
                    "name": "",
                    "type": "uint256"
                }
            ],
            "stateMutability": "view",
            "type": "function",
            "constant": true
        },
        {
            "inputs": [
                {
                    "internalType": "address",
                    "name": "",
                    "type": "address"
                },
                {
                    "internalType": "uint256",
                    "name": "",
                    "type": "uint256"
                }
            ],
            "name": "minterDocumentAnchors",
            "outputs": [
                {
                    "internalType": "address",
                    "name": "user",
                    "type": "address"
                },
                {
                    "internalType": "string",
                    "name": "userDid",
                    "type": "string"
                },
                {
                    "internalType": "string",
                    "name": "documentURI",
                    "type": "string"
                },
                {
                    "internalType": "string",
                    "name": "description",
                    "type": "string"
                },
                {
                    "internalType": "uint256",
                    "name": "timestamp",
                    "type": "uint256"
                }
            ],
            "stateMutability": "view",
            "type": "function",
            "constant": true
        },
        {
            "inputs": [
                {
                    "internalType": "uint256",
                    "name": "",
                    "type": "uint256"
                }
            ],
            "name": "multiApprovalDocumentAnchors",
            "outputs": [
                {
                    "internalType": "address",
                    "name": "user",
                    "type": "address"
                },
                {
                    "internalType": "string",
                    "name": "userDid",
                    "type": "string"
                },
                {
                    "internalType": "string",
                    "name": "documentURI",
                    "type": "string"
                },
                {
                    "internalType": "string",
                    "name": "description",
                    "type": "string"
                },
                {
                    "internalType": "uint256",
                    "name": "timestamp",
                    "type": "uint256"
                }
            ],
            "stateMutability": "view",
            "type": "function",
            "constant": true
        },
        {
            "inputs": [],
            "name": "owner",
            "outputs": [
                {
                    "internalType": "address",
                    "name": "",
                    "type": "address"
                }
            ],
            "stateMutability": "view",
            "type": "function",
            "constant": true
        },
        {
            "inputs": [],
            "name": "stablecoin",
            "outputs": [
                {
                    "internalType": "contract IERC20",
                    "name": "",
                    "type": "address"
                }
            ],
            "stateMutability": "view",
            "type": "function",
            "constant": true
        },
        {
            "inputs": [
                {
                    "internalType": "address",
                    "name": "tokenAddress",
                    "type": "address"
                }
            ],
            "name": "setStableCoin",
            "outputs": [],
            "stateMutability": "nonpayable",
            "type": "function"
        },
        {
            "inputs": [
                {
                    "internalType": "address payable",
                    "name": "payee",
                    "type": "address"
                }
            ],
            "name": "withdraw",
            "outputs": [],
            "stateMutability": "nonpayable",
            "type": "function"
        },
        {
            "inputs": [
                {
                    "internalType": "address payable",
                    "name": "payee",
                    "type": "address"
                },
                {
                    "internalType": "address",
                    "name": "erc20token",
                    "type": "address"
                }
            ],
            "name": "withdrawToken",
            "outputs": [],
            "stateMutability": "nonpayable",
            "type": "function"
        },
        {
            "inputs": [
                {
                    "internalType": "uint256",
                    "name": "_fee",
                    "type": "uint256"
                }
            ],
            "name": "setProtocolConfig",
            "outputs": [],
            "stateMutability": "nonpayable",
            "type": "function"
        },
        {
            "inputs": [],
            "name": "getProtocolConfig",
            "outputs": [
                {
                    "internalType": "uint256",
                    "name": "",
                    "type": "uint256"
                }
            ],
            "stateMutability": "view",
            "type": "function",
            "constant": true
        },
        {
            "inputs": [
                {
                    "internalType": "uint256",
                    "name": "docid",
                    "type": "uint256"
                },
                {
                    "internalType": "string",
                    "name": "userDid",
                    "type": "string"
                },
                {
                    "internalType": "string",
                    "name": "documentUri",
                    "type": "string"
                },
                {
                    "internalType": "bool",
                    "name": "isComplete",
                    "type": "bool"
                }
            ],
            "name": "peerSigning",
            "outputs": [
                {
                    "internalType": "uint256",
                    "name": "",
                    "type": "uint256"
                }
            ],
            "stateMutability": "payable",
            "type": "function",
            "payable": true
        },
        {
            "inputs": [
                {
                    "internalType": "string",
                    "name": "userDid",
                    "type": "string"
                },
                {
                    "internalType": "string",
                    "name": "documentURI",
                    "type": "string"
                },
                {
                    "internalType": "string",
                    "name": "description",
                    "type": "string"
                },
                {
                    "internalType": "address[]",
                    "name": "whitelist",
                    "type": "address[]"
                }
            ],
            "name": "addDocument",
            "outputs": [
                {
                    "internalType": "uint256",
                    "name": "",
                    "type": "uint256"
                }
            ],
            "stateMutability": "payable",
            "type": "function",
            "payable": true
        }
    ],
    "bytecode": "0x60806040523480156200001157600080fd5b506040516200267b3803806200267b8339818101604052810190620000379190620000d7565b33600360006101000a81548173ffffffffffffffffffffffffffffffffffffffff021916908373ffffffffffffffffffffffffffffffffffffffff16021790555080600560006101000a81548173ffffffffffffffffffffffffffffffffffffffff021916908373ffffffffffffffffffffffffffffffffffffffff160217905550506200015c565b600081519050620000d18162000142565b92915050565b600060208284031215620000f057620000ef6200013d565b5b60006200010084828501620000c0565b91505092915050565b600062000116826200011d565b9050919050565b600073ffffffffffffffffffffffffffffffffffffffff82169050919050565b600080fd5b6200014d8162000109565b81146200015957600080fd5b50565b61250f806200016c6000396000f3fe6080604052600436106100dd5760003560e01c80637efa04561161007f578063991edf3f11610059578063991edf3f146102d0578063ddca3f431461030d578063e9cbd82214610338578063ed700b3e14610363576100dd565b80637efa0456146102275780638da5cb5b14610264578063943053c51461028f576100dd565b80632d2103c1116100bb5780632d2103c11461016b5780632f8d845a146101ac5780633aeac4e1146101d557806351cff8d9146101fe576100dd565b8063195543a5146100e25780631feb9e2a1461011257806323af4e1714610142575b600080fd5b6100fc60048036038101906100f79190611c3b565b61038e565b604051610109919061203d565b60405180910390f35b61012c60048036038101906101279190611b0a565b6108db565b604051610139919061203d565b60405180910390f35b34801561014e57600080fd5b5061016960048036038101906101649190611a03565b610ece565b005b34801561017757600080fd5b50610192600480360381019061018d9190611a9d565b610fa2565b6040516101a3959493929190611eea565b60405180910390f35b3480156101b857600080fd5b506101d360048036038101906101ce9190611be1565b61119d565b005b3480156101e157600080fd5b506101fc60048036038101906101f79190611a5d565b611237565b005b34801561020a57600080fd5b5061022560048036038101906102209190611a30565b611473565b005b34801561023357600080fd5b5061024e60048036038101906102499190611a03565b61155a565b60405161025b919061203d565b60405180910390f35b34801561027057600080fd5b50610279611572565b6040516102869190611e46565b60405180910390f35b34801561029b57600080fd5b506102b660048036038101906102b19190611be1565b611598565b6040516102c7959493929190611eea565b60405180910390f35b3480156102dc57600080fd5b506102f760048036038101906102f29190611a03565b611786565b604051610304919061203d565b60405180910390f35b34801561031957600080fd5b5061032261179e565b60405161032f919061203d565b60405180910390f35b34801561034457600080fd5b5061034d6117a4565b60405161035a9190611f52565b60405180910390f35b34801561036f57600080fd5b506103786117ca565b604051610385919061203d565b60405180910390f35b600080600560009054906101000a900473ffffffffffffffffffffffffffffffffffffffff1673ffffffffffffffffffffffffffffffffffffffff166370a08231336040518263ffffffff1660e01b81526004016103ec9190611e46565b60206040518083038186803b15801561040457600080fd5b505afa158015610418573d6000803e3d6000fd5b505050506040513d601f19601f8201168201806040525081019061043c9190611c0e565b1161047c576040517f08c379a000000000000000000000000000000000000000000000000000000000815260040161047390611f9d565b60405180910390fd5b6000600560009054906101000a900473ffffffffffffffffffffffffffffffffffffffff1673ffffffffffffffffffffffffffffffffffffffff1663dd62ed3e33306040518363ffffffff1660e01b81526004016104db929190611e8a565b60206040518083038186803b1580156104f357600080fd5b505afa158015610507573d6000803e3d6000fd5b505050506040513d601f19601f8201168201806040525081019061052b9190611c0e565b1161056b576040517f08c379a00000000000000000000000000000000000000000000000000000000081526004016105629061201d565b60405180910390fd5b600560009054906101000a900473ffffffffffffffffffffffffffffffffffffffff1673ffffffffffffffffffffffffffffffffffffffff166323b872dd33306004546040518463ffffffff1660e01b81526004016105cc93929190611eb3565b602060405180830381600087803b1580156105e657600080fd5b505af11580156105fa573d6000803e3d6000fd5b505050506040513d601f19601f8201168201806040525081019061061e9190611add565b61065d576040517f08c379a000000000000000000000000000000000000000000000000000000000815260040161065490611fbd565b60405180910390fd5b600454600660003373ffffffffffffffffffffffffffffffffffffffff1673ffffffffffffffffffffffffffffffffffffffff168152602001908152602001600020546106aa9190612101565b600660003373ffffffffffffffffffffffffffffffffffffffff1673ffffffffffffffffffffffffffffffffffffffff16815260200190815260200160002081905550600454600660003073ffffffffffffffffffffffffffffffffffffffff1673ffffffffffffffffffffffffffffffffffffffff1681526020019081526020016000205461073a9190612101565b600660003073ffffffffffffffffffffffffffffffffffffffff1673ffffffffffffffffffffffffffffffffffffffff168152602001908152602001600020819055506000803373ffffffffffffffffffffffffffffffffffffffff1673ffffffffffffffffffffffffffffffffffffffff16815260200190815260200160002060008154809291906107cc906122b0565b919050555060008060003373ffffffffffffffffffffffffffffffffffffffff1673ffffffffffffffffffffffffffffffffffffffff168152602001908152602001600020549050336002600083815260200190815260200160002060000160006101000a81548173ffffffffffffffffffffffffffffffffffffffff021916908373ffffffffffffffffffffffffffffffffffffffff160217905550846040516108779190611e2f565b60405180910390203373ffffffffffffffffffffffffffffffffffffffff167f0a007e579f0793671747216eab1061026d102ff0f66e876d2edaa6277ad53e6686846040516108c7929190611f6d565b60405180910390a380915050949350505050565b600080600560009054906101000a900473ffffffffffffffffffffffffffffffffffffffff1673ffffffffffffffffffffffffffffffffffffffff166370a08231336040518263ffffffff1660e01b81526004016109399190611e46565b60206040518083038186803b15801561095157600080fd5b505afa158015610965573d6000803e3d6000fd5b505050506040513d601f19601f820116820180604052508101906109899190611c0e565b116109c9576040517f08c379a00000000000000000000000000000000000000000000000000000000081526004016109c090611f9d565b60405180910390fd5b6000600560009054906101000a900473ffffffffffffffffffffffffffffffffffffffff1673ffffffffffffffffffffffffffffffffffffffff1663dd62ed3e33306040518363ffffffff1660e01b8152600401610a28929190611e8a565b60206040518083038186803b158015610a4057600080fd5b505afa158015610a54573d6000803e3d6000fd5b505050506040513d601f19601f82011682018060405250810190610a789190611c0e565b11610ab8576040517f08c379a0000000000000000000000000000000000000000000000000000000008152600401610aaf9061201d565b60405180910390fd5b600560009054906101000a900473ffffffffffffffffffffffffffffffffffffffff1673ffffffffffffffffffffffffffffffffffffffff166323b872dd33306004546040518463ffffffff1660e01b8152600401610b1993929190611eb3565b602060405180830381600087803b158015610b3357600080fd5b505af1158015610b47573d6000803e3d6000fd5b505050506040513d601f19601f82011682018060405250810190610b6b9190611add565b610baa576040517f08c379a0000000000000000000000000000000000000000000000000000000008152600401610ba190611fbd565b60405180910390fd5b600454600660003373ffffffffffffffffffffffffffffffffffffffff1673ffffffffffffffffffffffffffffffffffffffff16815260200190815260200160002054610bf79190612101565b600660003373ffffffffffffffffffffffffffffffffffffffff1673ffffffffffffffffffffffffffffffffffffffff16815260200190815260200160002081905550600454600660003073ffffffffffffffffffffffffffffffffffffffff1673ffffffffffffffffffffffffffffffffffffffff16815260200190815260200160002054610c879190612101565b600660003073ffffffffffffffffffffffffffffffffffffffff1673ffffffffffffffffffffffffffffffffffffffff168152602001908152602001600020819055506000803373ffffffffffffffffffffffffffffffffffffffff1673ffffffffffffffffffffffffffffffffffffffff1681526020019081526020016000206000815480929190610d19906122b0565b919050555060008060003373ffffffffffffffffffffffffffffffffffffffff1673ffffffffffffffffffffffffffffffffffffffff1681526020019081526020016000205490506040518060a001604052803373ffffffffffffffffffffffffffffffffffffffff168152602001878152602001868152602001858152602001428152506002600083815260200190815260200160002060008201518160000160006101000a81548173ffffffffffffffffffffffffffffffffffffffff021916908373ffffffffffffffffffffffffffffffffffffffff1602179055506020820151816001019080519060200190610e149291906117d4565b506040820151816002019080519060200190610e319291906117d4565b506060820151816003019080519060200190610e4e9291906117d4565b506080820151816004015590505085604051610e6a9190611e2f565b60405180910390203373ffffffffffffffffffffffffffffffffffffffff167f0a007e579f0793671747216eab1061026d102ff0f66e876d2edaa6277ad53e668784604051610eba929190611f6d565b60405180910390a380915050949350505050565b600360009054906101000a900473ffffffffffffffffffffffffffffffffffffffff1673ffffffffffffffffffffffffffffffffffffffff163373ffffffffffffffffffffffffffffffffffffffff1614610f5e576040517f08c379a0000000000000000000000000000000000000000000000000000000008152600401610f5590611fdd565b60405180910390fd5b80600560006101000a81548173ffffffffffffffffffffffffffffffffffffffff021916908373ffffffffffffffffffffffffffffffffffffffff16021790555050565b6001602052816000526040600020602052806000526040600020600091509150508060000160009054906101000a900473ffffffffffffffffffffffffffffffffffffffff1690806001018054610ff89061224d565b80601f01602080910402602001604051908101604052809291908181526020018280546110249061224d565b80156110715780601f1061104657610100808354040283529160200191611071565b820191906000526020600020905b81548152906001019060200180831161105457829003601f168201915b5050505050908060020180546110869061224d565b80601f01602080910402602001604051908101604052809291908181526020018280546110b29061224d565b80156110ff5780601f106110d4576101008083540402835291602001916110ff565b820191906000526020600020905b8154815290600101906020018083116110e257829003601f168201915b5050505050908060030180546111149061224d565b80601f01602080910402602001604051908101604052809291908181526020018280546111409061224d565b801561118d5780601f106111625761010080835404028352916020019161118d565b820191906000526020600020905b81548152906001019060200180831161117057829003601f168201915b5050505050908060040154905085565b600360009054906101000a900473ffffffffffffffffffffffffffffffffffffffff1673ffffffffffffffffffffffffffffffffffffffff163373ffffffffffffffffffffffffffffffffffffffff161461122d576040517f08c379a000000000000000000000000000000000000000000000000000000000815260040161122490611fdd565b60405180910390fd5b8060048190555050565b600360009054906101000a900473ffffffffffffffffffffffffffffffffffffffff1673ffffffffffffffffffffffffffffffffffffffff163373ffffffffffffffffffffffffffffffffffffffff16146112c7576040517f08c379a00000000000000000000000000000000000000000000000000000000081526004016112be90611fdd565b60405180910390fd5b60008173ffffffffffffffffffffffffffffffffffffffff166370a08231306040518263ffffffff1660e01b81526004016113029190611e46565b60206040518083038186803b15801561131a57600080fd5b505afa15801561132e573d6000803e3d6000fd5b505050506040513d601f19601f820116820180604052508101906113529190611c0e565b90508173ffffffffffffffffffffffffffffffffffffffff1663a9059cbb84836040518363ffffffff1660e01b815260040161138f929190611e61565b602060405180830381600087803b1580156113a957600080fd5b505af11580156113bd573d6000803e3d6000fd5b505050506040513d601f19601f820116820180604052508101906113e19190611add565b611420576040517f08c379a000000000000000000000000000000000000000000000000000000000815260040161141790611ffd565b60405180910390fd5b8273ffffffffffffffffffffffffffffffffffffffff167f7084f5476618d8e60b11ef0d7d3f06914655adb8793e28ff7f018d4c76d505d582604051611466919061203d565b60405180910390a2505050565b600360009054906101000a900473ffffffffffffffffffffffffffffffffffffffff1673ffffffffffffffffffffffffffffffffffffffff163373ffffffffffffffffffffffffffffffffffffffff1614611503576040517f08c379a00000000000000000000000000000000000000000000000000000000081526004016114fa90611fdd565b60405180910390fd5b60004790508173ffffffffffffffffffffffffffffffffffffffff167f7084f5476618d8e60b11ef0d7d3f06914655adb8793e28ff7f018d4c76d505d58260405161154e919061203d565b60405180910390a25050565b60006020528060005260406000206000915090505481565b600360009054906101000a900473ffffffffffffffffffffffffffffffffffffffff1681565b60026020528060005260406000206000915090508060000160009054906101000a900473ffffffffffffffffffffffffffffffffffffffff16908060010180546115e19061224d565b80601f016020809104026020016040519081016040528092919081815260200182805461160d9061224d565b801561165a5780601f1061162f5761010080835404028352916020019161165a565b820191906000526020600020905b81548152906001019060200180831161163d57829003601f168201915b50505050509080600201805461166f9061224d565b80601f016020809104026020016040519081016040528092919081815260200182805461169b9061224d565b80156116e85780601f106116bd576101008083540402835291602001916116e8565b820191906000526020600020905b8154815290600101906020018083116116cb57829003601f168201915b5050505050908060030180546116fd9061224d565b80601f01602080910402602001604051908101604052809291908181526020018280546117299061224d565b80156117765780601f1061174b57610100808354040283529160200191611776565b820191906000526020600020905b81548152906001019060200180831161175957829003601f168201915b5050505050908060040154905085565b60066020528060005260406000206000915090505481565b60045481565b600560009054906101000a900473ffffffffffffffffffffffffffffffffffffffff1681565b6000600454905090565b8280546117e09061224d565b90600052602060002090601f0160209004810192826118025760008555611849565b82601f1061181b57805160ff1916838001178555611849565b82800160010185558215611849579182015b8281111561184857825182559160200191906001019061182d565b5b509050611856919061185a565b5090565b5b8082111561187357600081600090555060010161185b565b5090565b600061188a6118858461207d565b612058565b905080838252602082019050828560208602820111156118ad576118ac61238b565b5b60005b858110156118dd57816118c38882611929565b8452602084019350602083019250506001810190506118b0565b5050509392505050565b60006118fa6118f5846120a9565b612058565b90508281526020810184848401111561191657611915612390565b5b61192184828561220b565b509392505050565b6000813590506119388161247d565b92915050565b60008135905061194d81612494565b92915050565b600082601f83011261196857611967612386565b5b8135611978848260208601611877565b91505092915050565b600081359050611990816124ab565b92915050565b6000815190506119a5816124ab565b92915050565b600082601f8301126119c0576119bf612386565b5b81356119d08482602086016118e7565b91505092915050565b6000813590506119e8816124c2565b92915050565b6000815190506119fd816124c2565b92915050565b600060208284031215611a1957611a1861239a565b5b6000611a2784828501611929565b91505092915050565b600060208284031215611a4657611a4561239a565b5b6000611a548482850161193e565b91505092915050565b60008060408385031215611a7457611a7361239a565b5b6000611a828582860161193e565b9250506020611a9385828601611929565b9150509250929050565b60008060408385031215611ab457611ab361239a565b5b6000611ac285828601611929565b9250506020611ad3858286016119d9565b9150509250929050565b600060208284031215611af357611af261239a565b5b6000611b0184828501611996565b91505092915050565b60008060008060808587031215611b2457611b2361239a565b5b600085013567ffffffffffffffff811115611b4257611b41612395565b5b611b4e878288016119ab565b945050602085013567ffffffffffffffff811115611b6f57611b6e612395565b5b611b7b878288016119ab565b935050604085013567ffffffffffffffff811115611b9c57611b9b612395565b5b611ba8878288016119ab565b925050606085013567ffffffffffffffff811115611bc957611bc8612395565b5b611bd587828801611953565b91505092959194509250565b600060208284031215611bf757611bf661239a565b5b6000611c05848285016119d9565b91505092915050565b600060208284031215611c2457611c2361239a565b5b6000611c32848285016119ee565b91505092915050565b60008060008060808587031215611c5557611c5461239a565b5b6000611c63878288016119d9565b945050602085013567ffffffffffffffff811115611c8457611c83612395565b5b611c90878288016119ab565b935050604085013567ffffffffffffffff811115611cb157611cb0612395565b5b611cbd878288016119ab565b9250506060611cce87828801611981565b91505092959194509250565b611ce3816121b1565b82525050565b611cf281612157565b82525050565b611d01816121c3565b82525050565b6000611d12826120da565b611d1c81856120e5565b9350611d2c81856020860161221a565b611d358161239f565b840191505092915050565b6000611d4b826120da565b611d5581856120f6565b9350611d6581856020860161221a565b80840191505092915050565b6000611d7e6015836120e5565b9150611d89826123b0565b602082019050919050565b6000611da16017836120e5565b9150611dac826123d9565b602082019050919050565b6000611dc4600c836120e5565b9150611dcf82612402565b602082019050919050565b6000611de7601e836120e5565b9150611df28261242b565b602082019050919050565b6000611e0a6017836120e5565b9150611e1582612454565b602082019050919050565b611e29816121a7565b82525050565b6000611e3b8284611d40565b915081905092915050565b6000602082019050611e5b6000830184611ce9565b92915050565b6000604082019050611e766000830185611cda565b611e836020830184611e20565b9392505050565b6000604082019050611e9f6000830185611ce9565b611eac6020830184611ce9565b9392505050565b6000606082019050611ec86000830186611ce9565b611ed56020830185611ce9565b611ee26040830184611e20565b949350505050565b600060a082019050611eff6000830188611ce9565b8181036020830152611f118187611d07565b90508181036040830152611f258186611d07565b90508181036060830152611f398185611d07565b9050611f486080830184611e20565b9695505050505050565b6000602082019050611f676000830184611cf8565b92915050565b60006040820190508181036000830152611f878185611d07565b9050611f966020830184611e20565b9392505050565b60006020820190508181036000830152611fb681611d71565b9050919050565b60006020820190508181036000830152611fd681611d94565b9050919050565b60006020820190508181036000830152611ff681611db7565b9050919050565b6000602082019050818103600083015261201681611dda565b9050919050565b6000602082019050818103600083015261203681611dfd565b9050919050565b60006020820190506120526000830184611e20565b92915050565b6000612062612073565b905061206e828261227f565b919050565b6000604051905090565b600067ffffffffffffffff82111561209857612097612357565b5b602082029050602081019050919050565b600067ffffffffffffffff8211156120c4576120c3612357565b5b6120cd8261239f565b9050602081019050919050565b600081519050919050565b600082825260208201905092915050565b600081905092915050565b600061210c826121a7565b9150612117836121a7565b9250827fffffffffffffffffffffffffffffffffffffffffffffffffffffffffffffffff0382111561214c5761214b6122f9565b5b828201905092915050565b600061216282612187565b9050919050565b600061217482612187565b9050919050565b60008115159050919050565b600073ffffffffffffffffffffffffffffffffffffffff82169050919050565b6000819050919050565b60006121bc826121e7565b9050919050565b60006121ce826121d5565b9050919050565b60006121e082612187565b9050919050565b60006121f2826121f9565b9050919050565b600061220482612187565b9050919050565b82818337600083830152505050565b60005b8381101561223857808201518184015260208101905061221d565b83811115612247576000848401525b50505050565b6000600282049050600182168061226557607f821691505b6020821081141561227957612278612328565b5b50919050565b6122888261239f565b810181811067ffffffffffffffff821117156122a7576122a6612357565b5b80604052505050565b60006122bb826121a7565b91507fffffffffffffffffffffffffffffffffffffffffffffffffffffffffffffffff8214156122ee576122ed6122f9565b5b600182019050919050565b7f4e487b7100000000000000000000000000000000000000000000000000000000600052601160045260246000fd5b7f4e487b7100000000000000000000000000000000000000000000000000000000600052602260045260246000fd5b7f4e487b7100000000000000000000000000000000000000000000000000000000600052604160045260246000fd5b600080fd5b600080fd5b600080fd5b600080fd5b600080fd5b6000601f19601f8301169050919050565b7f496e76616c696420746f6b656e2062616c616e63650000000000000000000000600082015250565b7f5472616e73666572206661696c656420666f7220666565000000000000000000600082015250565b7f494e56414c49445f555345520000000000000000000000000000000000000000600082015250565b7f5472616e73666572206661696c656420666f72206261736520746f6b656e0000600082015250565b7f496e76616c696420746f6b656e20616c6c6f77616e6365000000000000000000600082015250565b61248681612157565b811461249157600080fd5b50565b61249d81612169565b81146124a857600080fd5b50565b6124b48161217b565b81146124bf57600080fd5b50565b6124cb816121a7565b81146124d657600080fd5b5056fea2646970667358221220eb88e9ba1e448b645d7d4a6989abbd43c59dd5fdb5b1622b6b0ecc2a26af8a6564736f6c63430008060033",
    "immutableReferences": {},
    "source": "// SPDX-License-Identifier: MIT\npragma solidity ^0.8.0;\n\nimport \"@openzeppelin/contracts/token/ERC20/IERC20.sol\";\nimport \"@openzeppelin/contracts/token/ERC721/ERC721.sol\";\nimport \"@openzeppelin/contracts/utils/Counters.sol\";\n\n/**\n *  Register Minters  debe ir un mapping, un evento de add registry, un counter para \n saber cuantos registros , get de fetch que debe recibir un address, y returnar un struct de vuelta\n */\ncontract XDVDocumentAnchoring {\n    // Document by minter id sequence/autonumber\n    mapping(address => uint) public minterDocumentAnchorCounter;\n\n// TODO: Remove, deprecated\n    // Document by user address by id\n    mapping(address => mapping(uint => DocumentAnchor)) public minterDocumentAnchors;\n\n    // Doocument by doc id\n    mapping(uint => DocumentAnchor) public multiApprovalDocumentAnchors;\n\n    event Withdrawn(address indexed payee, uint256 weiAmount);\n    address public owner;\n    uint public fee;\n    IERC20 public stablecoin;\n\n    mapping (address => uint) public accounting;\n\n    /**\n    * XDV Data Token\n    */\n    constructor(\n        address tokenAddress\n    ) {\n        owner = msg.sender;\n        stablecoin = IERC20(tokenAddress);\n    }\n\n    function setStableCoin(address tokenAddress) public {\n        require(msg.sender == owner, \"INVALID_USER\");\n        stablecoin = IERC20(tokenAddress);\n    }\n\n    function withdraw(address payable payee) public {\n        require(msg.sender == owner, \"INVALID_USER\");\n        uint256 b = address(this).balance;\n\n        emit Withdrawn(payee, b);\n    }\n\n    function withdrawToken(address payable payee, address erc20token) public {\n        require(msg.sender == owner, \"INVALID_USER\");\n        uint256 balance = IERC20(erc20token).balanceOf(address(this));\n\n        // Transfer tokens to pay service fee\n        require(\n            IERC20(erc20token).transfer(payee, balance),\n            \"Transfer failed for base token\"\n        );\n\n        emit Withdrawn(payee, balance);\n    }\n\n    function setProtocolConfig(uint256 _fee) public {\n        require(msg.sender == owner, \"INVALID_USER\");\n        fee = _fee;\n    }\n\n    function getProtocolConfig() public view returns (uint256) {\n        return (fee);\n    }\n    // Document Anchor\n    struct DocumentAnchor {\n        address user;\n        string userDid;\n        string documentURI; \n        string description;\n        uint timestamp;\n        // address[] whitelistSigners;\n    }\n\n    // DocumentAnchored events\n    event DocumentAnchored(\n        address indexed user, \n        string indexed userDid,\n        string documentURI,\n        uint id\n    );\n// Case 0 - single\n// Case 1 - get approvals\n// Case 2 - quorum eg 3 of 5 - aggPeerSigning\n    function peerSigning(\n        uint docid,\n        string memory userDid,\n        string memory documentUri,\n        bool isComplete\n    ) public payable returns(uint) {\n        // if docid exists\n        // require(multiApprovalDocumentAnchors[docid].user != address(0));\n        // if whitelist\n        // TODO: .whitelist.length > 0\n\n        // User must have a balance\n        require(\n            stablecoin.balanceOf(msg.sender) > 0,\n            \"Invalid token balance\"\n        );\n        // User must have an allowance\n        require(\n            stablecoin.allowance(msg.sender, address(this)) > 0,\n            \"Invalid token allowance\"\n        );\n\n\n        require(\n            stablecoin.transferFrom(\n                msg.sender,\n                address(this), \n                fee),\n            \"Transfer failed for fee\"\n        );\n\n        accounting[msg.sender] = accounting[msg.sender] + fee;\n        accounting[address(this)] = accounting[address(this)] + fee;\n\n        minterDocumentAnchorCounter[msg.sender]++;\n        uint i = minterDocumentAnchorCounter[msg.sender];\n            \n        multiApprovalDocumentAnchors[i].user = msg.sender;\n        // TODO: Update other fields\n\n        emit DocumentAnchored(msg.sender, userDid, documentUri, i);\n        return i; \n    }\n    function addDocument(\n        string memory userDid,\n        string memory documentURI,\n        string memory description,\n        address[] memory whitelist\n    ) public payable returns(uint){\n\n        // User must have a balance\n        require(\n            stablecoin.balanceOf(msg.sender) > 0,\n            \"Invalid token balance\"\n        );\n        // User must have an allowance\n        require(\n            stablecoin.allowance(msg.sender, address(this)) > 0,\n            \"Invalid token allowance\"\n        );\n\n\n        require(\n            stablecoin.transferFrom(\n                msg.sender,\n                address(this), \n                fee),\n            \"Transfer failed for fee\"\n        );\n\n        accounting[msg.sender] = accounting[msg.sender] + fee;\n        accounting[address(this)] = accounting[address(this)] + fee;\n\n        minterDocumentAnchorCounter[msg.sender]++;\n        uint i = minterDocumentAnchorCounter[msg.sender];\n            \n        multiApprovalDocumentAnchors[i] = DocumentAnchor({\n            user: msg.sender, \n            userDid: userDid,\n            documentURI: documentURI,\n            description: description,\n            timestamp: block.timestamp\n            // TODO\n            // whitelistSigners: whitelist\n        });\n\n        emit DocumentAnchored(msg.sender, userDid, documentURI, i);\n        return i;\n    }\n\n}",
    "sourcePath": "/home/rogelio/Code/xdv/nft-document-swap/contracts/XDVDocumentAnchoring.sol",
    "compiler": {
        "name": "solc",
        "version": "0.8.6+commit.11564f7e.Emscripten.clang"
    },
    "schemaVersion": "3.4.0",
    "updatedAt": "2021-07-17T18:51:13.424Z",
    "networkType": "ethereum",
    "devdoc": {
        "kind": "dev",
        "methods": {},
        "version": 1
    },
    "userdoc": {
        "kind": "user",
        "methods": {
            "constructor": {
                "notice": "XDV Data Token"
            }
        },
        "notice": "Register Minters  debe ir un mapping, un evento de add registry, un counter para  saber cuantos registros , get de fetch que debe recibir un address, y returnar un struct de vuelta",
        "version": 1
    }
}