{
    "contractName": "XDVNFT",
    "abi": [
        {
            "inputs": [
                {
                    "internalType": "string",
                    "name": "name",
                    "type": "string"
                },
                {
                    "internalType": "string",
                    "name": "symbol",
                    "type": "string"
                },
                {
                    "internalType": "address",
                    "name": "tokenERC20",
                    "type": "address"
                }
            ],
            "stateMutability": "nonpayable",
            "type": "constructor"
        },
        {
            "anonymous": false,
            "inputs": [
                {
                    "indexed": true,
                    "internalType": "address",
                    "name": "owner",
                    "type": "address"
                },
                {
                    "indexed": true,
                    "internalType": "address",
                    "name": "approved",
                    "type": "address"
                },
                {
                    "indexed": true,
                    "internalType": "uint256",
                    "name": "tokenId",
                    "type": "uint256"
                }
            ],
            "name": "Approval",
            "type": "event"
        },
        {
            "anonymous": false,
            "inputs": [
                {
                    "indexed": true,
                    "internalType": "address",
                    "name": "owner",
                    "type": "address"
                },
                {
                    "indexed": true,
                    "internalType": "address",
                    "name": "operator",
                    "type": "address"
                },
                {
                    "indexed": false,
                    "internalType": "bool",
                    "name": "approved",
                    "type": "bool"
                }
            ],
            "name": "ApprovalForAll",
            "type": "event"
        },
        {
            "anonymous": false,
            "inputs": [
                {
                    "indexed": true,
                    "internalType": "address",
                    "name": "previousOwner",
                    "type": "address"
                },
                {
                    "indexed": true,
                    "internalType": "address",
                    "name": "newOwner",
                    "type": "address"
                }
            ],
            "name": "OwnershipTransferred",
            "type": "event"
        },
        {
            "anonymous": false,
            "inputs": [
                {
                    "indexed": false,
                    "internalType": "address",
                    "name": "account",
                    "type": "address"
                }
            ],
            "name": "Paused",
            "type": "event"
        },
        {
            "anonymous": false,
            "inputs": [
                {
                    "indexed": true,
                    "internalType": "address",
                    "name": "from",
                    "type": "address"
                },
                {
                    "indexed": false,
                    "internalType": "uint256",
                    "name": "paidToContract",
                    "type": "uint256"
                },
                {
                    "indexed": false,
                    "internalType": "uint256",
                    "name": "paidToPaymentAddress",
                    "type": "uint256"
                }
            ],
            "name": "ServiceFeePaid",
            "type": "event"
        },
        {
            "anonymous": false,
            "inputs": [
                {
                    "indexed": true,
                    "internalType": "address",
                    "name": "from",
                    "type": "address"
                },
                {
                    "indexed": true,
                    "internalType": "address",
                    "name": "to",
                    "type": "address"
                },
                {
                    "indexed": true,
                    "internalType": "uint256",
                    "name": "tokenId",
                    "type": "uint256"
                }
            ],
            "name": "Transfer",
            "type": "event"
        },
        {
            "anonymous": false,
            "inputs": [
                {
                    "indexed": false,
                    "internalType": "address",
                    "name": "account",
                    "type": "address"
                }
            ],
            "name": "Unpaused",
            "type": "event"
        },
        {
            "anonymous": false,
            "inputs": [
                {
                    "indexed": true,
                    "internalType": "address",
                    "name": "paymentAddress",
                    "type": "address"
                },
                {
                    "indexed": false,
                    "internalType": "uint256",
                    "name": "amount",
                    "type": "uint256"
                }
            ],
            "name": "Withdrawn",
            "type": "event"
        },
        {
            "inputs": [
                {
                    "internalType": "address",
                    "name": "to",
                    "type": "address"
                },
                {
                    "internalType": "uint256",
                    "name": "tokenId",
                    "type": "uint256"
                }
            ],
            "name": "approve",
            "outputs": [],
            "stateMutability": "nonpayable",
            "type": "function"
        },
        {
            "inputs": [
                {
                    "internalType": "address",
                    "name": "owner",
                    "type": "address"
                }
            ],
            "name": "balanceOf",
            "outputs": [
                {
                    "internalType": "uint256",
                    "name": "",
                    "type": "uint256"
                }
            ],
            "stateMutability": "view",
            "type": "function",
            "constant": true
        },
        {
            "inputs": [
                {
                    "internalType": "uint256",
                    "name": "tokenId",
                    "type": "uint256"
                }
            ],
            "name": "burn",
            "outputs": [],
            "stateMutability": "nonpayable",
            "type": "function"
        },
        {
            "inputs": [
                {
                    "internalType": "uint256",
                    "name": "tokenId",
                    "type": "uint256"
                }
            ],
            "name": "getApproved",
            "outputs": [
                {
                    "internalType": "address",
                    "name": "",
                    "type": "address"
                }
            ],
            "stateMutability": "view",
            "type": "function",
            "constant": true
        },
        {
            "inputs": [
                {
                    "internalType": "address",
                    "name": "owner",
                    "type": "address"
                },
                {
                    "internalType": "address",
                    "name": "operator",
                    "type": "address"
                }
            ],
            "name": "isApprovedForAll",
            "outputs": [
                {
                    "internalType": "bool",
                    "name": "",
                    "type": "bool"
                }
            ],
            "stateMutability": "view",
            "type": "function",
            "constant": true
        },
        {
            "inputs": [],
            "name": "name",
            "outputs": [
                {
                    "internalType": "string",
                    "name": "",
                    "type": "string"
                }
            ],
            "stateMutability": "view",
            "type": "function",
            "constant": true
        },
        {
            "inputs": [],
            "name": "owner",
            "outputs": [
                {
                    "internalType": "address",
                    "name": "",
                    "type": "address"
                }
            ],
            "stateMutability": "view",
            "type": "function",
            "constant": true
        },
        {
            "inputs": [
                {
                    "internalType": "uint256",
                    "name": "tokenId",
                    "type": "uint256"
                }
            ],
            "name": "ownerOf",
            "outputs": [
                {
                    "internalType": "address",
                    "name": "",
                    "type": "address"
                }
            ],
            "stateMutability": "view",
            "type": "function",
            "constant": true
        },
        {
            "inputs": [],
            "name": "paused",
            "outputs": [
                {
                    "internalType": "bool",
                    "name": "",
                    "type": "bool"
                }
            ],
            "stateMutability": "view",
            "type": "function",
            "constant": true
        },
        {
            "inputs": [],
            "name": "renounceOwnership",
            "outputs": [],
            "stateMutability": "nonpayable",
            "type": "function"
        },
        {
            "inputs": [
                {
                    "internalType": "address",
                    "name": "from",
                    "type": "address"
                },
                {
                    "internalType": "address",
                    "name": "to",
                    "type": "address"
                },
                {
                    "internalType": "uint256",
                    "name": "tokenId",
                    "type": "uint256"
                }
            ],
            "name": "safeTransferFrom",
            "outputs": [],
            "stateMutability": "nonpayable",
            "type": "function"
        },
        {
            "inputs": [
                {
                    "internalType": "address",
                    "name": "from",
                    "type": "address"
                },
                {
                    "internalType": "address",
                    "name": "to",
                    "type": "address"
                },
                {
                    "internalType": "uint256",
                    "name": "tokenId",
                    "type": "uint256"
                },
                {
                    "internalType": "bytes",
                    "name": "_data",
                    "type": "bytes"
                }
            ],
            "name": "safeTransferFrom",
            "outputs": [],
            "stateMutability": "nonpayable",
            "type": "function"
        },
        {
            "inputs": [],
            "name": "serviceFeeForContract",
            "outputs": [
                {
                    "internalType": "uint256",
                    "name": "",
                    "type": "uint256"
                }
            ],
            "stateMutability": "view",
            "type": "function",
            "constant": true
        },
        {
            "inputs": [],
            "name": "serviceFeeForPaymentAddress",
            "outputs": [
                {
                    "internalType": "uint256",
                    "name": "",
                    "type": "uint256"
                }
            ],
            "stateMutability": "view",
            "type": "function",
            "constant": true
        },
        {
            "inputs": [
                {
                    "internalType": "address",
                    "name": "operator",
                    "type": "address"
                },
                {
                    "internalType": "bool",
                    "name": "approved",
                    "type": "bool"
                }
            ],
            "name": "setApprovalForAll",
            "outputs": [],
            "stateMutability": "nonpayable",
            "type": "function"
        },
        {
            "inputs": [],
            "name": "stablecoin",
            "outputs": [
                {
                    "internalType": "contract IERC20",
                    "name": "",
                    "type": "address"
                }
            ],
            "stateMutability": "view",
            "type": "function",
            "constant": true
        },
        {
            "inputs": [
                {
                    "internalType": "bytes4",
                    "name": "interfaceId",
                    "type": "bytes4"
                }
            ],
            "name": "supportsInterface",
            "outputs": [
                {
                    "internalType": "bool",
                    "name": "",
                    "type": "bool"
                }
            ],
            "stateMutability": "view",
            "type": "function",
            "constant": true
        },
        {
            "inputs": [],
            "name": "symbol",
            "outputs": [
                {
                    "internalType": "string",
                    "name": "",
                    "type": "string"
                }
            ],
            "stateMutability": "view",
            "type": "function",
            "constant": true
        },
        {
            "inputs": [
                {
                    "internalType": "address",
                    "name": "from",
                    "type": "address"
                },
                {
                    "internalType": "address",
                    "name": "to",
                    "type": "address"
                },
                {
                    "internalType": "uint256",
                    "name": "tokenId",
                    "type": "uint256"
                }
            ],
            "name": "transferFrom",
            "outputs": [],
            "stateMutability": "nonpayable",
            "type": "function"
        },
        {
            "inputs": [
                {
                    "internalType": "address",
                    "name": "newOwner",
                    "type": "address"
                }
            ],
            "name": "transferOwnership",
            "outputs": [],
            "stateMutability": "nonpayable",
            "type": "function"
        },
        {
            "inputs": [
                {
                    "internalType": "uint256",
                    "name": "_fee",
                    "type": "uint256"
                }
            ],
            "name": "setServiceFeeForPaymentAddress",
            "outputs": [],
            "stateMutability": "nonpayable",
            "type": "function"
        },
        {
            "inputs": [
                {
                    "internalType": "uint256",
                    "name": "_fee",
                    "type": "uint256"
                }
            ],
            "name": "setServiceFeeForContract",
            "outputs": [],
            "stateMutability": "nonpayable",
            "type": "function"
        },
        {
            "inputs": [
                {
                    "internalType": "address",
                    "name": "user",
                    "type": "address"
                },
                {
                    "internalType": "string",
                    "name": "uri",
                    "type": "string"
                }
            ],
            "name": "mint",
            "outputs": [
                {
                    "internalType": "uint256",
                    "name": "",
                    "type": "uint256"
                }
            ],
            "stateMutability": "nonpayable",
            "type": "function"
        },
        {
            "inputs": [
                {
                    "internalType": "uint256",
                    "name": "tokenId",
                    "type": "uint256"
                }
            ],
            "name": "tokenURI",
            "outputs": [
                {
                    "internalType": "string",
                    "name": "",
                    "type": "string"
                }
            ],
            "stateMutability": "view",
            "type": "function",
            "constant": true
        },
        {
            "inputs": [
                {
                    "internalType": "address payable",
                    "name": "payee",
                    "type": "address"
                }
            ],
            "name": "withdrawBalance",
            "outputs": [],
            "stateMutability": "nonpayable",
            "type": "function"
        }
    ],
    "bytecode": "0x60806040526000600b556000600c553480156200001b57600080fd5b50604051620043e7380380620043e78339818101604052810190620000419190620002da565b828281600090805190602001906200005b92919062000195565b5080600190805190602001906200007492919062000195565b5050506000600660006101000a81548160ff0219169083151502179055506000620000a46200018d60201b60201c565b905080600860006101000a81548173ffffffffffffffffffffffffffffffffffffffff021916908373ffffffffffffffffffffffffffffffffffffffff1602179055508073ffffffffffffffffffffffffffffffffffffffff16600073ffffffffffffffffffffffffffffffffffffffff167f8be0079c531659141344cd1fd0a4f28419497f9722a3daafe3b4186f6b6457e060405160405180910390a35080600a60006101000a81548173ffffffffffffffffffffffffffffffffffffffff021916908373ffffffffffffffffffffffffffffffffffffffff16021790555050505062000546565b600033905090565b828054620001a3906200043d565b90600052602060002090601f016020900481019282620001c7576000855562000213565b82601f10620001e257805160ff191683800117855562000213565b8280016001018555821562000213579182015b8281111562000212578251825591602001919060010190620001f5565b5b50905062000222919062000226565b5090565b5b808211156200024157600081600090555060010162000227565b5090565b60006200025c62000256846200039d565b62000374565b9050828152602081018484840111156200027b576200027a6200050c565b5b6200028884828562000407565b509392505050565b600081519050620002a1816200052c565b92915050565b600082601f830112620002bf57620002be62000507565b5b8151620002d184826020860162000245565b91505092915050565b600080600060608486031215620002f657620002f562000516565b5b600084015167ffffffffffffffff81111562000317576200031662000511565b5b6200032586828701620002a7565b935050602084015167ffffffffffffffff81111562000349576200034862000511565b5b6200035786828701620002a7565b92505060406200036a8682870162000290565b9150509250925092565b60006200038062000393565b90506200038e828262000473565b919050565b6000604051905090565b600067ffffffffffffffff821115620003bb57620003ba620004d8565b5b620003c6826200051b565b9050602081019050919050565b6000620003e082620003e7565b9050919050565b600073ffffffffffffffffffffffffffffffffffffffff82169050919050565b60005b83811015620004275780820151818401526020810190506200040a565b8381111562000437576000848401525b50505050565b600060028204905060018216806200045657607f821691505b602082108114156200046d576200046c620004a9565b5b50919050565b6200047e826200051b565b810181811067ffffffffffffffff82111715620004a0576200049f620004d8565b5b80604052505050565b7f4e487b7100000000000000000000000000000000000000000000000000000000600052602260045260246000fd5b7f4e487b7100000000000000000000000000000000000000000000000000000000600052604160045260246000fd5b600080fd5b600080fd5b600080fd5b600080fd5b6000601f19601f8301169050919050565b6200053781620003d3565b81146200054357600080fd5b50565b613e9180620005566000396000f3fe608060405234801561001057600080fd5b50600436106101735760003560e01c8063756af45f116100de578063c014b9da11610097578063e53ae10211610071578063e53ae10214610434578063e985e9c514610452578063e9cbd82214610482578063f2fde38b146104a057610173565b8063c014b9da146103b6578063c87b56dd146103d4578063d0def5211461040457610173565b8063756af45f1461030a5780638da5cb5b1461032657806395d89b4114610344578063a22cb46514610362578063b86be2ca1461037e578063b88d4fde1461039a57610173565b806342842e0e1161013057806342842e0e1461024a57806342966c68146102665780635c975abb146102825780636352211e146102a057806370a08231146102d0578063715018a61461030057610173565b806301ffc9a71461017857806306fdde03146101a8578063081812fc146101c6578063095ea7b3146101f657806323b872dd146102125780632c078e8d1461022e575b600080fd5b610192600480360381019061018d91906129f1565b6104bc565b60405161019f9190612fa3565b60405180910390f35b6101b061059e565b6040516101bd9190612fd9565b60405180910390f35b6101e060048036038101906101db9190612a4b565b610630565b6040516101ed9190612edc565b60405180910390f35b610210600480360381019061020b9190612984565b6106b5565b005b61022c60048036038101906102279190612812565b6107cd565b005b61024860048036038101906102439190612a4b565b61082d565b005b610264600480360381019061025f9190612812565b6108b3565b005b610280600480360381019061027b9190612a4b565b6108d3565b005b61028a61092f565b6040516102979190612fa3565b60405180910390f35b6102ba60048036038101906102b59190612a4b565b610946565b6040516102c79190612edc565b60405180910390f35b6102ea60048036038101906102e59190612778565b6109f8565b6040516102f791906132db565b60405180910390f35b610308610ab0565b005b610324600480360381019061031f91906127a5565b610bed565b005b61032e610e58565b60405161033b9190612edc565b60405180910390f35b61034c610e82565b6040516103599190612fd9565b60405180910390f35b61037c600480360381019061037791906128e8565b610f14565b005b61039860048036038101906103939190612a4b565b611095565b005b6103b460048036038101906103af9190612865565b61111b565b005b6103be61117d565b6040516103cb91906132db565b60405180910390f35b6103ee60048036038101906103e99190612a4b565b611183565b6040516103fb9190612fd9565b60405180910390f35b61041e60048036038101906104199190612928565b611195565b60405161042b91906132db565b60405180910390f35b61043c6111cd565b60405161044991906132db565b60405180910390f35b61046c600480360381019061046791906127d2565b6111d3565b6040516104799190612fa3565b60405180910390f35b61048a611267565b6040516104979190612fbe565b60405180910390f35b6104ba60048036038101906104b59190612778565b61128d565b005b60007f80ac58cd000000000000000000000000000000000000000000000000000000007bffffffffffffffffffffffffffffffffffffffffffffffffffffffff1916827bffffffffffffffffffffffffffffffffffffffffffffffffffffffff1916148061058757507f5b5e139f000000000000000000000000000000000000000000000000000000007bffffffffffffffffffffffffffffffffffffffffffffffffffffffff1916827bffffffffffffffffffffffffffffffffffffffffffffffffffffffff1916145b80610597575061059682611439565b5b9050919050565b6060600080546105ad906135c6565b80601f01602080910402602001604051908101604052809291908181526020018280546105d9906135c6565b80156106265780601f106105fb57610100808354040283529160200191610626565b820191906000526020600020905b81548152906001019060200180831161060957829003601f168201915b5050505050905090565b600061063b826114a3565b61067a576040517f08c379a0000000000000000000000000000000000000000000000000000000008152600401610671906131bb565b60405180910390fd5b6004600083815260200190815260200160002060009054906101000a900473ffffffffffffffffffffffffffffffffffffffff169050919050565b60006106c082610946565b90508073ffffffffffffffffffffffffffffffffffffffff168373ffffffffffffffffffffffffffffffffffffffff161415610731576040517f08c379a00000000000000000000000000000000000000000000000000000000081526004016107289061323b565b60405180910390fd5b8073ffffffffffffffffffffffffffffffffffffffff1661075061150f565b73ffffffffffffffffffffffffffffffffffffffff16148061077f575061077e8161077961150f565b6111d3565b5b6107be576040517f08c379a00000000000000000000000000000000000000000000000000000000081526004016107b5906130db565b60405180910390fd5b6107c88383611517565b505050565b6107de6107d861150f565b826115d0565b61081d576040517f08c379a00000000000000000000000000000000000000000000000000000000081526004016108149061327b565b60405180910390fd5b6108288383836116ae565b505050565b61083561150f565b73ffffffffffffffffffffffffffffffffffffffff16610853610e58565b73ffffffffffffffffffffffffffffffffffffffff16146108a9576040517f08c379a00000000000000000000000000000000000000000000000000000000081526004016108a0906131db565b60405180910390fd5b80600c8190555050565b6108ce8383836040518060200160405280600081525061111b565b505050565b6108e46108de61150f565b826115d0565b610923576040517f08c379a000000000000000000000000000000000000000000000000000000000815260040161091a906132bb565b60405180910390fd5b61092c8161190a565b50565b6000600660009054906101000a900460ff16905090565b6000806002600084815260200190815260200160002060009054906101000a900473ffffffffffffffffffffffffffffffffffffffff169050600073ffffffffffffffffffffffffffffffffffffffff168173ffffffffffffffffffffffffffffffffffffffff1614156109ef576040517f08c379a00000000000000000000000000000000000000000000000000000000081526004016109e69061311b565b60405180910390fd5b80915050919050565b60008073ffffffffffffffffffffffffffffffffffffffff168273ffffffffffffffffffffffffffffffffffffffff161415610a69576040517f08c379a0000000000000000000000000000000000000000000000000000000008152600401610a60906130fb565b60405180910390fd5b600360008373ffffffffffffffffffffffffffffffffffffffff1673ffffffffffffffffffffffffffffffffffffffff168152602001908152602001600020549050919050565b610ab861150f565b73ffffffffffffffffffffffffffffffffffffffff16610ad6610e58565b73ffffffffffffffffffffffffffffffffffffffff1614610b2c576040517f08c379a0000000000000000000000000000000000000000000000000000000008152600401610b23906131db565b60405180910390fd5b600073ffffffffffffffffffffffffffffffffffffffff16600860009054906101000a900473ffffffffffffffffffffffffffffffffffffffff1673ffffffffffffffffffffffffffffffffffffffff167f8be0079c531659141344cd1fd0a4f28419497f9722a3daafe3b4186f6b6457e060405160405180910390a36000600860006101000a81548173ffffffffffffffffffffffffffffffffffffffff021916908373ffffffffffffffffffffffffffffffffffffffff160217905550565b610bf561150f565b73ffffffffffffffffffffffffffffffffffffffff16610c13610e58565b73ffffffffffffffffffffffffffffffffffffffff1614610c69576040517f08c379a0000000000000000000000000000000000000000000000000000000008152600401610c60906131db565b60405180910390fd5b6000600a60009054906101000a900473ffffffffffffffffffffffffffffffffffffffff1673ffffffffffffffffffffffffffffffffffffffff166370a08231306040518263ffffffff1660e01b8152600401610cc69190612edc565b60206040518083038186803b158015610cde57600080fd5b505afa158015610cf2573d6000803e3d6000fd5b505050506040513d601f19601f82011682018060405250810190610d169190612a78565b9050600a60009054906101000a900473ffffffffffffffffffffffffffffffffffffffff1673ffffffffffffffffffffffffffffffffffffffff1663a9059cbb83836040518363ffffffff1660e01b8152600401610d75929190612ef7565b602060405180830381600087803b158015610d8f57600080fd5b505af1158015610da3573d6000803e3d6000fd5b505050506040513d601f19601f82011682018060405250810190610dc791906129c4565b610e06576040517f08c379a0000000000000000000000000000000000000000000000000000000008152600401610dfd9061329b565b60405180910390fd5b8173ffffffffffffffffffffffffffffffffffffffff167f7084f5476618d8e60b11ef0d7d3f06914655adb8793e28ff7f018d4c76d505d582604051610e4c91906132db565b60405180910390a25050565b6000600860009054906101000a900473ffffffffffffffffffffffffffffffffffffffff16905090565b606060018054610e91906135c6565b80601f0160208091040260200160405190810160405280929190818152602001828054610ebd906135c6565b8015610f0a5780601f10610edf57610100808354040283529160200191610f0a565b820191906000526020600020905b815481529060010190602001808311610eed57829003601f168201915b5050505050905090565b610f1c61150f565b73ffffffffffffffffffffffffffffffffffffffff168273ffffffffffffffffffffffffffffffffffffffff161415610f8a576040517f08c379a0000000000000000000000000000000000000000000000000000000008152600401610f819061309b565b60405180910390fd5b8060056000610f9761150f565b73ffffffffffffffffffffffffffffffffffffffff1673ffffffffffffffffffffffffffffffffffffffff16815260200190815260200160002060008473ffffffffffffffffffffffffffffffffffffffff1673ffffffffffffffffffffffffffffffffffffffff16815260200190815260200160002060006101000a81548160ff0219169083151502179055508173ffffffffffffffffffffffffffffffffffffffff1661104461150f565b73ffffffffffffffffffffffffffffffffffffffff167f17307eab39ab6107e8899845ad3d59bd9653f200f220920489ca2b5937696c31836040516110899190612fa3565b60405180910390a35050565b61109d61150f565b73ffffffffffffffffffffffffffffffffffffffff166110bb610e58565b73ffffffffffffffffffffffffffffffffffffffff1614611111576040517f08c379a0000000000000000000000000000000000000000000000000000000008152600401611108906131db565b60405180910390fd5b80600b8190555050565b61112c61112661150f565b836115d0565b61116b576040517f08c379a00000000000000000000000000000000000000000000000000000000081526004016111629061327b565b60405180910390fd5b61117784848484611916565b50505050565b600b5481565b606061118e82611972565b9050919050565b60006111a16009611ac4565b60006111ad6009611ada565b90506111b98482611ae8565b6111c38184611b06565b8091505092915050565b600c5481565b6000600560008473ffffffffffffffffffffffffffffffffffffffff1673ffffffffffffffffffffffffffffffffffffffff16815260200190815260200160002060008373ffffffffffffffffffffffffffffffffffffffff1673ffffffffffffffffffffffffffffffffffffffff16815260200190815260200160002060009054906101000a900460ff16905092915050565b600a60009054906101000a900473ffffffffffffffffffffffffffffffffffffffff1681565b61129561150f565b73ffffffffffffffffffffffffffffffffffffffff166112b3610e58565b73ffffffffffffffffffffffffffffffffffffffff1614611309576040517f08c379a0000000000000000000000000000000000000000000000000000000008152600401611300906131db565b60405180910390fd5b600073ffffffffffffffffffffffffffffffffffffffff168173ffffffffffffffffffffffffffffffffffffffff161415611379576040517f08c379a00000000000000000000000000000000000000000000000000000000081526004016113709061303b565b60405180910390fd5b8073ffffffffffffffffffffffffffffffffffffffff16600860009054906101000a900473ffffffffffffffffffffffffffffffffffffffff1673ffffffffffffffffffffffffffffffffffffffff167f8be0079c531659141344cd1fd0a4f28419497f9722a3daafe3b4186f6b6457e060405160405180910390a380600860006101000a81548173ffffffffffffffffffffffffffffffffffffffff021916908373ffffffffffffffffffffffffffffffffffffffff16021790555050565b60007f01ffc9a7000000000000000000000000000000000000000000000000000000007bffffffffffffffffffffffffffffffffffffffffffffffffffffffff1916827bffffffffffffffffffffffffffffffffffffffffffffffffffffffff1916149050919050565b60008073ffffffffffffffffffffffffffffffffffffffff166002600084815260200190815260200160002060009054906101000a900473ffffffffffffffffffffffffffffffffffffffff1673ffffffffffffffffffffffffffffffffffffffff1614159050919050565b600033905090565b816004600083815260200190815260200160002060006101000a81548173ffffffffffffffffffffffffffffffffffffffff021916908373ffffffffffffffffffffffffffffffffffffffff160217905550808273ffffffffffffffffffffffffffffffffffffffff1661158a83610946565b73ffffffffffffffffffffffffffffffffffffffff167f8c5be1e5ebec7d5bd14f71427d1e84f3dd0314c0f7b2291e5b200ac8c7c3b92560405160405180910390a45050565b60006115db826114a3565b61161a576040517f08c379a0000000000000000000000000000000000000000000000000000000008152600401611611906130bb565b60405180910390fd5b600061162583610946565b90508073ffffffffffffffffffffffffffffffffffffffff168473ffffffffffffffffffffffffffffffffffffffff16148061169457508373ffffffffffffffffffffffffffffffffffffffff1661167c84610630565b73ffffffffffffffffffffffffffffffffffffffff16145b806116a557506116a481856111d3565b5b91505092915050565b8273ffffffffffffffffffffffffffffffffffffffff166116ce82610946565b73ffffffffffffffffffffffffffffffffffffffff1614611724576040517f08c379a000000000000000000000000000000000000000000000000000000000815260040161171b906131fb565b60405180910390fd5b600073ffffffffffffffffffffffffffffffffffffffff168273ffffffffffffffffffffffffffffffffffffffff161415611794576040517f08c379a000000000000000000000000000000000000000000000000000000000815260040161178b9061307b565b60405180910390fd5b61179f838383611b7a565b6117aa600082611517565b6001600360008573ffffffffffffffffffffffffffffffffffffffff1673ffffffffffffffffffffffffffffffffffffffff16815260200190815260200160002060008282546117fa9190613470565b925050819055506001600360008473ffffffffffffffffffffffffffffffffffffffff1673ffffffffffffffffffffffffffffffffffffffff168152602001908152602001600020600082825461185191906133e9565b92505081905550816002600083815260200190815260200160002060006101000a81548173ffffffffffffffffffffffffffffffffffffffff021916908373ffffffffffffffffffffffffffffffffffffffff160217905550808273ffffffffffffffffffffffffffffffffffffffff168473ffffffffffffffffffffffffffffffffffffffff167fddf252ad1be2c89b69c2b068fc378daa952ba7f163c4a11628f55a4df523b3ef60405160405180910390a4505050565b61191381611c11565b50565b6119218484846116ae565b61192d84848484611c64565b61196c576040517f08c379a00000000000000000000000000000000000000000000000000000000081526004016119639061301b565b60405180910390fd5b50505050565b606061197d826114a3565b6119bc576040517f08c379a00000000000000000000000000000000000000000000000000000000081526004016119b39061319b565b60405180910390fd5b60006007600084815260200190815260200160002080546119dc906135c6565b80601f0160208091040260200160405190810160405280929190818152602001828054611a08906135c6565b8015611a555780601f10611a2a57610100808354040283529160200191611a55565b820191906000526020600020905b815481529060010190602001808311611a3857829003601f168201915b505050505090506000611a66611dfb565b9050600081511415611a7c578192505050611abf565b600082511115611ab1578082604051602001611a99929190612eb8565b60405160208183030381529060405292505050611abf565b611aba84611e12565b925050505b919050565b6001816000016000828254019250508190555050565b600081600001549050919050565b611b02828260405180602001604052806000815250611eb9565b5050565b611b0f826114a3565b611b4e576040517f08c379a0000000000000000000000000000000000000000000000000000000008152600401611b459061313b565b60405180910390fd5b80600760008481526020019081526020016000209080519060200190611b7592919061250d565b505050565b611b8261092f565b15611bc2576040517f08c379a0000000000000000000000000000000000000000000000000000000008152600401611bb99061325b565b60405180910390fd5b600073ffffffffffffffffffffffffffffffffffffffff168373ffffffffffffffffffffffffffffffffffffffff161415611c0157611c0083611f14565b5b611c0c83838361205d565b505050565b611c1a816120b5565b6000600760008381526020019081526020016000208054611c3a906135c6565b905014611c6157600760008281526020019081526020016000206000611c609190612593565b5b50565b6000611c858473ffffffffffffffffffffffffffffffffffffffff166121c6565b15611dee578373ffffffffffffffffffffffffffffffffffffffff1663150b7a02611cae61150f565b8786866040518563ffffffff1660e01b8152600401611cd09493929190612f57565b602060405180830381600087803b158015611cea57600080fd5b505af1925050508015611d1b57506040513d601f19601f82011682018060405250810190611d189190612a1e565b60015b611d9e573d8060008114611d4b576040519150601f19603f3d011682016040523d82523d6000602084013e611d50565b606091505b50600081511415611d96576040517f08c379a0000000000000000000000000000000000000000000000000000000008152600401611d8d9061301b565b60405180910390fd5b805181602001fd5b63150b7a0260e01b7bffffffffffffffffffffffffffffffffffffffffffffffffffffffff1916817bffffffffffffffffffffffffffffffffffffffffffffffffffffffff191614915050611df3565b600190505b949350505050565b606060405180602001604052806000815250905090565b6060611e1d826114a3565b611e5c576040517f08c379a0000000000000000000000000000000000000000000000000000000008152600401611e539061321b565b60405180910390fd5b6000611e66611dfb565b90506000815111611e865760405180602001604052806000815250611eb1565b80611e90846121d9565b604051602001611ea1929190612eb8565b6040516020818303038152906040525b915050919050565b611ec3838361233a565b611ed06000848484611c64565b611f0f576040517f08c379a0000000000000000000000000000000000000000000000000000000008152600401611f069061301b565b60405180910390fd5b505050565b600a60009054906101000a900473ffffffffffffffffffffffffffffffffffffffff1673ffffffffffffffffffffffffffffffffffffffff166323b872dd8230600c546040518463ffffffff1660e01b8152600401611f7593929190612f20565b602060405180830381600087803b158015611f8f57600080fd5b505af1158015611fa3573d6000803e3d6000fd5b505050506040513d601f19601f82011682018060405250810190611fc791906129c4565b612006576040517f08c379a0000000000000000000000000000000000000000000000000000000008152600401611ffd9061315b565b60405180910390fd5b8073ffffffffffffffffffffffffffffffffffffffff167fff781da90c6b849a72bafc99aedde3dff0b039f697f31c21e96d587accee2760600c54600b546040516120529291906132f6565b60405180910390a250565b612068838383612508565b61207061092f565b156120b0576040517f08c379a00000000000000000000000000000000000000000000000000000000081526004016120a790612ffb565b60405180910390fd5b505050565b60006120c082610946565b90506120ce81600084611b7a565b6120d9600083611517565b6001600360008373ffffffffffffffffffffffffffffffffffffffff1673ffffffffffffffffffffffffffffffffffffffff16815260200190815260200160002060008282546121299190613470565b925050819055506002600083815260200190815260200160002060006101000a81549073ffffffffffffffffffffffffffffffffffffffff021916905581600073ffffffffffffffffffffffffffffffffffffffff168273ffffffffffffffffffffffffffffffffffffffff167fddf252ad1be2c89b69c2b068fc378daa952ba7f163c4a11628f55a4df523b3ef60405160405180910390a45050565b600080823b905060008111915050919050565b60606000821415612221576040518060400160405280600181526020017f30000000000000000000000000000000000000000000000000000000000000008152509050612335565b600082905060005b6000821461225357808061223c90613629565b915050600a8261224c919061343f565b9150612229565b60008167ffffffffffffffff81111561226f5761226e61375f565b5b6040519080825280601f01601f1916602001820160405280156122a15781602001600182028036833780820191505090505b5090505b6000851461232e576001826122ba9190613470565b9150600a856122c99190613672565b60306122d591906133e9565b60f81b8183815181106122eb576122ea613730565b5b60200101907effffffffffffffffffffffffffffffffffffffffffffffffffffffffffffff1916908160001a905350600a85612327919061343f565b94506122a5565b8093505050505b919050565b600073ffffffffffffffffffffffffffffffffffffffff168273ffffffffffffffffffffffffffffffffffffffff1614156123aa576040517f08c379a00000000000000000000000000000000000000000000000000000000081526004016123a19061317b565b60405180910390fd5b6123b3816114a3565b156123f3576040517f08c379a00000000000000000000000000000000000000000000000000000000081526004016123ea9061305b565b60405180910390fd5b6123ff60008383611b7a565b6001600360008473ffffffffffffffffffffffffffffffffffffffff1673ffffffffffffffffffffffffffffffffffffffff168152602001908152602001600020600082825461244f91906133e9565b92505081905550816002600083815260200190815260200160002060006101000a81548173ffffffffffffffffffffffffffffffffffffffff021916908373ffffffffffffffffffffffffffffffffffffffff160217905550808273ffffffffffffffffffffffffffffffffffffffff16600073ffffffffffffffffffffffffffffffffffffffff167fddf252ad1be2c89b69c2b068fc378daa952ba7f163c4a11628f55a4df523b3ef60405160405180910390a45050565b505050565b828054612519906135c6565b90600052602060002090601f01602090048101928261253b5760008555612582565b82601f1061255457805160ff1916838001178555612582565b82800160010185558215612582579182015b82811115612581578251825591602001919060010190612566565b5b50905061258f91906125d3565b5090565b50805461259f906135c6565b6000825580601f106125b157506125d0565b601f0160209004906000526020600020908101906125cf91906125d3565b5b50565b5b808211156125ec5760008160009055506001016125d4565b5090565b60006126036125fe84613344565b61331f565b90508281526020810184848401111561261f5761261e613793565b5b61262a848285613584565b509392505050565b600061264561264084613375565b61331f565b90508281526020810184848401111561266157612660613793565b5b61266c848285613584565b509392505050565b60008135905061268381613de8565b92915050565b60008135905061269881613dff565b92915050565b6000813590506126ad81613e16565b92915050565b6000815190506126c281613e16565b92915050565b6000813590506126d781613e2d565b92915050565b6000815190506126ec81613e2d565b92915050565b600082601f8301126127075761270661378e565b5b81356127178482602086016125f0565b91505092915050565b600082601f8301126127355761273461378e565b5b8135612745848260208601612632565b91505092915050565b60008135905061275d81613e44565b92915050565b60008151905061277281613e44565b92915050565b60006020828403121561278e5761278d61379d565b5b600061279c84828501612674565b91505092915050565b6000602082840312156127bb576127ba61379d565b5b60006127c984828501612689565b91505092915050565b600080604083850312156127e9576127e861379d565b5b60006127f785828601612674565b925050602061280885828601612674565b9150509250929050565b60008060006060848603121561282b5761282a61379d565b5b600061283986828701612674565b935050602061284a86828701612674565b925050604061285b8682870161274e565b9150509250925092565b6000806000806080858703121561287f5761287e61379d565b5b600061288d87828801612674565b945050602061289e87828801612674565b93505060406128af8782880161274e565b925050606085013567ffffffffffffffff8111156128d0576128cf613798565b5b6128dc878288016126f2565b91505092959194509250565b600080604083850312156128ff576128fe61379d565b5b600061290d85828601612674565b925050602061291e8582860161269e565b9150509250929050565b6000806040838503121561293f5761293e61379d565b5b600061294d85828601612674565b925050602083013567ffffffffffffffff81111561296e5761296d613798565b5b61297a85828601612720565b9150509250929050565b6000806040838503121561299b5761299a61379d565b5b60006129a985828601612674565b92505060206129ba8582860161274e565b9150509250929050565b6000602082840312156129da576129d961379d565b5b60006129e8848285016126b3565b91505092915050565b600060208284031215612a0757612a0661379d565b5b6000612a15848285016126c8565b91505092915050565b600060208284031215612a3457612a3361379d565b5b6000612a42848285016126dd565b91505092915050565b600060208284031215612a6157612a6061379d565b5b6000612a6f8482850161274e565b91505092915050565b600060208284031215612a8e57612a8d61379d565b5b6000612a9c84828501612763565b91505092915050565b612aae8161352a565b82525050565b612abd816134a4565b82525050565b612acc816134c8565b82525050565b6000612add826133a6565b612ae781856133bc565b9350612af7818560208601613593565b612b00816137a2565b840191505092915050565b612b148161353c565b82525050565b6000612b25826133b1565b612b2f81856133cd565b9350612b3f818560208601613593565b612b48816137a2565b840191505092915050565b6000612b5e826133b1565b612b6881856133de565b9350612b78818560208601613593565b80840191505092915050565b6000612b91602b836133cd565b9150612b9c826137b3565b604082019050919050565b6000612bb46032836133cd565b9150612bbf82613802565b604082019050919050565b6000612bd76026836133cd565b9150612be282613851565b604082019050919050565b6000612bfa601c836133cd565b9150612c05826138a0565b602082019050919050565b6000612c1d6024836133cd565b9150612c28826138c9565b604082019050919050565b6000612c406019836133cd565b9150612c4b82613918565b602082019050919050565b6000612c63602c836133cd565b9150612c6e82613941565b604082019050919050565b6000612c866038836133cd565b9150612c9182613990565b604082019050919050565b6000612ca9602a836133cd565b9150612cb4826139df565b604082019050919050565b6000612ccc6029836133cd565b9150612cd782613a2e565b604082019050919050565b6000612cef602e836133cd565b9150612cfa82613a7d565b604082019050919050565b6000612d126022836133cd565b9150612d1d82613acc565b604082019050919050565b6000612d356020836133cd565b9150612d4082613b1b565b602082019050919050565b6000612d586031836133cd565b9150612d6382613b44565b604082019050919050565b6000612d7b602c836133cd565b9150612d8682613b93565b604082019050919050565b6000612d9e6020836133cd565b9150612da982613be2565b602082019050919050565b6000612dc16029836133cd565b9150612dcc82613c0b565b604082019050919050565b6000612de4602f836133cd565b9150612def82613c5a565b604082019050919050565b6000612e076021836133cd565b9150612e1282613ca9565b604082019050919050565b6000612e2a601e836133cd565b9150612e3582613cf8565b602082019050919050565b6000612e4d6031836133cd565b9150612e5882613d21565b604082019050919050565b6000612e706014836133cd565b9150612e7b82613d70565b602082019050919050565b6000612e936030836133cd565b9150612e9e82613d99565b604082019050919050565b612eb281613520565b82525050565b6000612ec48285612b53565b9150612ed08284612b53565b91508190509392505050565b6000602082019050612ef16000830184612ab4565b92915050565b6000604082019050612f0c6000830185612aa5565b612f196020830184612ea9565b9392505050565b6000606082019050612f356000830186612ab4565b612f426020830185612ab4565b612f4f6040830184612ea9565b949350505050565b6000608082019050612f6c6000830187612ab4565b612f796020830186612ab4565b612f866040830185612ea9565b8181036060830152612f988184612ad2565b905095945050505050565b6000602082019050612fb86000830184612ac3565b92915050565b6000602082019050612fd36000830184612b0b565b92915050565b60006020820190508181036000830152612ff38184612b1a565b905092915050565b6000602082019050818103600083015261301481612b84565b9050919050565b6000602082019050818103600083015261303481612ba7565b9050919050565b6000602082019050818103600083015261305481612bca565b9050919050565b6000602082019050818103600083015261307481612bed565b9050919050565b6000602082019050818103600083015261309481612c10565b9050919050565b600060208201905081810360008301526130b481612c33565b9050919050565b600060208201905081810360008301526130d481612c56565b9050919050565b600060208201905081810360008301526130f481612c79565b9050919050565b6000602082019050818103600083015261311481612c9c565b9050919050565b6000602082019050818103600083015261313481612cbf565b9050919050565b6000602082019050818103600083015261315481612ce2565b9050919050565b6000602082019050818103600083015261317481612d05565b9050919050565b6000602082019050818103600083015261319481612d28565b9050919050565b600060208201905081810360008301526131b481612d4b565b9050919050565b600060208201905081810360008301526131d481612d6e565b9050919050565b600060208201905081810360008301526131f481612d91565b9050919050565b6000602082019050818103600083015261321481612db4565b9050919050565b6000602082019050818103600083015261323481612dd7565b9050919050565b6000602082019050818103600083015261325481612dfa565b9050919050565b6000602082019050818103600083015261327481612e1d565b9050919050565b6000602082019050818103600083015261329481612e40565b9050919050565b600060208201905081810360008301526132b481612e63565b9050919050565b600060208201905081810360008301526132d481612e86565b9050919050565b60006020820190506132f06000830184612ea9565b92915050565b600060408201905061330b6000830185612ea9565b6133186020830184612ea9565b9392505050565b600061332961333a565b905061333582826135f8565b919050565b6000604051905090565b600067ffffffffffffffff82111561335f5761335e61375f565b5b613368826137a2565b9050602081019050919050565b600067ffffffffffffffff8211156133905761338f61375f565b5b613399826137a2565b9050602081019050919050565b600081519050919050565b600081519050919050565b600082825260208201905092915050565b600082825260208201905092915050565b600081905092915050565b60006133f482613520565b91506133ff83613520565b9250827fffffffffffffffffffffffffffffffffffffffffffffffffffffffffffffffff03821115613434576134336136a3565b5b828201905092915050565b600061344a82613520565b915061345583613520565b925082613465576134646136d2565b5b828204905092915050565b600061347b82613520565b915061348683613520565b925082821015613499576134986136a3565b5b828203905092915050565b60006134af82613500565b9050919050565b60006134c182613500565b9050919050565b60008115159050919050565b60007fffffffff0000000000000000000000000000000000000000000000000000000082169050919050565b600073ffffffffffffffffffffffffffffffffffffffff82169050919050565b6000819050919050565b600061353582613560565b9050919050565b60006135478261354e565b9050919050565b600061355982613500565b9050919050565b600061356b82613572565b9050919050565b600061357d82613500565b9050919050565b82818337600083830152505050565b60005b838110156135b1578082015181840152602081019050613596565b838111156135c0576000848401525b50505050565b600060028204905060018216806135de57607f821691505b602082108114156135f2576135f1613701565b5b50919050565b613601826137a2565b810181811067ffffffffffffffff821117156136205761361f61375f565b5b80604052505050565b600061363482613520565b91507fffffffffffffffffffffffffffffffffffffffffffffffffffffffffffffffff821415613667576136666136a3565b5b600182019050919050565b600061367d82613520565b915061368883613520565b925082613698576136976136d2565b5b828206905092915050565b7f4e487b7100000000000000000000000000000000000000000000000000000000600052601160045260246000fd5b7f4e487b7100000000000000000000000000000000000000000000000000000000600052601260045260246000fd5b7f4e487b7100000000000000000000000000000000000000000000000000000000600052602260045260246000fd5b7f4e487b7100000000000000000000000000000000000000000000000000000000600052603260045260246000fd5b7f4e487b7100000000000000000000000000000000000000000000000000000000600052604160045260246000fd5b600080fd5b600080fd5b600080fd5b600080fd5b6000601f19601f8301169050919050565b7f4552433732315061757361626c653a20746f6b656e207472616e73666572207760008201527f68696c6520706175736564000000000000000000000000000000000000000000602082015250565b7f4552433732313a207472616e7366657220746f206e6f6e20455243373231526560008201527f63656976657220696d706c656d656e7465720000000000000000000000000000602082015250565b7f4f776e61626c653a206e6577206f776e657220697320746865207a65726f206160008201527f6464726573730000000000000000000000000000000000000000000000000000602082015250565b7f4552433732313a20746f6b656e20616c7265616479206d696e74656400000000600082015250565b7f4552433732313a207472616e7366657220746f20746865207a65726f2061646460008201527f7265737300000000000000000000000000000000000000000000000000000000602082015250565b7f4552433732313a20617070726f766520746f2063616c6c657200000000000000600082015250565b7f4552433732313a206f70657261746f7220717565727920666f72206e6f6e657860008201527f697374656e7420746f6b656e0000000000000000000000000000000000000000602082015250565b7f4552433732313a20617070726f76652063616c6c6572206973206e6f74206f7760008201527f6e6572206e6f7220617070726f76656420666f7220616c6c0000000000000000602082015250565b7f4552433732313a2062616c616e636520717565727920666f7220746865207a6560008201527f726f206164647265737300000000000000000000000000000000000000000000602082015250565b7f4552433732313a206f776e657220717565727920666f72206e6f6e657869737460008201527f656e7420746f6b656e0000000000000000000000000000000000000000000000602082015250565b7f45524337323155524953746f726167653a2055524920736574206f66206e6f6e60008201527f6578697374656e7420746f6b656e000000000000000000000000000000000000602082015250565b7f5844563a205472616e73666572206661696c656420666f72207265636970696560008201527f6e74000000000000000000000000000000000000000000000000000000000000602082015250565b7f4552433732313a206d696e7420746f20746865207a65726f2061646472657373600082015250565b7f45524337323155524953746f726167653a2055524920717565727920666f722060008201527f6e6f6e6578697374656e7420746f6b656e000000000000000000000000000000602082015250565b7f4552433732313a20617070726f76656420717565727920666f72206e6f6e657860008201527f697374656e7420746f6b656e0000000000000000000000000000000000000000602082015250565b7f4f776e61626c653a2063616c6c6572206973206e6f7420746865206f776e6572600082015250565b7f4552433732313a207472616e73666572206f6620746f6b656e2074686174206960008201527f73206e6f74206f776e0000000000000000000000000000000000000000000000602082015250565b7f4552433732314d657461646174613a2055524920717565727920666f72206e6f60008201527f6e6578697374656e7420746f6b656e0000000000000000000000000000000000602082015250565b7f4552433732313a20617070726f76616c20746f2063757272656e74206f776e6560008201527f7200000000000000000000000000000000000000000000000000000000000000602082015250565b7f5844563a20546f6b656e20657865637574696f6e206973207061757365640000600082015250565b7f4552433732313a207472616e736665722063616c6c6572206973206e6f74206f60008201527f776e6572206e6f7220617070726f766564000000000000000000000000000000602082015250565b7f5844563a205472616e73666572206661696c6564000000000000000000000000600082015250565b7f4552433732314275726e61626c653a2063616c6c6572206973206e6f74206f7760008201527f6e6572206e6f7220617070726f76656400000000000000000000000000000000602082015250565b613df1816134a4565b8114613dfc57600080fd5b50565b613e08816134b6565b8114613e1357600080fd5b50565b613e1f816134c8565b8114613e2a57600080fd5b50565b613e36816134d4565b8114613e4157600080fd5b50565b613e4d81613520565b8114613e5857600080fd5b5056fea26469706673582212209a9c1b43230e2955f8b53fc2dece505aba719b520154063d5005127e7f0bf04664736f6c63430008060033",
    "immutableReferences": {},
    "source": "// SPDX-License-Identifier: MIT\npragma solidity ^0.8.0;\n\nimport \"@openzeppelin/contracts/access/Ownable.sol\";\nimport \"@openzeppelin/contracts/token/ERC20/IERC20.sol\";\nimport \"@openzeppelin/contracts/token/ERC721/ERC721.sol\";\nimport \"@openzeppelin/contracts/token/ERC721/extensions/ERC721Burnable.sol\";\nimport \"@openzeppelin/contracts/token/ERC721/extensions/ERC721Pausable.sol\";\nimport \"@openzeppelin/contracts/token/ERC721/extensions/ERC721URIStorage.sol\";\nimport \"@openzeppelin/contracts/utils/Counters.sol\";\n\n//  a NFT secure document \ncontract XDVNFT is ERC721Burnable, ERC721Pausable, ERC721URIStorage, Ownable {\n    using Counters for Counters.Counter;\n    Counters.Counter private _tokenIds;\n    IERC20 public stablecoin;\n    uint256 public serviceFeeForPaymentAddress = 0;\n    uint256 public serviceFeeForContract = 0;\n\n    event Withdrawn(address indexed paymentAddress, uint256 amount);\n\n    event ServiceFeePaid(\n        address indexed from,\n        uint256 paidToContract,\n        uint256 paidToPaymentAddress\n    );\n\n    /**\n     * XDVNFT Data Token\n     */\n    constructor(\n        string memory name,\n        string memory symbol,\n        address tokenERC20\n    ) ERC721(name, symbol) {\n        stablecoin = IERC20(tokenERC20);\n    }\n\n    function setServiceFeeForPaymentAddress(uint256 _fee) public onlyOwner {\n        serviceFeeForPaymentAddress = _fee;\n    }\n\n    function setServiceFeeForContract(uint256 _fee) public onlyOwner {\n        serviceFeeForContract = _fee;\n    }\n\n    /**\n     * @dev Mints a XDV Data Token\n     */\n    function mint(address user, string memory uri) public returns (uint256) {\n        _tokenIds.increment();\n\n        uint256 newItemId = _tokenIds.current();\n        _safeMint(user, newItemId);\n        _setTokenURI(newItemId, uri);\n\n        return newItemId;\n    }\n\n    /**\n     * @dev Just overrides the superclass' function. Fixes inheritance\n     * source: https://forum.openzeppelin.com/t/how-do-inherit-from-erc721-erc721enumerable-and-erc721uristorage-in-v4-of-openzeppelin-contracts/6656/4\n     */\n    function _burn(uint256 tokenId)\n        internal\n        override(ERC721, ERC721URIStorage)\n    {\n        super._burn(tokenId);\n    }\n\n    /**\n     * @dev Just overrides the superclass' function. Fixes inheritance\n     * source: https://forum.openzeppelin.com/t/how-do-inherit-from-erc721-erc721enumerable-and-erc721uristorage-in-v4-of-openzeppelin-contracts/6656/4\n     */\n    function tokenURI(uint256 tokenId)\n        public\n        view\n        override(ERC721, ERC721URIStorage)\n        returns (string memory)\n    {\n        return super.tokenURI(tokenId);\n    }\n\n    function _beforeTokenTransfer(\n        address from,\n        address to,\n        uint256 tokenId\n    ) internal virtual override(ERC721, ERC721Pausable) {\n        require(!paused(), \"XDV: Token execution is paused\");\n\n        if (from == address(0)) {\n            paymentBeforeMint(from);\n        }\n\n        super._beforeTokenTransfer(from, to, tokenId);\n    }\n\n    /**\n     * @dev tries to execute the payment when the token is minted.\n     * Reverts if the payment procedure could not be completed.\n     */\n    function paymentBeforeMint(address tokenHolder) internal virtual {\n\n        // Transfer tokens to pay service fee\n        require(\n            stablecoin.transferFrom(\n                tokenHolder,\n                address(this),\n                serviceFeeForContract\n            ),\n            \"XDV: Transfer failed for recipient\"\n        );\n\n        emit ServiceFeePaid(\n            tokenHolder,\n            serviceFeeForContract,\n            serviceFeeForPaymentAddress\n        );\n    }\n\n    function withdrawBalance(address payable payee) public onlyOwner {\n        uint256 balance = stablecoin.balanceOf(address(this));\n\n        require(\n            stablecoin.transfer(payee, balance),\n            \"XDV: Transfer failed\"\n        );\n\n        emit Withdrawn(payee, balance);\n    }\n}\n",
    "sourcePath": "/home/rogelio/Code/xdv/nft-document-swap/contracts/XDVNFT.sol",
    "compiler": {
        "name": "solc",
        "version": "0.8.6+commit.11564f7e.Emscripten.clang"
    },
    "schemaVersion": "3.4.0",
    "updatedAt": "2021-07-06T18:36:27.924Z",
    "networkType": "ethereum",
    "devdoc": {
        "kind": "dev",
        "methods": {
            "approve(address,uint256)": {
                "details": "See {IERC721-approve}."
            },
            "balanceOf(address)": {
                "details": "See {IERC721-balanceOf}."
            },
            "burn(uint256)": {
                "details": "Burns `tokenId`. See {ERC721-_burn}. Requirements: - The caller must own `tokenId` or be an approved operator."
            },
            "getApproved(uint256)": {
                "details": "See {IERC721-getApproved}."
            },
            "isApprovedForAll(address,address)": {
                "details": "See {IERC721-isApprovedForAll}."
            },
            "mint(address,string)": {
                "details": "Mints a XDV Data Token"
            },
            "name()": {
                "details": "See {IERC721Metadata-name}."
            },
            "owner()": {
                "details": "Returns the address of the current owner."
            },
            "ownerOf(uint256)": {
                "details": "See {IERC721-ownerOf}."
            },
            "paused()": {
                "details": "Returns true if the contract is paused, and false otherwise."
            },
            "renounceOwnership()": {
                "details": "Leaves the contract without owner. It will not be possible to call `onlyOwner` functions anymore. Can only be called by the current owner. NOTE: Renouncing ownership will leave the contract without an owner, thereby removing any functionality that is only available to the owner."
            },
            "safeTransferFrom(address,address,uint256)": {
                "details": "See {IERC721-safeTransferFrom}."
            },
            "safeTransferFrom(address,address,uint256,bytes)": {
                "details": "See {IERC721-safeTransferFrom}."
            },
            "setApprovalForAll(address,bool)": {
                "details": "See {IERC721-setApprovalForAll}."
            },
            "supportsInterface(bytes4)": {
                "details": "See {IERC165-supportsInterface}."
            },
            "symbol()": {
                "details": "See {IERC721Metadata-symbol}."
            },
            "tokenURI(uint256)": {
                "details": "Just overrides the superclass' function. Fixes inheritance source: https://forum.openzeppelin.com/t/how-do-inherit-from-erc721-erc721enumerable-and-erc721uristorage-in-v4-of-openzeppelin-contracts/6656/4"
            },
            "transferFrom(address,address,uint256)": {
                "details": "See {IERC721-transferFrom}."
            },
            "transferOwnership(address)": {
                "details": "Transfers ownership of the contract to a new account (`newOwner`). Can only be called by the current owner."
            }
        },
        "version": 1
    },
    "userdoc": {
        "kind": "user",
        "methods": {
            "constructor": {
                "notice": "XDVNFT Data Token"
            }
        },
        "version": 1
    }
}