{
  "_format": "hh-sol-artifact-1",
  "contractName": "KLIP",
  "sourceName": "contracts/KLIP.sol",
  "abi": [
    {
      "inputs": [
        {
          "internalType": "address",
          "name": "tokenERC20",
          "type": "address"
        },
        {
          "internalType": "address",
          "name": "newPaymentAddress",
          "type": "address"
        }
      ],
      "stateMutability": "nonpayable",
      "type": "constructor"
    },
    {
      "anonymous": false,
      "inputs": [
        {
          "indexed": true,
          "internalType": "address",
          "name": "owner",
          "type": "address"
        },
        {
          "indexed": true,
          "internalType": "address",
          "name": "approved",
          "type": "address"
        },
        {
          "indexed": true,
          "internalType": "uint256",
          "name": "tokenId",
          "type": "uint256"
        }
      ],
      "name": "Approval",
      "type": "event"
    },
    {
      "anonymous": false,
      "inputs": [
        {
          "indexed": true,
          "internalType": "address",
          "name": "owner",
          "type": "address"
        },
        {
          "indexed": true,
          "internalType": "address",
          "name": "operator",
          "type": "address"
        },
        {
          "indexed": false,
          "internalType": "bool",
          "name": "approved",
          "type": "bool"
        }
      ],
      "name": "ApprovalForAll",
      "type": "event"
    },
    {
      "anonymous": false,
      "inputs": [
        {
          "indexed": true,
          "internalType": "address",
          "name": "user",
          "type": "address"
        },
        {
          "indexed": true,
          "internalType": "string",
          "name": "userDid",
          "type": "string"
        },
        {
          "indexed": false,
          "internalType": "string",
          "name": "documentURI",
          "type": "string"
        },
        {
          "indexed": false,
          "internalType": "uint256",
          "name": "id",
          "type": "uint256"
        }
      ],
      "name": "DocumentAnchored",
      "type": "event"
    },
    {
      "anonymous": false,
      "inputs": [
        {
          "indexed": true,
          "internalType": "address",
          "name": "minter",
          "type": "address"
        },
        {
          "indexed": false,
          "internalType": "string",
          "name": "name",
          "type": "string"
        }
      ],
      "name": "MinterRegistered",
      "type": "event"
    },
    {
      "anonymous": false,
      "inputs": [
        {
          "indexed": true,
          "internalType": "address",
          "name": "previousOwner",
          "type": "address"
        },
        {
          "indexed": true,
          "internalType": "address",
          "name": "newOwner",
          "type": "address"
        }
      ],
      "name": "OwnershipTransferred",
      "type": "event"
    },
    {
      "anonymous": false,
      "inputs": [
        {
          "indexed": false,
          "internalType": "address",
          "name": "account",
          "type": "address"
        }
      ],
      "name": "Paused",
      "type": "event"
    },
    {
      "anonymous": false,
      "inputs": [
        {
          "indexed": true,
          "internalType": "uint256",
          "name": "tokenId",
          "type": "uint256"
        },
        {
          "indexed": true,
          "internalType": "address",
          "name": "from",
          "type": "address"
        },
        {
          "indexed": true,
          "internalType": "address",
          "name": "paymentAddress",
          "type": "address"
        },
        {
          "indexed": false,
          "internalType": "uint256",
          "name": "paidToContract",
          "type": "uint256"
        },
        {
          "indexed": false,
          "internalType": "uint256",
          "name": "paidToPaymentAddress",
          "type": "uint256"
        }
      ],
      "name": "ServiceFeePaid",
      "type": "event"
    },
    {
      "anonymous": false,
      "inputs": [
        {
          "indexed": true,
          "internalType": "address",
          "name": "from",
          "type": "address"
        },
        {
          "indexed": true,
          "internalType": "address",
          "name": "to",
          "type": "address"
        },
        {
          "indexed": true,
          "internalType": "uint256",
          "name": "tokenId",
          "type": "uint256"
        }
      ],
      "name": "Transfer",
      "type": "event"
    },
    {
      "anonymous": false,
      "inputs": [
        {
          "indexed": false,
          "internalType": "address",
          "name": "account",
          "type": "address"
        }
      ],
      "name": "Unpaused",
      "type": "event"
    },
    {
      "anonymous": false,
      "inputs": [
        {
          "indexed": true,
          "internalType": "address",
          "name": "paymentAddress",
          "type": "address"
        },
        {
          "indexed": false,
          "internalType": "uint256",
          "name": "amount",
          "type": "uint256"
        }
      ],
      "name": "Withdrawn",
      "type": "event"
    },
    {
      "inputs": [
        {
          "internalType": "address",
          "name": "to",
          "type": "address"
        },
        {
          "internalType": "uint256",
          "name": "tokenId",
          "type": "uint256"
        }
      ],
      "name": "approve",
      "outputs": [],
      "stateMutability": "nonpayable",
      "type": "function"
    },
    {
      "inputs": [
        {
          "internalType": "address",
          "name": "owner",
          "type": "address"
        }
      ],
      "name": "balanceOf",
      "outputs": [
        {
          "internalType": "uint256",
          "name": "",
          "type": "uint256"
        }
      ],
      "stateMutability": "view",
      "type": "function"
    },
    {
      "inputs": [
        {
          "internalType": "uint256",
          "name": "tokenId",
          "type": "uint256"
        }
      ],
      "name": "burn",
      "outputs": [],
      "stateMutability": "nonpayable",
      "type": "function"
    },
    {
      "inputs": [
        {
          "internalType": "uint256",
          "name": "",
          "type": "uint256"
        }
      ],
      "name": "fileUri",
      "outputs": [
        {
          "internalType": "string",
          "name": "",
          "type": "string"
        }
      ],
      "stateMutability": "view",
      "type": "function"
    },
    {
      "inputs": [
        {
          "internalType": "uint256",
          "name": "tokenId",
          "type": "uint256"
        }
      ],
      "name": "getApproved",
      "outputs": [
        {
          "internalType": "address",
          "name": "",
          "type": "address"
        }
      ],
      "stateMutability": "view",
      "type": "function"
    },
    {
      "inputs": [
        {
          "internalType": "address",
          "name": "owner",
          "type": "address"
        },
        {
          "internalType": "address",
          "name": "operator",
          "type": "address"
        }
      ],
      "name": "isApprovedForAll",
      "outputs": [
        {
          "internalType": "bool",
          "name": "",
          "type": "bool"
        }
      ],
      "stateMutability": "view",
      "type": "function"
    },
    {
      "inputs": [
        {
          "internalType": "bytes32",
          "name": "hash",
          "type": "bytes32"
        },
        {
          "internalType": "bytes",
          "name": "signature",
          "type": "bytes"
        }
      ],
      "name": "isValidSignature",
      "outputs": [
        {
          "internalType": "bytes4",
          "name": "magicValue",
          "type": "bytes4"
        }
      ],
      "stateMutability": "view",
      "type": "function"
    },
    {
      "inputs": [
        {
          "internalType": "uint256",
          "name": "requestId",
          "type": "uint256"
        },
        {
          "internalType": "address",
          "name": "user",
          "type": "address"
        },
        {
          "internalType": "address",
          "name": "dataProvider",
          "type": "address"
        },
        {
          "internalType": "string",
          "name": "uri",
          "type": "string"
        }
      ],
      "name": "mint",
      "outputs": [
        {
          "internalType": "uint256",
          "name": "tokenId",
          "type": "uint256"
        }
      ],
      "stateMutability": "nonpayable",
      "type": "function"
    },
    {
      "inputs": [
        {
          "internalType": "address",
          "name": "",
          "type": "address"
        }
      ],
      "name": "minterCounter",
      "outputs": [
        {
          "internalType": "uint256",
          "name": "",
          "type": "uint256"
        }
      ],
      "stateMutability": "view",
      "type": "function"
    },
    {
      "inputs": [
        {
          "internalType": "address",
          "name": "",
          "type": "address"
        }
      ],
      "name": "minterDocumentRequestCounter",
      "outputs": [
        {
          "internalType": "uint256",
          "name": "",
          "type": "uint256"
        }
      ],
      "stateMutability": "view",
      "type": "function"
    },
    {
      "inputs": [
        {
          "internalType": "address",
          "name": "",
          "type": "address"
        },
        {
          "internalType": "uint256",
          "name": "",
          "type": "uint256"
        }
      ],
      "name": "minterDocumentRequests",
      "outputs": [
        {
          "internalType": "address",
          "name": "user",
          "type": "address"
        },
        {
          "internalType": "string",
          "name": "userDid",
          "type": "string"
        },
        {
          "internalType": "address",
          "name": "toMinter",
          "type": "address"
        },
        {
          "internalType": "string",
          "name": "toMinterDid",
          "type": "string"
        },
        {
          "internalType": "string",
          "name": "documentURI",
          "type": "string"
        },
        {
          "internalType": "uint256",
          "name": "status",
          "type": "uint256"
        },
        {
          "internalType": "string",
          "name": "description",
          "type": "string"
        }
      ],
      "stateMutability": "view",
      "type": "function"
    },
    {
      "inputs": [],
      "name": "name",
      "outputs": [
        {
          "internalType": "string",
          "name": "",
          "type": "string"
        }
      ],
      "stateMutability": "view",
      "type": "function"
    },
    {
      "inputs": [],
      "name": "owner",
      "outputs": [
        {
          "internalType": "address",
          "name": "",
          "type": "address"
        }
      ],
      "stateMutability": "view",
      "type": "function"
    },
    {
      "inputs": [
        {
          "internalType": "uint256",
          "name": "tokenId",
          "type": "uint256"
        }
      ],
      "name": "ownerOf",
      "outputs": [
        {
          "internalType": "address",
          "name": "",
          "type": "address"
        }
      ],
      "stateMutability": "view",
      "type": "function"
    },
    {
      "inputs": [],
      "name": "pause",
      "outputs": [],
      "stateMutability": "nonpayable",
      "type": "function"
    },
    {
      "inputs": [],
      "name": "paused",
      "outputs": [
        {
          "internalType": "bool",
          "name": "",
          "type": "bool"
        }
      ],
      "stateMutability": "view",
      "type": "function"
    },
    {
      "inputs": [],
      "name": "paymentAddress",
      "outputs": [
        {
          "internalType": "address",
          "name": "",
          "type": "address"
        }
      ],
      "stateMutability": "view",
      "type": "function"
    },
    {
      "inputs": [
        {
          "internalType": "string",
          "name": "name",
          "type": "string"
        },
        {
          "internalType": "address",
          "name": "paymentAddress",
          "type": "address"
        },
        {
          "internalType": "bool",
          "name": "userHasKyc",
          "type": "bool"
        },
        {
          "internalType": "uint256",
          "name": "feeStructure",
          "type": "uint256"
        }
      ],
      "name": "registerMinter",
      "outputs": [
        {
          "internalType": "uint256",
          "name": "",
          "type": "uint256"
        }
      ],
      "stateMutability": "nonpayable",
      "type": "function"
    },
    {
      "inputs": [],
      "name": "renounceOwnership",
      "outputs": [],
      "stateMutability": "nonpayable",
      "type": "function"
    },
    {
      "inputs": [
        {
          "internalType": "string",
          "name": "minterDid",
          "type": "string"
        },
        {
          "internalType": "address",
          "name": "minterAddress",
          "type": "address"
        },
        {
          "internalType": "string",
          "name": "userDid",
          "type": "string"
        },
        {
          "internalType": "string",
          "name": "documentURI",
          "type": "string"
        },
        {
          "internalType": "string",
          "name": "description",
          "type": "string"
        }
      ],
      "name": "requestDataProviderService",
      "outputs": [
        {
          "internalType": "uint256",
          "name": "",
          "type": "uint256"
        }
      ],
      "stateMutability": "nonpayable",
      "type": "function"
    },
    {
      "inputs": [
        {
          "internalType": "address",
          "name": "from",
          "type": "address"
        },
        {
          "internalType": "address",
          "name": "to",
          "type": "address"
        },
        {
          "internalType": "uint256",
          "name": "tokenId",
          "type": "uint256"
        }
      ],
      "name": "safeTransferFrom",
      "outputs": [],
      "stateMutability": "nonpayable",
      "type": "function"
    },
    {
      "inputs": [
        {
          "internalType": "address",
          "name": "from",
          "type": "address"
        },
        {
          "internalType": "address",
          "name": "to",
          "type": "address"
        },
        {
          "internalType": "uint256",
          "name": "tokenId",
          "type": "uint256"
        },
        {
          "internalType": "bytes",
          "name": "_data",
          "type": "bytes"
        }
      ],
      "name": "safeTransferFrom",
      "outputs": [],
      "stateMutability": "nonpayable",
      "type": "function"
    },
    {
      "inputs": [],
      "name": "serviceFeeForContract",
      "outputs": [
        {
          "internalType": "uint256",
          "name": "",
          "type": "uint256"
        }
      ],
      "stateMutability": "view",
      "type": "function"
    },
    {
      "inputs": [],
      "name": "serviceFeeForPaymentAddress",
      "outputs": [
        {
          "internalType": "uint256",
          "name": "",
          "type": "uint256"
        }
      ],
      "stateMutability": "view",
      "type": "function"
    },
    {
      "inputs": [
        {
          "internalType": "address",
          "name": "operator",
          "type": "address"
        },
        {
          "internalType": "bool",
          "name": "approved",
          "type": "bool"
        }
      ],
      "name": "setApprovalForAll",
      "outputs": [],
      "stateMutability": "nonpayable",
      "type": "function"
    },
    {
      "inputs": [
        {
          "internalType": "address",
          "name": "newAddress",
          "type": "address"
        }
      ],
      "name": "setPaymentAddress",
      "outputs": [],
      "stateMutability": "nonpayable",
      "type": "function"
    },
    {
      "inputs": [
        {
          "internalType": "uint256",
          "name": "_fee",
          "type": "uint256"
        }
      ],
      "name": "setServiceFee",
      "outputs": [],
      "stateMutability": "nonpayable",
      "type": "function"
    },
    {
      "inputs": [
        {
          "internalType": "uint256",
          "name": "_fee",
          "type": "uint256"
        }
      ],
      "name": "setServiceRoyalty",
      "outputs": [],
      "stateMutability": "nonpayable",
      "type": "function"
    },
    {
      "inputs": [],
      "name": "stablecoin",
      "outputs": [
        {
          "internalType": "contract IERC20",
          "name": "",
          "type": "address"
        }
      ],
      "stateMutability": "view",
      "type": "function"
    },
    {
      "inputs": [
        {
          "internalType": "bytes4",
          "name": "interfaceId",
          "type": "bytes4"
        }
      ],
      "name": "supportsInterface",
      "outputs": [
        {
          "internalType": "bool",
          "name": "",
          "type": "bool"
        }
      ],
      "stateMutability": "view",
      "type": "function"
    },
    {
      "inputs": [],
      "name": "symbol",
      "outputs": [
        {
          "internalType": "string",
          "name": "",
          "type": "string"
        }
      ],
      "stateMutability": "view",
      "type": "function"
    },
    {
      "inputs": [
        {
          "internalType": "uint256",
          "name": "index",
          "type": "uint256"
        }
      ],
      "name": "tokenByIndex",
      "outputs": [
        {
          "internalType": "uint256",
          "name": "",
          "type": "uint256"
        }
      ],
      "stateMutability": "view",
      "type": "function"
    },
    {
      "inputs": [
        {
          "internalType": "address",
          "name": "owner",
          "type": "address"
        },
        {
          "internalType": "uint256",
          "name": "index",
          "type": "uint256"
        }
      ],
      "name": "tokenOfOwnerByIndex",
      "outputs": [
        {
          "internalType": "uint256",
          "name": "",
          "type": "uint256"
        }
      ],
      "stateMutability": "view",
      "type": "function"
    },
    {
      "inputs": [
        {
          "internalType": "uint256",
          "name": "tokenId",
          "type": "uint256"
        }
      ],
      "name": "tokenURI",
      "outputs": [
        {
          "internalType": "string",
          "name": "",
          "type": "string"
        }
      ],
      "stateMutability": "view",
      "type": "function"
    },
    {
      "inputs": [],
      "name": "totalSupply",
      "outputs": [
        {
          "internalType": "uint256",
          "name": "",
          "type": "uint256"
        }
      ],
      "stateMutability": "view",
      "type": "function"
    },
    {
      "inputs": [
        {
          "internalType": "address",
          "name": "from",
          "type": "address"
        },
        {
          "internalType": "address",
          "name": "to",
          "type": "address"
        },
        {
          "internalType": "uint256",
          "name": "tokenId",
          "type": "uint256"
        }
      ],
      "name": "transferFrom",
      "outputs": [],
      "stateMutability": "nonpayable",
      "type": "function"
    },
    {
      "inputs": [
        {
          "internalType": "address",
          "name": "newOwner",
          "type": "address"
        }
      ],
      "name": "transferOwnership",
      "outputs": [],
      "stateMutability": "nonpayable",
      "type": "function"
    },
    {
      "inputs": [],
      "name": "unpause",
      "outputs": [],
      "stateMutability": "nonpayable",
      "type": "function"
    },
    {
      "inputs": [
        {
          "internalType": "address payable",
          "name": "payee",
          "type": "address"
        }
      ],
      "name": "withdrawBalance",
      "outputs": [],
      "stateMutability": "nonpayable",
      "type": "function"
    }
  ],
  "bytecode": "0x6080604052600060125560006013553480156200001b57600080fd5b506040516200620f3803806200620f833981810160405281019062000041919062000305565b6040518060400160405280600a81526020017f4b4c495020546f6b656e000000000000000000000000000000000000000000008152506040518060400160405280600481526020017f4b4c4950000000000000000000000000000000000000000000000000000000008152506000620000bf6200023660201b60201c565b9050806000806101000a81548173ffffffffffffffffffffffffffffffffffffffff021916908373ffffffffffffffffffffffffffffffffffffffff1602179055508073ffffffffffffffffffffffffffffffffffffffff16600073ffffffffffffffffffffffffffffffffffffffff167f8be0079c531659141344cd1fd0a4f28419497f9722a3daafe3b4186f6b6457e060405160405180910390a3508160059080519060200190620001759291906200023e565b5080600690805190602001906200018e9291906200023e565b5050506000600b60006101000a81548160ff02191690831515021790555080601460006101000a81548173ffffffffffffffffffffffffffffffffffffffff021916908373ffffffffffffffffffffffffffffffffffffffff16021790555081601160006101000a81548173ffffffffffffffffffffffffffffffffffffffff021916908373ffffffffffffffffffffffffffffffffffffffff1602179055505050620003f9565b600033905090565b8280546200024c906200037a565b90600052602060002090601f016020900481019282620002705760008555620002bc565b82601f106200028b57805160ff1916838001178555620002bc565b82800160010185558215620002bc579182015b82811115620002bb5782518255916020019190600101906200029e565b5b509050620002cb9190620002cf565b5090565b5b80821115620002ea576000816000905550600101620002d0565b5090565b600081519050620002ff81620003df565b92915050565b600080604083850312156200031957600080fd5b60006200032985828601620002ee565b92505060206200033c85828601620002ee565b9150509250929050565b600062000353826200035a565b9050919050565b600073ffffffffffffffffffffffffffffffffffffffff82169050919050565b600060028204905060018216806200039357607f821691505b60208210811415620003aa57620003a9620003b0565b5b50919050565b7f4e487b7100000000000000000000000000000000000000000000000000000000600052602260045260246000fd5b620003ea8162000346565b8114620003f657600080fd5b50565b615e0680620004096000396000f3fe608060405234801561001057600080fd5b506004361061023d5760003560e01c80636352211e1161013b5780639acd083e116100b8578063e53ae1021161007c578063e53ae102146106f0578063e985e9c51461070e578063e9cbd8221461073e578063f2fde38b1461075c578063f83d360d146107785761023d565b80639acd083e1461063a578063a22cb4651461066a578063b88d4fde14610686578063c014b9da146106a2578063c87b56dd146106c05761023d565b8063756af45f116100ff578063756af45f146105a8578063761901bb146105c45780638456cb59146105f45780638da5cb5b146105fe57806395d89b411461061c5761023d565b80636352211e146104d857806366563b4f146105085780636efaa6991461053857806370a082311461056e578063715018a61461059e5761023d565b80633f4ba83a116101c957806354d7a2b51161018d57806354d7a2b5146104485780635c975abb146104645780635cdf76f8146104825780635e1e10041461049e578063633423be146104ba5761023d565b80633f4ba83a146103a657806342842e0e146103b057806342966c68146103cc578063435da82a146103e85780634f6ccce7146104185761023d565b80631626ba7e116102105780631626ba7e146102dc57806318160ddd1461030c57806323b872dd1461032a5780632aa222c8146103465780632f745c59146103765761023d565b806301ffc9a71461024257806306fdde0314610272578063081812fc14610290578063095ea7b3146102c0575b600080fd5b61025c6004803603810190610257919061438b565b6107a8565b6040516102699190614c9b565b60405180910390f35b61027a6107ba565b6040516102879190614d31565b60405180910390f35b6102aa60048036038101906102a5919061452f565b61084c565b6040516102b79190614b49565b60405180910390f35b6102da60048036038101906102d591906142d2565b6108d1565b005b6102f660048036038101906102f19190614337565b6109e9565b6040516103039190614cfb565b60405180910390f35b610314610a4e565b6040516103219190615123565b60405180910390f35b610344600480360381019061033f91906141cc565b610a5b565b005b610360600480360381019061035b919061413e565b610abb565b60405161036d9190615123565b60405180910390f35b610390600480360381019061038b91906142d2565b610ad3565b60405161039d9190615123565b60405180910390f35b6103ae610b78565b005b6103ca60048036038101906103c591906141cc565b610bfe565b005b6103e660048036038101906103e1919061452f565b610c1e565b005b61040260048036038101906103fd919061452f565b610c7a565b60405161040f9190614d31565b60405180910390f35b610432600480360381019061042d919061452f565b610d1a565b60405161043f9190615123565b60405180910390f35b610462600480360381019061045d919061452f565b610db1565b005b61046c610e37565b6040516104799190614c9b565b60405180910390f35b61049c6004803603810190610497919061452f565b610e4e565b005b6104b860048036038101906104b3919061413e565b610ed4565b005b6104c2610f94565b6040516104cf9190614b49565b60405180910390f35b6104f260048036038101906104ed919061452f565b610fba565b6040516104ff9190614b49565b60405180910390f35b610522600480360381019061051d91906143dd565b61106c565b60405161052f9190615123565b60405180910390f35b610552600480360381019061054d91906142d2565b6112f0565b6040516105659796959493929190614c10565b60405180910390f35b6105886004803603810190610583919061413e565b61159f565b6040516105959190615123565b60405180910390f35b6105a6611657565b005b6105c260048036038101906105bd9190614167565b611791565b005b6105de60048036038101906105d9919061413e565b6119fc565b6040516105eb9190615123565b60405180910390f35b6105fc611a14565b005b610606611a9a565b6040516106139190614b49565b60405180910390f35b610624611ac3565b6040516106319190614d31565b60405180910390f35b610654600480360381019061064f9190614581565b611b55565b6040516106619190615123565b60405180910390f35b610684600480360381019061067f9190614296565b611da2565b005b6106a0600480360381019061069b919061421b565b611f23565b005b6106aa611f85565b6040516106b79190615123565b60405180910390f35b6106da60048036038101906106d5919061452f565b611f8b565b6040516106e79190614d31565b60405180910390f35b6106f8612032565b6040516107059190615123565b60405180910390f35b61072860048036038101906107239190614190565b612038565b6040516107359190614c9b565b60405180910390f35b6107466120cc565b6040516107539190614d16565b60405180910390f35b6107766004803603810190610771919061413e565b6120f2565b005b610792600480360381019061078d9190614458565b61229b565b60405161079f9190615123565b60405180910390f35b60006107b38261259f565b9050919050565b6060600580546107c990615425565b80601f01602080910402602001604051908101604052809291908181526020018280546107f590615425565b80156108425780601f1061081757610100808354040283529160200191610842565b820191906000526020600020905b81548152906001019060200180831161082557829003601f168201915b5050505050905090565b600061085782612619565b610896576040517f08c379a000000000000000000000000000000000000000000000000000000000815260040161088d90615023565b60405180910390fd5b6009600083815260200190815260200160002060009054906101000a900473ffffffffffffffffffffffffffffffffffffffff169050919050565b60006108dc82610fba565b90508073ffffffffffffffffffffffffffffffffffffffff168373ffffffffffffffffffffffffffffffffffffffff16141561094d576040517f08c379a0000000000000000000000000000000000000000000000000000000008152600401610944906150a3565b60405180910390fd5b8073ffffffffffffffffffffffffffffffffffffffff1661096c612685565b73ffffffffffffffffffffffffffffffffffffffff16148061099b575061099a81610995612685565b612038565b5b6109da576040517f08c379a00000000000000000000000000000000000000000000000000000000081526004016109d190614f63565b60405180910390fd5b6109e4838361268d565b505050565b6000806109f68484612746565b9050610a00611a9a565b73ffffffffffffffffffffffffffffffffffffffff168173ffffffffffffffffffffffffffffffffffffffff1614610a3c57600060e01b610a45565b631626ba7e60e01b5b91505092915050565b6000600e80549050905090565b610a6c610a66612685565b82612810565b610aab576040517f08c379a0000000000000000000000000000000000000000000000000000000008152600401610aa2906150c3565b60405180910390fd5b610ab68383836128ee565b505050565b60026020528060005260406000206000915090505481565b6000610ade8361159f565b8210610b1f576040517f08c379a0000000000000000000000000000000000000000000000000000000008152600401610b1690614e23565b60405180910390fd5b600c60008473ffffffffffffffffffffffffffffffffffffffff1673ffffffffffffffffffffffffffffffffffffffff168152602001908152602001600020600083815260200190815260200160002054905092915050565b610b80612685565b73ffffffffffffffffffffffffffffffffffffffff16610b9e611a9a565b73ffffffffffffffffffffffffffffffffffffffff1614610bf4576040517f08c379a0000000000000000000000000000000000000000000000000000000008152600401610beb90615043565b60405180910390fd5b610bfc612b4a565b565b610c1983838360405180602001604052806000815250611f23565b505050565b610c2f610c29612685565b82612810565b610c6e576040517f08c379a0000000000000000000000000000000000000000000000000000000008152600401610c6590615103565b60405180910390fd5b610c7781612bec565b50565b60156020528060005260406000206000915090508054610c9990615425565b80601f0160208091040260200160405190810160405280929190818152602001828054610cc590615425565b8015610d125780601f10610ce757610100808354040283529160200191610d12565b820191906000526020600020905b815481529060010190602001808311610cf557829003601f168201915b505050505081565b6000610d24610a4e565b8210610d65576040517f08c379a0000000000000000000000000000000000000000000000000000000008152600401610d5c906150e3565b60405180910390fd5b600e8281548110610d9f577f4e487b7100000000000000000000000000000000000000000000000000000000600052603260045260246000fd5b90600052602060002001549050919050565b610db9612685565b73ffffffffffffffffffffffffffffffffffffffff16610dd7611a9a565b73ffffffffffffffffffffffffffffffffffffffff1614610e2d576040517f08c379a0000000000000000000000000000000000000000000000000000000008152600401610e2490615043565b60405180910390fd5b8060128190555050565b6000600b60009054906101000a900460ff16905090565b610e56612685565b73ffffffffffffffffffffffffffffffffffffffff16610e74611a9a565b73ffffffffffffffffffffffffffffffffffffffff1614610eca576040517f08c379a0000000000000000000000000000000000000000000000000000000008152600401610ec190615043565b60405180910390fd5b8060138190555050565b610edc612685565b73ffffffffffffffffffffffffffffffffffffffff16610efa611a9a565b73ffffffffffffffffffffffffffffffffffffffff1614610f50576040517f08c379a0000000000000000000000000000000000000000000000000000000008152600401610f4790615043565b60405180910390fd5b80601460006101000a81548173ffffffffffffffffffffffffffffffffffffffff021916908373ffffffffffffffffffffffffffffffffffffffff16021790555050565b601460009054906101000a900473ffffffffffffffffffffffffffffffffffffffff1681565b6000806007600084815260200190815260200160002060009054906101000a900473ffffffffffffffffffffffffffffffffffffffff169050600073ffffffffffffffffffffffffffffffffffffffff168173ffffffffffffffffffffffffffffffffffffffff161415611063576040517f08c379a000000000000000000000000000000000000000000000000000000000815260040161105a90614fc3565b60405180910390fd5b80915050919050565b6000600160003373ffffffffffffffffffffffffffffffffffffffff1673ffffffffffffffffffffffffffffffffffffffff16815260200190815260200160002060008154809291906110be90615488565b91905055506040518060c001604052808681526020018573ffffffffffffffffffffffffffffffffffffffff16815260200184151581526020018381526020013073ffffffffffffffffffffffffffffffffffffffff16815260200160011515815250600460003373ffffffffffffffffffffffffffffffffffffffff1673ffffffffffffffffffffffffffffffffffffffff168152602001908152602001600020600082015181600001908051906020019061117c929190613f0e565b5060208201518160010160006101000a81548173ffffffffffffffffffffffffffffffffffffffff021916908373ffffffffffffffffffffffffffffffffffffffff16021790555060408201518160010160146101000a81548160ff0219169083151502179055506060820151816002015560808201518160030160006101000a81548173ffffffffffffffffffffffffffffffffffffffff021916908373ffffffffffffffffffffffffffffffffffffffff16021790555060a08201518160030160146101000a81548160ff0219169083151502179055509050503373ffffffffffffffffffffffffffffffffffffffff167fdd49a7e572b5c7638971bc6a10724835256bbb03ca4187ce5fa77a2bf3716a768660405161129e9190614d31565b60405180910390a2600160003373ffffffffffffffffffffffffffffffffffffffff1673ffffffffffffffffffffffffffffffffffffffff168152602001908152602001600020549050949350505050565b6003602052816000526040600020602052806000526040600020600091509150508060000160009054906101000a900473ffffffffffffffffffffffffffffffffffffffff169080600101805461134690615425565b80601f016020809104026020016040519081016040528092919081815260200182805461137290615425565b80156113bf5780601f10611394576101008083540402835291602001916113bf565b820191906000526020600020905b8154815290600101906020018083116113a257829003601f168201915b5050505050908060020160009054906101000a900473ffffffffffffffffffffffffffffffffffffffff16908060030180546113fa90615425565b80601f016020809104026020016040519081016040528092919081815260200182805461142690615425565b80156114735780601f1061144857610100808354040283529160200191611473565b820191906000526020600020905b81548152906001019060200180831161145657829003601f168201915b50505050509080600401805461148890615425565b80601f01602080910402602001604051908101604052809291908181526020018280546114b490615425565b80156115015780601f106114d657610100808354040283529160200191611501565b820191906000526020600020905b8154815290600101906020018083116114e457829003601f168201915b50505050509080600501549080600601805461151c90615425565b80601f016020809104026020016040519081016040528092919081815260200182805461154890615425565b80156115955780601f1061156a57610100808354040283529160200191611595565b820191906000526020600020905b81548152906001019060200180831161157857829003601f168201915b5050505050905087565b60008073ffffffffffffffffffffffffffffffffffffffff168273ffffffffffffffffffffffffffffffffffffffff161415611610576040517f08c379a000000000000000000000000000000000000000000000000000000000815260040161160790614fa3565b60405180910390fd5b600860008373ffffffffffffffffffffffffffffffffffffffff1673ffffffffffffffffffffffffffffffffffffffff168152602001908152602001600020549050919050565b61165f612685565b73ffffffffffffffffffffffffffffffffffffffff1661167d611a9a565b73ffffffffffffffffffffffffffffffffffffffff16146116d3576040517f08c379a00000000000000000000000000000000000000000000000000000000081526004016116ca90615043565b60405180910390fd5b600073ffffffffffffffffffffffffffffffffffffffff1660008054906101000a900473ffffffffffffffffffffffffffffffffffffffff1673ffffffffffffffffffffffffffffffffffffffff167f8be0079c531659141344cd1fd0a4f28419497f9722a3daafe3b4186f6b6457e060405160405180910390a360008060006101000a81548173ffffffffffffffffffffffffffffffffffffffff021916908373ffffffffffffffffffffffffffffffffffffffff160217905550565b611799612685565b73ffffffffffffffffffffffffffffffffffffffff166117b7611a9a565b73ffffffffffffffffffffffffffffffffffffffff161461180d576040517f08c379a000000000000000000000000000000000000000000000000000000000815260040161180490615043565b60405180910390fd5b6000601160009054906101000a900473ffffffffffffffffffffffffffffffffffffffff1673ffffffffffffffffffffffffffffffffffffffff166370a08231306040518263ffffffff1660e01b815260040161186a9190614b49565b60206040518083038186803b15801561188257600080fd5b505afa158015611896573d6000803e3d6000fd5b505050506040513d601f19601f820116820180604052508101906118ba9190614558565b9050601160009054906101000a900473ffffffffffffffffffffffffffffffffffffffff1673ffffffffffffffffffffffffffffffffffffffff1663a9059cbb83836040518363ffffffff1660e01b8152600401611919929190614b64565b602060405180830381600087803b15801561193357600080fd5b505af1158015611947573d6000803e3d6000fd5b505050506040513d601f19601f8201168201806040525081019061196b919061430e565b6119aa576040517f08c379a00000000000000000000000000000000000000000000000000000000081526004016119a190614f83565b60405180910390fd5b8173ffffffffffffffffffffffffffffffffffffffff167f7084f5476618d8e60b11ef0d7d3f06914655adb8793e28ff7f018d4c76d505d5826040516119f09190615123565b60405180910390a25050565b60016020528060005260406000206000915090505481565b611a1c612685565b73ffffffffffffffffffffffffffffffffffffffff16611a3a611a9a565b73ffffffffffffffffffffffffffffffffffffffff1614611a90576040517f08c379a0000000000000000000000000000000000000000000000000000000008152600401611a8790615043565b60405180910390fd5b611a98612cfd565b565b60008060009054906101000a900473ffffffffffffffffffffffffffffffffffffffff16905090565b606060068054611ad290615425565b80601f0160208091040260200160405190810160405280929190818152602001828054611afe90615425565b8015611b4b5780601f10611b2057610100808354040283529160200191611b4b565b820191906000526020600020905b815481529060010190602001808311611b2e57829003601f168201915b5050505050905090565b6000806002811115611b90577f4e487b7100000000000000000000000000000000000000000000000000000000600052602160045260246000fd5b600360008573ffffffffffffffffffffffffffffffffffffffff1673ffffffffffffffffffffffffffffffffffffffff16815260200190815260200160002060008781526020019081526020016000206005015414611c24576040517f08c379a0000000000000000000000000000000000000000000000000000000008152600401611c1b90614ee3565b60405180910390fd5b611c2e6010612da0565b6000611c3a6010612db6565b9050611c468582612dc4565b82601560008381526020019081526020016000209080519060200190611c6d929190613f0e565b5060016002811115611ca8577f4e487b7100000000000000000000000000000000000000000000000000000000600052602160045260246000fd5b600360008673ffffffffffffffffffffffffffffffffffffffff1673ffffffffffffffffffffffffffffffffffffffff168152602001908152602001600020600088815260200190815260200160002060050181905550600160008573ffffffffffffffffffffffffffffffffffffffff1673ffffffffffffffffffffffffffffffffffffffff1681526020019081526020016000206000815480929190611d4f90615488565b91905055600160008673ffffffffffffffffffffffffffffffffffffffff1673ffffffffffffffffffffffffffffffffffffffff1681526020019081526020016000208190555080915050949350505050565b611daa612685565b73ffffffffffffffffffffffffffffffffffffffff168273ffffffffffffffffffffffffffffffffffffffff161415611e18576040517f08c379a0000000000000000000000000000000000000000000000000000000008152600401611e0f90614ec3565b60405180910390fd5b80600a6000611e25612685565b73ffffffffffffffffffffffffffffffffffffffff1673ffffffffffffffffffffffffffffffffffffffff16815260200190815260200160002060008473ffffffffffffffffffffffffffffffffffffffff1673ffffffffffffffffffffffffffffffffffffffff16815260200190815260200160002060006101000a81548160ff0219169083151502179055508173ffffffffffffffffffffffffffffffffffffffff16611ed2612685565b73ffffffffffffffffffffffffffffffffffffffff167f17307eab39ab6107e8899845ad3d59bd9653f200f220920489ca2b5937696c3183604051611f179190614c9b565b60405180910390a35050565b611f34611f2e612685565b83612810565b611f73576040517f08c379a0000000000000000000000000000000000000000000000000000000008152600401611f6a906150c3565b60405180910390fd5b611f7f84848484612de2565b50505050565b60125481565b6060611f9682612619565b611fd5576040517f08c379a0000000000000000000000000000000000000000000000000000000008152600401611fcc90615083565b60405180910390fd5b6000611fdf612e3e565b90506000815111611fff576040518060200160405280600081525061202a565b8061200984612e55565b60405160200161201a929190614b25565b6040516020818303038152906040525b915050919050565b60135481565b6000600a60008473ffffffffffffffffffffffffffffffffffffffff1673ffffffffffffffffffffffffffffffffffffffff16815260200190815260200160002060008373ffffffffffffffffffffffffffffffffffffffff1673ffffffffffffffffffffffffffffffffffffffff16815260200190815260200160002060009054906101000a900460ff16905092915050565b601160009054906101000a900473ffffffffffffffffffffffffffffffffffffffff1681565b6120fa612685565b73ffffffffffffffffffffffffffffffffffffffff16612118611a9a565b73ffffffffffffffffffffffffffffffffffffffff161461216e576040517f08c379a000000000000000000000000000000000000000000000000000000000815260040161216590615043565b60405180910390fd5b600073ffffffffffffffffffffffffffffffffffffffff168173ffffffffffffffffffffffffffffffffffffffff1614156121de576040517f08c379a00000000000000000000000000000000000000000000000000000000081526004016121d590614e63565b60405180910390fd5b8073ffffffffffffffffffffffffffffffffffffffff1660008054906101000a900473ffffffffffffffffffffffffffffffffffffffff1673ffffffffffffffffffffffffffffffffffffffff167f8be0079c531659141344cd1fd0a4f28419497f9722a3daafe3b4186f6b6457e060405160405180910390a3806000806101000a81548173ffffffffffffffffffffffffffffffffffffffff021916908373ffffffffffffffffffffffffffffffffffffffff16021790555050565b600080600260008773ffffffffffffffffffffffffffffffffffffffff1673ffffffffffffffffffffffffffffffffffffffff1681526020019081526020016000205490506040518060e001604052803373ffffffffffffffffffffffffffffffffffffffff1681526020018681526020018773ffffffffffffffffffffffffffffffffffffffff1681526020018881526020018581526020016000600281111561236f577f4e487b7100000000000000000000000000000000000000000000000000000000600052602160045260246000fd5b815260200184815250600360008873ffffffffffffffffffffffffffffffffffffffff1673ffffffffffffffffffffffffffffffffffffffff168152602001908152602001600020600083815260200190815260200160002060008201518160000160006101000a81548173ffffffffffffffffffffffffffffffffffffffff021916908373ffffffffffffffffffffffffffffffffffffffff160217905550602082015181600101908051906020019061242b929190613f0e565b5060408201518160020160006101000a81548173ffffffffffffffffffffffffffffffffffffffff021916908373ffffffffffffffffffffffffffffffffffffffff160217905550606082015181600301908051906020019061248f929190613f0e565b5060808201518160040190805190602001906124ac929190613f0e565b5060a0820151816005015560c08201518160060190805190602001906124d3929190613f0e565b50905050600260008773ffffffffffffffffffffffffffffffffffffffff1673ffffffffffffffffffffffffffffffffffffffff168152602001908152602001600020600081548092919061252790615488565b91905055508460405161253a9190614b0e565b60405180910390203373ffffffffffffffffffffffffffffffffffffffff167f0a007e579f0793671747216eab1061026d102ff0f66e876d2edaa6277ad53e66868460405161258a929190614d53565b60405180910390a38091505095945050505050565b60007f780e9d63000000000000000000000000000000000000000000000000000000007bffffffffffffffffffffffffffffffffffffffffffffffffffffffff1916827bffffffffffffffffffffffffffffffffffffffffffffffffffffffff19161480612612575061261182613002565b5b9050919050565b60008073ffffffffffffffffffffffffffffffffffffffff166007600084815260200190815260200160002060009054906101000a900473ffffffffffffffffffffffffffffffffffffffff1673ffffffffffffffffffffffffffffffffffffffff1614159050919050565b600033905090565b816009600083815260200190815260200160002060006101000a81548173ffffffffffffffffffffffffffffffffffffffff021916908373ffffffffffffffffffffffffffffffffffffffff160217905550808273ffffffffffffffffffffffffffffffffffffffff1661270083610fba565b73ffffffffffffffffffffffffffffffffffffffff167f8c5be1e5ebec7d5bd14f71427d1e84f3dd0314c0f7b2291e5b200ac8c7c3b92560405160405180910390a45050565b600080600080604185511415612773576020850151925060408501519150606085015160001a90506127f9565b6040855114156127bd576040850151602086015193507f7fffffffffffffffffffffffffffffffffffffffffffffffffffffffffffffff81169250601b8160ff1c019150506127f8565b6040517f08c379a00000000000000000000000000000000000000000000000000000000081526004016127ef90614e03565b60405180910390fd5b5b612805868285856130e4565b935050505092915050565b600061281b82612619565b61285a576040517f08c379a000000000000000000000000000000000000000000000000000000000815260040161285190614f23565b60405180910390fd5b600061286583610fba565b90508073ffffffffffffffffffffffffffffffffffffffff168473ffffffffffffffffffffffffffffffffffffffff1614806128d457508373ffffffffffffffffffffffffffffffffffffffff166128bc8461084c565b73ffffffffffffffffffffffffffffffffffffffff16145b806128e557506128e48185612038565b5b91505092915050565b8273ffffffffffffffffffffffffffffffffffffffff1661290e82610fba565b73ffffffffffffffffffffffffffffffffffffffff1614612964576040517f08c379a000000000000000000000000000000000000000000000000000000000815260040161295b90615063565b60405180910390fd5b600073ffffffffffffffffffffffffffffffffffffffff168273ffffffffffffffffffffffffffffffffffffffff1614156129d4576040517f08c379a00000000000000000000000000000000000000000000000000000000081526004016129cb90614ea3565b60405180910390fd5b6129df83838361326f565b6129ea60008261268d565b6001600860008573ffffffffffffffffffffffffffffffffffffffff1673ffffffffffffffffffffffffffffffffffffffff1681526020019081526020016000206000828254612a3a91906152b8565b925050819055506001600860008473ffffffffffffffffffffffffffffffffffffffff1673ffffffffffffffffffffffffffffffffffffffff1681526020019081526020016000206000828254612a919190615231565b92505081905550816007600083815260200190815260200160002060006101000a81548173ffffffffffffffffffffffffffffffffffffffff021916908373ffffffffffffffffffffffffffffffffffffffff160217905550808273ffffffffffffffffffffffffffffffffffffffff168473ffffffffffffffffffffffffffffffffffffffff167fddf252ad1be2c89b69c2b068fc378daa952ba7f163c4a11628f55a4df523b3ef60405160405180910390a4505050565b612b52610e37565b612b91576040517f08c379a0000000000000000000000000000000000000000000000000000000008152600401612b8890614dc3565b60405180910390fd5b6000600b60006101000a81548160ff0219169083151502179055507f5db9ee0a495bf2e6ff9c91a7834c1ba4fdd244a5e8aa4e537bd38aeae4b073aa612bd5612685565b604051612be29190614b49565b60405180910390a1565b6000612bf782610fba565b9050612c058160008461326f565b612c1060008361268d565b6001600860008373ffffffffffffffffffffffffffffffffffffffff1673ffffffffffffffffffffffffffffffffffffffff1681526020019081526020016000206000828254612c6091906152b8565b925050819055506007600083815260200190815260200160002060006101000a81549073ffffffffffffffffffffffffffffffffffffffff021916905581600073ffffffffffffffffffffffffffffffffffffffff168273ffffffffffffffffffffffffffffffffffffffff167fddf252ad1be2c89b69c2b068fc378daa952ba7f163c4a11628f55a4df523b3ef60405160405180910390a45050565b612d05610e37565b15612d45576040517f08c379a0000000000000000000000000000000000000000000000000000000008152600401612d3c90614f43565b60405180910390fd5b6001600b60006101000a81548160ff0219169083151502179055507f62e78cea01bee320cd4e420270b5ea74000d11b0c9f74754ebdbfc544b05a258612d89612685565b604051612d969190614b49565b60405180910390a1565b6001816000016000828254019250508190555050565b600081600001549050919050565b612dde8282604051806020016040528060008152506132be565b5050565b612ded8484846128ee565b612df984848484613319565b612e38576040517f08c379a0000000000000000000000000000000000000000000000000000000008152600401612e2f90614e43565b60405180910390fd5b50505050565b606060405180602001604052806000815250905090565b60606000821415612e9d576040518060400160405280600181526020017f30000000000000000000000000000000000000000000000000000000000000008152509050612ffd565b600082905060005b60008214612ecf578080612eb890615488565b915050600a82612ec89190615287565b9150612ea5565b60008167ffffffffffffffff811115612f11577f4e487b7100000000000000000000000000000000000000000000000000000000600052604160045260246000fd5b6040519080825280601f01601f191660200182016040528015612f435781602001600182028036833780820191505090505b5090505b60008514612ff657600182612f5c91906152b8565b9150600a85612f6b91906154d1565b6030612f779190615231565b60f81b818381518110612fb3577f4e487b7100000000000000000000000000000000000000000000000000000000600052603260045260246000fd5b60200101907effffffffffffffffffffffffffffffffffffffffffffffffffffffffffffff1916908160001a905350600a85612fef9190615287565b9450612f47565b8093505050505b919050565b60007f80ac58cd000000000000000000000000000000000000000000000000000000007bffffffffffffffffffffffffffffffffffffffffffffffffffffffff1916827bffffffffffffffffffffffffffffffffffffffffffffffffffffffff191614806130cd57507f5b5e139f000000000000000000000000000000000000000000000000000000007bffffffffffffffffffffffffffffffffffffffffffffffffffffffff1916827bffffffffffffffffffffffffffffffffffffffffffffffffffffffff1916145b806130dd57506130dc826134b0565b5b9050919050565b60007f7fffffffffffffffffffffffffffffff5d576e7357a4501ddfe92f46681b20a08260001c111561314c576040517f08c379a000000000000000000000000000000000000000000000000000000000815260040161314390614f03565b60405180910390fd5b601b8460ff1614806131615750601c8460ff16145b6131a0576040517f08c379a000000000000000000000000000000000000000000000000000000000815260040161319790614fe3565b60405180910390fd5b6000600186868686604051600081526020016040526040516131c59493929190614cb6565b6020604051602081039080840390855afa1580156131e7573d6000803e3d6000fd5b505050602060405103519050600073ffffffffffffffffffffffffffffffffffffffff168173ffffffffffffffffffffffffffffffffffffffff161415613263576040517f08c379a000000000000000000000000000000000000000000000000000000000815260040161325a90614d83565b60405180910390fd5b80915050949350505050565b600073ffffffffffffffffffffffffffffffffffffffff168273ffffffffffffffffffffffffffffffffffffffff16146132ae576132ad838261351a565b5b6132b9838383613844565b505050565b6132c88383613958565b6132d56000848484613319565b613314576040517f08c379a000000000000000000000000000000000000000000000000000000000815260040161330b90614e43565b60405180910390fd5b505050565b600061333a8473ffffffffffffffffffffffffffffffffffffffff16613b26565b156134a3578373ffffffffffffffffffffffffffffffffffffffff1663150b7a02613363612685565b8786866040518563ffffffff1660e01b81526004016133859493929190614bc4565b602060405180830381600087803b15801561339f57600080fd5b505af19250505080156133d057506040513d601f19601f820116820180604052508101906133cd91906143b4565b60015b613453573d8060008114613400576040519150601f19603f3d011682016040523d82523d6000602084013e613405565b606091505b5060008151141561344b576040517f08c379a000000000000000000000000000000000000000000000000000000000815260040161344290614e43565b60405180910390fd5b805181602001fd5b63150b7a0260e01b7bffffffffffffffffffffffffffffffffffffffffffffffffffffffff1916817bffffffffffffffffffffffffffffffffffffffffffffffffffffffff1916149150506134a8565b600190505b949350505050565b60007f01ffc9a7000000000000000000000000000000000000000000000000000000007bffffffffffffffffffffffffffffffffffffffffffffffffffffffff1916827bffffffffffffffffffffffffffffffffffffffffffffffffffffffff1916149050919050565b600073ffffffffffffffffffffffffffffffffffffffff16601460009054906101000a900473ffffffffffffffffffffffffffffffffffffffff1673ffffffffffffffffffffffffffffffffffffffff1614156135ac576040517f08c379a00000000000000000000000000000000000000000000000000000000081526004016135a390614de3565b60405180910390fd5b601160009054906101000a900473ffffffffffffffffffffffffffffffffffffffff1673ffffffffffffffffffffffffffffffffffffffff166323b872dd83306013546040518463ffffffff1660e01b815260040161360d93929190614b8d565b602060405180830381600087803b15801561362757600080fd5b505af115801561363b573d6000803e3d6000fd5b505050506040513d601f19601f8201168201806040525081019061365f919061430e565b61369e576040517f08c379a000000000000000000000000000000000000000000000000000000000815260040161369590614f83565b60405180910390fd5b601160009054906101000a900473ffffffffffffffffffffffffffffffffffffffff1673ffffffffffffffffffffffffffffffffffffffff166323b872dd83601460009054906101000a900473ffffffffffffffffffffffffffffffffffffffff166012546040518463ffffffff1660e01b815260040161372193929190614b8d565b602060405180830381600087803b15801561373b57600080fd5b505af115801561374f573d6000803e3d6000fd5b505050506040513d601f19601f82011682018060405250810190613773919061430e565b6137b2576040517f08c379a00000000000000000000000000000000000000000000000000000000081526004016137a990614f83565b60405180910390fd5b601460009054906101000a900473ffffffffffffffffffffffffffffffffffffffff1673ffffffffffffffffffffffffffffffffffffffff168273ffffffffffffffffffffffffffffffffffffffff16827fbe88f4b50295cd4ba6297b8faffa2e54364bd9520682ecdfa7ac6f44b931e99460135460125460405161383892919061513e565b60405180910390a45050565b61384f838383613b39565b600073ffffffffffffffffffffffffffffffffffffffff168373ffffffffffffffffffffffffffffffffffffffff1614156138925761388d81613b91565b6138d1565b8173ffffffffffffffffffffffffffffffffffffffff168373ffffffffffffffffffffffffffffffffffffffff16146138d0576138cf8382613bda565b5b5b600073ffffffffffffffffffffffffffffffffffffffff168273ffffffffffffffffffffffffffffffffffffffff1614156139145761390f81613d47565b613953565b8273ffffffffffffffffffffffffffffffffffffffff168273ffffffffffffffffffffffffffffffffffffffff1614613952576139518282613e8a565b5b5b505050565b600073ffffffffffffffffffffffffffffffffffffffff168273ffffffffffffffffffffffffffffffffffffffff1614156139c8576040517f08c379a00000000000000000000000000000000000000000000000000000000081526004016139bf90615003565b60405180910390fd5b6139d181612619565b15613a11576040517f08c379a0000000000000000000000000000000000000000000000000000000008152600401613a0890614e83565b60405180910390fd5b613a1d6000838361326f565b6001600860008473ffffffffffffffffffffffffffffffffffffffff1673ffffffffffffffffffffffffffffffffffffffff1681526020019081526020016000206000828254613a6d9190615231565b92505081905550816007600083815260200190815260200160002060006101000a81548173ffffffffffffffffffffffffffffffffffffffff021916908373ffffffffffffffffffffffffffffffffffffffff160217905550808273ffffffffffffffffffffffffffffffffffffffff16600073ffffffffffffffffffffffffffffffffffffffff167fddf252ad1be2c89b69c2b068fc378daa952ba7f163c4a11628f55a4df523b3ef60405160405180910390a45050565b600080823b905060008111915050919050565b613b44838383613f09565b613b4c610e37565b15613b8c576040517f08c379a0000000000000000000000000000000000000000000000000000000008152600401613b8390614da3565b60405180910390fd5b505050565b600e80549050600f600083815260200190815260200160002081905550600e81908060018154018082558091505060019003906000526020600020016000909190919091505550565b60006001613be78461159f565b613bf191906152b8565b90506000600d6000848152602001908152602001600020549050818114613cd6576000600c60008673ffffffffffffffffffffffffffffffffffffffff1673ffffffffffffffffffffffffffffffffffffffff168152602001908152602001600020600084815260200190815260200160002054905080600c60008773ffffffffffffffffffffffffffffffffffffffff1673ffffffffffffffffffffffffffffffffffffffff16815260200190815260200160002060008481526020019081526020016000208190555081600d600083815260200190815260200160002081905550505b600d600084815260200190815260200160002060009055600c60008573ffffffffffffffffffffffffffffffffffffffff1673ffffffffffffffffffffffffffffffffffffffff16815260200190815260200160002060008381526020019081526020016000206000905550505050565b60006001600e80549050613d5b91906152b8565b90506000600f60008481526020019081526020016000205490506000600e8381548110613db1577f4e487b7100000000000000000000000000000000000000000000000000000000600052603260045260246000fd5b9060005260206000200154905080600e8381548110613df9577f4e487b7100000000000000000000000000000000000000000000000000000000600052603260045260246000fd5b906000526020600020018190555081600f600083815260200190815260200160002081905550600f600085815260200190815260200160002060009055600e805480613e6e577f4e487b7100000000000000000000000000000000000000000000000000000000600052603160045260246000fd5b6001900381819060005260206000200160009055905550505050565b6000613e958361159f565b905081600c60008573ffffffffffffffffffffffffffffffffffffffff1673ffffffffffffffffffffffffffffffffffffffff16815260200190815260200160002060008381526020019081526020016000208190555080600d600084815260200190815260200160002081905550505050565b505050565b828054613f1a90615425565b90600052602060002090601f016020900481019282613f3c5760008555613f83565b82601f10613f5557805160ff1916838001178555613f83565b82800160010185558215613f83579182015b82811115613f82578251825591602001919060010190613f67565b5b509050613f909190613f94565b5090565b5b80821115613fad576000816000905550600101613f95565b5090565b6000613fc4613fbf8461518c565b615167565b905082815260208101848484011115613fdc57600080fd5b613fe78482856153e3565b509392505050565b6000614002613ffd846151bd565b615167565b90508281526020810184848401111561401a57600080fd5b6140258482856153e3565b509392505050565b60008135905061403c81615d46565b92915050565b60008135905061405181615d5d565b92915050565b60008135905061406681615d74565b92915050565b60008151905061407b81615d74565b92915050565b60008135905061409081615d8b565b92915050565b6000813590506140a581615da2565b92915050565b6000815190506140ba81615da2565b92915050565b600082601f8301126140d157600080fd5b81356140e1848260208601613fb1565b91505092915050565b600082601f8301126140fb57600080fd5b813561410b848260208601613fef565b91505092915050565b60008135905061412381615db9565b92915050565b60008151905061413881615db9565b92915050565b60006020828403121561415057600080fd5b600061415e8482850161402d565b91505092915050565b60006020828403121561417957600080fd5b600061418784828501614042565b91505092915050565b600080604083850312156141a357600080fd5b60006141b18582860161402d565b92505060206141c28582860161402d565b9150509250929050565b6000806000606084860312156141e157600080fd5b60006141ef8682870161402d565b93505060206142008682870161402d565b925050604061421186828701614114565b9150509250925092565b6000806000806080858703121561423157600080fd5b600061423f8782880161402d565b94505060206142508782880161402d565b935050604061426187828801614114565b925050606085013567ffffffffffffffff81111561427e57600080fd5b61428a878288016140c0565b91505092959194509250565b600080604083850312156142a957600080fd5b60006142b78582860161402d565b92505060206142c885828601614057565b9150509250929050565b600080604083850312156142e557600080fd5b60006142f38582860161402d565b925050602061430485828601614114565b9150509250929050565b60006020828403121561432057600080fd5b600061432e8482850161406c565b91505092915050565b6000806040838503121561434a57600080fd5b600061435885828601614081565b925050602083013567ffffffffffffffff81111561437557600080fd5b614381858286016140c0565b9150509250929050565b60006020828403121561439d57600080fd5b60006143ab84828501614096565b91505092915050565b6000602082840312156143c657600080fd5b60006143d4848285016140ab565b91505092915050565b600080600080608085870312156143f357600080fd5b600085013567ffffffffffffffff81111561440d57600080fd5b614419878288016140ea565b945050602061442a8782880161402d565b935050604061443b87828801614057565b925050606061444c87828801614114565b91505092959194509250565b600080600080600060a0868803121561447057600080fd5b600086013567ffffffffffffffff81111561448a57600080fd5b614496888289016140ea565b95505060206144a78882890161402d565b945050604086013567ffffffffffffffff8111156144c457600080fd5b6144d0888289016140ea565b935050606086013567ffffffffffffffff8111156144ed57600080fd5b6144f9888289016140ea565b925050608086013567ffffffffffffffff81111561451657600080fd5b614522888289016140ea565b9150509295509295909350565b60006020828403121561454157600080fd5b600061454f84828501614114565b91505092915050565b60006020828403121561456a57600080fd5b600061457884828501614129565b91505092915050565b6000806000806080858703121561459757600080fd5b60006145a587828801614114565b94505060206145b68782880161402d565b93505060406145c78782880161402d565b925050606085013567ffffffffffffffff8111156145e457600080fd5b6145f0878288016140ea565b91505092959194509250565b61460581615389565b82525050565b614614816152ec565b82525050565b61462381615310565b82525050565b6146328161531c565b82525050565b61464181615326565b82525050565b6000614652826151ee565b61465c8185615204565b935061466c8185602086016153f2565b614675816155be565b840191505092915050565b6146898161539b565b82525050565b600061469a826151f9565b6146a48185615215565b93506146b48185602086016153f2565b6146bd816155be565b840191505092915050565b60006146d3826151f9565b6146dd8185615226565b93506146ed8185602086016153f2565b80840191505092915050565b6000614706601883615215565b9150614711826155cf565b602082019050919050565b6000614729602b83615215565b9150614734826155f8565b604082019050919050565b600061474c601483615215565b915061475782615647565b602082019050919050565b600061476f602183615215565b915061477a82615670565b604082019050919050565b6000614792601f83615215565b915061479d826156bf565b602082019050919050565b60006147b5602b83615215565b91506147c0826156e8565b604082019050919050565b60006147d8603283615215565b91506147e382615737565b604082019050919050565b60006147fb602683615215565b915061480682615786565b604082019050919050565b600061481e601c83615215565b9150614829826157d5565b602082019050919050565b6000614841602483615215565b915061484c826157fe565b604082019050919050565b6000614864601983615215565b915061486f8261584d565b602082019050919050565b6000614887601483615215565b915061489282615876565b602082019050919050565b60006148aa602283615215565b91506148b58261589f565b604082019050919050565b60006148cd602c83615215565b91506148d8826158ee565b604082019050919050565b60006148f0601083615215565b91506148fb8261593d565b602082019050919050565b6000614913603883615215565b915061491e82615966565b604082019050919050565b6000614936601583615215565b9150614941826159b5565b602082019050919050565b6000614959602a83615215565b9150614964826159de565b604082019050919050565b600061497c602983615215565b915061498782615a2d565b604082019050919050565b600061499f602283615215565b91506149aa82615a7c565b604082019050919050565b60006149c2602083615215565b91506149cd82615acb565b602082019050919050565b60006149e5602c83615215565b91506149f082615af4565b604082019050919050565b6000614a08602083615215565b9150614a1382615b43565b602082019050919050565b6000614a2b602983615215565b9150614a3682615b6c565b604082019050919050565b6000614a4e602f83615215565b9150614a5982615bbb565b604082019050919050565b6000614a71602183615215565b9150614a7c82615c0a565b604082019050919050565b6000614a94603183615215565b9150614a9f82615c59565b604082019050919050565b6000614ab7602c83615215565b9150614ac282615ca8565b604082019050919050565b6000614ada603083615215565b9150614ae582615cf7565b604082019050919050565b614af981615372565b82525050565b614b088161537c565b82525050565b6000614b1a82846146c8565b915081905092915050565b6000614b3182856146c8565b9150614b3d82846146c8565b91508190509392505050565b6000602082019050614b5e600083018461460b565b92915050565b6000604082019050614b7960008301856145fc565b614b866020830184614af0565b9392505050565b6000606082019050614ba2600083018661460b565b614baf602083018561460b565b614bbc6040830184614af0565b949350505050565b6000608082019050614bd9600083018761460b565b614be6602083018661460b565b614bf36040830185614af0565b8181036060830152614c058184614647565b905095945050505050565b600060e082019050614c25600083018a61460b565b8181036020830152614c37818961468f565b9050614c46604083018861460b565b8181036060830152614c58818761468f565b90508181036080830152614c6c818661468f565b9050614c7b60a0830185614af0565b81810360c0830152614c8d818461468f565b905098975050505050505050565b6000602082019050614cb0600083018461461a565b92915050565b6000608082019050614ccb6000830187614629565b614cd86020830186614aff565b614ce56040830185614629565b614cf26060830184614629565b95945050505050565b6000602082019050614d106000830184614638565b92915050565b6000602082019050614d2b6000830184614680565b92915050565b60006020820190508181036000830152614d4b818461468f565b905092915050565b60006040820190508181036000830152614d6d818561468f565b9050614d7c6020830184614af0565b9392505050565b60006020820190508181036000830152614d9c816146f9565b9050919050565b60006020820190508181036000830152614dbc8161471c565b9050919050565b60006020820190508181036000830152614ddc8161473f565b9050919050565b60006020820190508181036000830152614dfc81614762565b9050919050565b60006020820190508181036000830152614e1c81614785565b9050919050565b60006020820190508181036000830152614e3c816147a8565b9050919050565b60006020820190508181036000830152614e5c816147cb565b9050919050565b60006020820190508181036000830152614e7c816147ee565b9050919050565b60006020820190508181036000830152614e9c81614811565b9050919050565b60006020820190508181036000830152614ebc81614834565b9050919050565b60006020820190508181036000830152614edc81614857565b9050919050565b60006020820190508181036000830152614efc8161487a565b9050919050565b60006020820190508181036000830152614f1c8161489d565b9050919050565b60006020820190508181036000830152614f3c816148c0565b9050919050565b60006020820190508181036000830152614f5c816148e3565b9050919050565b60006020820190508181036000830152614f7c81614906565b9050919050565b60006020820190508181036000830152614f9c81614929565b9050919050565b60006020820190508181036000830152614fbc8161494c565b9050919050565b60006020820190508181036000830152614fdc8161496f565b9050919050565b60006020820190508181036000830152614ffc81614992565b9050919050565b6000602082019050818103600083015261501c816149b5565b9050919050565b6000602082019050818103600083015261503c816149d8565b9050919050565b6000602082019050818103600083015261505c816149fb565b9050919050565b6000602082019050818103600083015261507c81614a1e565b9050919050565b6000602082019050818103600083015261509c81614a41565b9050919050565b600060208201905081810360008301526150bc81614a64565b9050919050565b600060208201905081810360008301526150dc81614a87565b9050919050565b600060208201905081810360008301526150fc81614aaa565b9050919050565b6000602082019050818103600083015261511c81614acd565b9050919050565b60006020820190506151386000830184614af0565b92915050565b60006040820190506151536000830185614af0565b6151606020830184614af0565b9392505050565b6000615171615182565b905061517d8282615457565b919050565b6000604051905090565b600067ffffffffffffffff8211156151a7576151a661558f565b5b6151b0826155be565b9050602081019050919050565b600067ffffffffffffffff8211156151d8576151d761558f565b5b6151e1826155be565b9050602081019050919050565b600081519050919050565b600081519050919050565b600082825260208201905092915050565b600082825260208201905092915050565b600081905092915050565b600061523c82615372565b915061524783615372565b9250827fffffffffffffffffffffffffffffffffffffffffffffffffffffffffffffffff0382111561527c5761527b615502565b5b828201905092915050565b600061529282615372565b915061529d83615372565b9250826152ad576152ac615531565b5b828204905092915050565b60006152c382615372565b91506152ce83615372565b9250828210156152e1576152e0615502565b5b828203905092915050565b60006152f782615352565b9050919050565b600061530982615352565b9050919050565b60008115159050919050565b6000819050919050565b60007fffffffff0000000000000000000000000000000000000000000000000000000082169050919050565b600073ffffffffffffffffffffffffffffffffffffffff82169050919050565b6000819050919050565b600060ff82169050919050565b6000615394826153bf565b9050919050565b60006153a6826153ad565b9050919050565b60006153b882615352565b9050919050565b60006153ca826153d1565b9050919050565b60006153dc82615352565b9050919050565b82818337600083830152505050565b60005b838110156154105780820151818401526020810190506153f5565b8381111561541f576000848401525b50505050565b6000600282049050600182168061543d57607f821691505b6020821081141561545157615450615560565b5b50919050565b615460826155be565b810181811067ffffffffffffffff8211171561547f5761547e61558f565b5b80604052505050565b600061549382615372565b91507fffffffffffffffffffffffffffffffffffffffffffffffffffffffffffffffff8214156154c6576154c5615502565b5b600182019050919050565b60006154dc82615372565b91506154e783615372565b9250826154f7576154f6615531565b5b828206905092915050565b7f4e487b7100000000000000000000000000000000000000000000000000000000600052601160045260246000fd5b7f4e487b7100000000000000000000000000000000000000000000000000000000600052601260045260246000fd5b7f4e487b7100000000000000000000000000000000000000000000000000000000600052602260045260246000fd5b7f4e487b7100000000000000000000000000000000000000000000000000000000600052604160045260246000fd5b6000601f19601f8301169050919050565b7f45434453413a20696e76616c6964207369676e61747572650000000000000000600082015250565b7f4552433732315061757361626c653a20746f6b656e207472616e73666572207760008201527f68696c6520706175736564000000000000000000000000000000000000000000602082015250565b7f5061757361626c653a206e6f7420706175736564000000000000000000000000600082015250565b7f4b4c49503a204d75737420686176652061207061796d656e742061646472657360008201527f7300000000000000000000000000000000000000000000000000000000000000602082015250565b7f45434453413a20696e76616c6964207369676e6174757265206c656e67746800600082015250565b7f455243373231456e756d657261626c653a206f776e657220696e646578206f7560008201527f74206f6620626f756e6473000000000000000000000000000000000000000000602082015250565b7f4552433732313a207472616e7366657220746f206e6f6e20455243373231526560008201527f63656976657220696d706c656d656e7465720000000000000000000000000000602082015250565b7f4f776e61626c653a206e6577206f776e657220697320746865207a65726f206160008201527f6464726573730000000000000000000000000000000000000000000000000000602082015250565b7f4552433732313a20746f6b656e20616c7265616479206d696e74656400000000600082015250565b7f4552433732313a207472616e7366657220746f20746865207a65726f2061646460008201527f7265737300000000000000000000000000000000000000000000000000000000602082015250565b7f4552433732313a20617070726f766520746f2063616c6c657200000000000000600082015250565b7f4b4c49503a20496e76616c696420537461747573000000000000000000000000600082015250565b7f45434453413a20696e76616c6964207369676e6174757265202773272076616c60008201527f7565000000000000000000000000000000000000000000000000000000000000602082015250565b7f4552433732313a206f70657261746f7220717565727920666f72206e6f6e657860008201527f697374656e7420746f6b656e0000000000000000000000000000000000000000602082015250565b7f5061757361626c653a2070617573656400000000000000000000000000000000600082015250565b7f4552433732313a20617070726f76652063616c6c6572206973206e6f74206f7760008201527f6e6572206e6f7220617070726f76656420666f7220616c6c0000000000000000602082015250565b7f4b4c49503a205472616e73666572206661696c65640000000000000000000000600082015250565b7f4552433732313a2062616c616e636520717565727920666f7220746865207a6560008201527f726f206164647265737300000000000000000000000000000000000000000000602082015250565b7f4552433732313a206f776e657220717565727920666f72206e6f6e657869737460008201527f656e7420746f6b656e0000000000000000000000000000000000000000000000602082015250565b7f45434453413a20696e76616c6964207369676e6174757265202776272076616c60008201527f7565000000000000000000000000000000000000000000000000000000000000602082015250565b7f4552433732313a206d696e7420746f20746865207a65726f2061646472657373600082015250565b7f4552433732313a20617070726f76656420717565727920666f72206e6f6e657860008201527f697374656e7420746f6b656e0000000000000000000000000000000000000000602082015250565b7f4f776e61626c653a2063616c6c6572206973206e6f7420746865206f776e6572600082015250565b7f4552433732313a207472616e73666572206f6620746f6b656e2074686174206960008201527f73206e6f74206f776e0000000000000000000000000000000000000000000000602082015250565b7f4552433732314d657461646174613a2055524920717565727920666f72206e6f60008201527f6e6578697374656e7420746f6b656e0000000000000000000000000000000000602082015250565b7f4552433732313a20617070726f76616c20746f2063757272656e74206f776e6560008201527f7200000000000000000000000000000000000000000000000000000000000000602082015250565b7f4552433732313a207472616e736665722063616c6c6572206973206e6f74206f60008201527f776e6572206e6f7220617070726f766564000000000000000000000000000000602082015250565b7f455243373231456e756d657261626c653a20676c6f62616c20696e646578206f60008201527f7574206f6620626f756e64730000000000000000000000000000000000000000602082015250565b7f4552433732314275726e61626c653a2063616c6c6572206973206e6f74206f7760008201527f6e6572206e6f7220617070726f76656400000000000000000000000000000000602082015250565b615d4f816152ec565b8114615d5a57600080fd5b50565b615d66816152fe565b8114615d7157600080fd5b50565b615d7d81615310565b8114615d8857600080fd5b50565b615d948161531c565b8114615d9f57600080fd5b50565b615dab81615326565b8114615db657600080fd5b50565b615dc281615372565b8114615dcd57600080fd5b5056fea2646970667358221220cd37b3f620f28d62a0674d2dfda1918c83143eef55ab36c69c2a0798cf20924a64736f6c63430008040033",
  "linkReferences": {},
  "deployedLinkReferences": {}
}