{
  "_format": "hh-sol-artifact-1",
  "contractName": "KLIP",
  "sourceName": "contracts/KLIP.sol",
  "abi": [
    {
      "inputs": [
        {
          "internalType": "address",
          "name": "tokenERC20",
          "type": "address"
        },
        {
          "internalType": "address",
          "name": "newPaymentAddress",
          "type": "address"
        }
      ],
      "stateMutability": "nonpayable",
      "type": "constructor"
    },
    {
      "anonymous": false,
      "inputs": [
        {
          "indexed": true,
          "internalType": "address",
          "name": "owner",
          "type": "address"
        },
        {
          "indexed": true,
          "internalType": "address",
          "name": "approved",
          "type": "address"
        },
        {
          "indexed": true,
          "internalType": "uint256",
          "name": "tokenId",
          "type": "uint256"
        }
      ],
      "name": "Approval",
      "type": "event"
    },
    {
      "anonymous": false,
      "inputs": [
        {
          "indexed": true,
          "internalType": "address",
          "name": "owner",
          "type": "address"
        },
        {
          "indexed": true,
          "internalType": "address",
          "name": "operator",
          "type": "address"
        },
        {
          "indexed": false,
          "internalType": "bool",
          "name": "approved",
          "type": "bool"
        }
      ],
      "name": "ApprovalForAll",
      "type": "event"
    },
    {
      "anonymous": false,
      "inputs": [
        {
          "indexed": true,
          "internalType": "address",
          "name": "publisher",
          "type": "address"
        },
        {
          "indexed": true,
          "internalType": "string",
          "name": "publisherDid",
          "type": "string"
        },
        {
          "indexed": false,
          "internalType": "bytes",
          "name": "documentURI",
          "type": "bytes"
        },
        {
          "indexed": false,
          "internalType": "uint256",
          "name": "id",
          "type": "uint256"
        }
      ],
      "name": "DocumentAnchored",
      "type": "event"
    },
    {
      "anonymous": false,
      "inputs": [
        {
          "indexed": true,
          "internalType": "address",
          "name": "previousOwner",
          "type": "address"
        },
        {
          "indexed": true,
          "internalType": "address",
          "name": "newOwner",
          "type": "address"
        }
      ],
      "name": "OwnershipTransferred",
      "type": "event"
    },
    {
      "anonymous": false,
      "inputs": [
        {
          "indexed": false,
          "internalType": "address",
          "name": "account",
          "type": "address"
        }
      ],
      "name": "Paused",
      "type": "event"
    },
    {
      "anonymous": false,
      "inputs": [
        {
          "indexed": true,
          "internalType": "uint256",
          "name": "tokenId",
          "type": "uint256"
        },
        {
          "indexed": true,
          "internalType": "address",
          "name": "from",
          "type": "address"
        },
        {
          "indexed": true,
          "internalType": "address",
          "name": "paymentAddress",
          "type": "address"
        },
        {
          "indexed": false,
          "internalType": "uint256",
          "name": "paidToContract",
          "type": "uint256"
        },
        {
          "indexed": false,
          "internalType": "uint256",
          "name": "paidToPaymentAddress",
          "type": "uint256"
        }
      ],
      "name": "ServiceFeePaid",
      "type": "event"
    },
    {
      "anonymous": false,
      "inputs": [
        {
          "indexed": true,
          "internalType": "address",
          "name": "from",
          "type": "address"
        },
        {
          "indexed": true,
          "internalType": "address",
          "name": "to",
          "type": "address"
        },
        {
          "indexed": true,
          "internalType": "uint256",
          "name": "tokenId",
          "type": "uint256"
        }
      ],
      "name": "Transfer",
      "type": "event"
    },
    {
      "anonymous": false,
      "inputs": [
        {
          "indexed": false,
          "internalType": "address",
          "name": "account",
          "type": "address"
        }
      ],
      "name": "Unpaused",
      "type": "event"
    },
    {
      "anonymous": false,
      "inputs": [
        {
          "indexed": true,
          "internalType": "address",
          "name": "paymentAddress",
          "type": "address"
        },
        {
          "indexed": false,
          "internalType": "uint256",
          "name": "amount",
          "type": "uint256"
        }
      ],
      "name": "Withdrawn",
      "type": "event"
    },
    {
      "inputs": [
        {
          "internalType": "address",
          "name": "to",
          "type": "address"
        },
        {
          "internalType": "uint256",
          "name": "tokenId",
          "type": "uint256"
        }
      ],
      "name": "approve",
      "outputs": [],
      "stateMutability": "nonpayable",
      "type": "function"
    },
    {
      "inputs": [
        {
          "internalType": "address",
          "name": "owner",
          "type": "address"
        }
      ],
      "name": "balanceOf",
      "outputs": [
        {
          "internalType": "uint256",
          "name": "",
          "type": "uint256"
        }
      ],
      "stateMutability": "view",
      "type": "function"
    },
    {
      "inputs": [
        {
          "internalType": "uint256",
          "name": "tokenId",
          "type": "uint256"
        }
      ],
      "name": "burn",
      "outputs": [],
      "stateMutability": "nonpayable",
      "type": "function"
    },
    {
      "inputs": [],
      "name": "fee",
      "outputs": [
        {
          "internalType": "uint256",
          "name": "",
          "type": "uint256"
        }
      ],
      "stateMutability": "view",
      "type": "function"
    },
    {
      "inputs": [
        {
          "internalType": "uint256",
          "name": "",
          "type": "uint256"
        }
      ],
      "name": "fileUri",
      "outputs": [
        {
          "internalType": "string",
          "name": "",
          "type": "string"
        }
      ],
      "stateMutability": "view",
      "type": "function"
    },
    {
      "inputs": [
        {
          "internalType": "uint256",
          "name": "tokenId",
          "type": "uint256"
        }
      ],
      "name": "getApproved",
      "outputs": [
        {
          "internalType": "address",
          "name": "",
          "type": "address"
        }
      ],
      "stateMutability": "view",
      "type": "function"
    },
    {
      "inputs": [
        {
          "internalType": "address",
          "name": "owner",
          "type": "address"
        },
        {
          "internalType": "address",
          "name": "operator",
          "type": "address"
        }
      ],
      "name": "isApprovedForAll",
      "outputs": [
        {
          "internalType": "bool",
          "name": "",
          "type": "bool"
        }
      ],
      "stateMutability": "view",
      "type": "function"
    },
    {
      "inputs": [
        {
          "internalType": "bytes32",
          "name": "hash",
          "type": "bytes32"
        },
        {
          "internalType": "bytes",
          "name": "signature",
          "type": "bytes"
        }
      ],
      "name": "isValidSignature",
      "outputs": [
        {
          "internalType": "bytes4",
          "name": "magicValue",
          "type": "bytes4"
        }
      ],
      "stateMutability": "view",
      "type": "function"
    },
    {
      "inputs": [
        {
          "internalType": "uint256",
          "name": "qty",
          "type": "uint256"
        },
        {
          "internalType": "address",
          "name": "buyer",
          "type": "address"
        },
        {
          "internalType": "string",
          "name": "buyerDid",
          "type": "string"
        },
        {
          "internalType": "bytes",
          "name": "documentURI",
          "type": "bytes"
        },
        {
          "internalType": "bool",
          "name": "encrypted",
          "type": "bool"
        },
        {
          "internalType": "string",
          "name": "name",
          "type": "string"
        },
        {
          "internalType": "string",
          "name": "did",
          "type": "string"
        }
      ],
      "name": "mint",
      "outputs": [
        {
          "internalType": "bool",
          "name": "",
          "type": "bool"
        }
      ],
      "stateMutability": "nonpayable",
      "type": "function"
    },
    {
      "inputs": [
        {
          "internalType": "address",
          "name": "",
          "type": "address"
        }
      ],
      "name": "minterCounter",
      "outputs": [
        {
          "internalType": "uint256",
          "name": "",
          "type": "uint256"
        }
      ],
      "stateMutability": "view",
      "type": "function"
    },
    {
      "inputs": [
        {
          "internalType": "address",
          "name": "",
          "type": "address"
        }
      ],
      "name": "minterDocumentRequestCounter",
      "outputs": [
        {
          "internalType": "uint256",
          "name": "",
          "type": "uint256"
        }
      ],
      "stateMutability": "view",
      "type": "function"
    },
    {
      "inputs": [
        {
          "internalType": "address",
          "name": "",
          "type": "address"
        },
        {
          "internalType": "uint256",
          "name": "",
          "type": "uint256"
        }
      ],
      "name": "minterDocumentRequests",
      "outputs": [
        {
          "internalType": "address",
          "name": "publisher",
          "type": "address"
        },
        {
          "internalType": "address",
          "name": "buyer",
          "type": "address"
        },
        {
          "internalType": "string",
          "name": "buyerDid",
          "type": "string"
        },
        {
          "internalType": "bytes",
          "name": "documentURI",
          "type": "bytes"
        },
        {
          "internalType": "uint256",
          "name": "status",
          "type": "uint256"
        },
        {
          "internalType": "bool",
          "name": "encrypted",
          "type": "bool"
        },
        {
          "internalType": "uint256",
          "name": "qty",
          "type": "uint256"
        }
      ],
      "stateMutability": "view",
      "type": "function"
    },
    {
      "inputs": [],
      "name": "name",
      "outputs": [
        {
          "internalType": "string",
          "name": "",
          "type": "string"
        }
      ],
      "stateMutability": "view",
      "type": "function"
    },
    {
      "inputs": [],
      "name": "owner",
      "outputs": [
        {
          "internalType": "address",
          "name": "",
          "type": "address"
        }
      ],
      "stateMutability": "view",
      "type": "function"
    },
    {
      "inputs": [
        {
          "internalType": "uint256",
          "name": "tokenId",
          "type": "uint256"
        }
      ],
      "name": "ownerOf",
      "outputs": [
        {
          "internalType": "address",
          "name": "",
          "type": "address"
        }
      ],
      "stateMutability": "view",
      "type": "function"
    },
    {
      "inputs": [],
      "name": "pause",
      "outputs": [],
      "stateMutability": "nonpayable",
      "type": "function"
    },
    {
      "inputs": [],
      "name": "paused",
      "outputs": [
        {
          "internalType": "bool",
          "name": "",
          "type": "bool"
        }
      ],
      "stateMutability": "view",
      "type": "function"
    },
    {
      "inputs": [],
      "name": "paymentAddress",
      "outputs": [
        {
          "internalType": "address",
          "name": "",
          "type": "address"
        }
      ],
      "stateMutability": "view",
      "type": "function"
    },
    {
      "inputs": [],
      "name": "publisherCount",
      "outputs": [
        {
          "internalType": "uint256",
          "name": "",
          "type": "uint256"
        }
      ],
      "stateMutability": "view",
      "type": "function"
    },
    {
      "inputs": [],
      "name": "renounceOwnership",
      "outputs": [],
      "stateMutability": "nonpayable",
      "type": "function"
    },
    {
      "inputs": [],
      "name": "royalty",
      "outputs": [
        {
          "internalType": "uint256",
          "name": "",
          "type": "uint256"
        }
      ],
      "stateMutability": "view",
      "type": "function"
    },
    {
      "inputs": [
        {
          "internalType": "address",
          "name": "from",
          "type": "address"
        },
        {
          "internalType": "address",
          "name": "to",
          "type": "address"
        },
        {
          "internalType": "uint256",
          "name": "tokenId",
          "type": "uint256"
        }
      ],
      "name": "safeTransferFrom",
      "outputs": [],
      "stateMutability": "nonpayable",
      "type": "function"
    },
    {
      "inputs": [
        {
          "internalType": "address",
          "name": "from",
          "type": "address"
        },
        {
          "internalType": "address",
          "name": "to",
          "type": "address"
        },
        {
          "internalType": "uint256",
          "name": "tokenId",
          "type": "uint256"
        },
        {
          "internalType": "bytes",
          "name": "_data",
          "type": "bytes"
        }
      ],
      "name": "safeTransferFrom",
      "outputs": [],
      "stateMutability": "nonpayable",
      "type": "function"
    },
    {
      "inputs": [
        {
          "internalType": "address",
          "name": "operator",
          "type": "address"
        },
        {
          "internalType": "bool",
          "name": "approved",
          "type": "bool"
        }
      ],
      "name": "setApprovalForAll",
      "outputs": [],
      "stateMutability": "nonpayable",
      "type": "function"
    },
    {
      "inputs": [
        {
          "internalType": "address",
          "name": "newAddress",
          "type": "address"
        }
      ],
      "name": "setPaymentAddress",
      "outputs": [],
      "stateMutability": "nonpayable",
      "type": "function"
    },
    {
      "inputs": [
        {
          "internalType": "uint256",
          "name": "_fee",
          "type": "uint256"
        }
      ],
      "name": "setServiceFee",
      "outputs": [],
      "stateMutability": "nonpayable",
      "type": "function"
    },
    {
      "inputs": [
        {
          "internalType": "uint256",
          "name": "_fee",
          "type": "uint256"
        }
      ],
      "name": "setServiceRoyalty",
      "outputs": [],
      "stateMutability": "nonpayable",
      "type": "function"
    },
    {
      "inputs": [],
      "name": "stablecoin",
      "outputs": [
        {
          "internalType": "contract IERC20",
          "name": "",
          "type": "address"
        }
      ],
      "stateMutability": "view",
      "type": "function"
    },
    {
      "inputs": [
        {
          "internalType": "bytes4",
          "name": "interfaceId",
          "type": "bytes4"
        }
      ],
      "name": "supportsInterface",
      "outputs": [
        {
          "internalType": "bool",
          "name": "",
          "type": "bool"
        }
      ],
      "stateMutability": "view",
      "type": "function"
    },
    {
      "inputs": [],
      "name": "symbol",
      "outputs": [
        {
          "internalType": "string",
          "name": "",
          "type": "string"
        }
      ],
      "stateMutability": "view",
      "type": "function"
    },
    {
      "inputs": [
        {
          "internalType": "uint256",
          "name": "index",
          "type": "uint256"
        }
      ],
      "name": "tokenByIndex",
      "outputs": [
        {
          "internalType": "uint256",
          "name": "",
          "type": "uint256"
        }
      ],
      "stateMutability": "view",
      "type": "function"
    },
    {
      "inputs": [
        {
          "internalType": "address",
          "name": "owner",
          "type": "address"
        },
        {
          "internalType": "uint256",
          "name": "index",
          "type": "uint256"
        }
      ],
      "name": "tokenOfOwnerByIndex",
      "outputs": [
        {
          "internalType": "uint256",
          "name": "",
          "type": "uint256"
        }
      ],
      "stateMutability": "view",
      "type": "function"
    },
    {
      "inputs": [
        {
          "internalType": "uint256",
          "name": "tokenId",
          "type": "uint256"
        }
      ],
      "name": "tokenURI",
      "outputs": [
        {
          "internalType": "string",
          "name": "",
          "type": "string"
        }
      ],
      "stateMutability": "view",
      "type": "function"
    },
    {
      "inputs": [],
      "name": "totalSupply",
      "outputs": [
        {
          "internalType": "uint256",
          "name": "",
          "type": "uint256"
        }
      ],
      "stateMutability": "view",
      "type": "function"
    },
    {
      "inputs": [
        {
          "internalType": "address",
          "name": "from",
          "type": "address"
        },
        {
          "internalType": "address",
          "name": "to",
          "type": "address"
        },
        {
          "internalType": "uint256",
          "name": "tokenId",
          "type": "uint256"
        }
      ],
      "name": "transferFrom",
      "outputs": [],
      "stateMutability": "nonpayable",
      "type": "function"
    },
    {
      "inputs": [
        {
          "internalType": "address",
          "name": "newOwner",
          "type": "address"
        }
      ],
      "name": "transferOwnership",
      "outputs": [],
      "stateMutability": "nonpayable",
      "type": "function"
    },
    {
      "inputs": [],
      "name": "unpause",
      "outputs": [],
      "stateMutability": "nonpayable",
      "type": "function"
    },
    {
      "inputs": [
        {
          "internalType": "address payable",
          "name": "payee",
          "type": "address"
        }
      ],
      "name": "withdrawBalance",
      "outputs": [],
      "stateMutability": "nonpayable",
      "type": "function"
    }
  ],
  "bytecode": "0x6080604052600060135560006014553480156200001b57600080fd5b5060405162005e5f38038062005e5f833981810160405281019062000041919062000305565b6040518060400160405280600a81526020017f4b4c495020546f6b656e000000000000000000000000000000000000000000008152506040518060400160405280600481526020017f4b4c4950000000000000000000000000000000000000000000000000000000008152506000620000bf6200023660201b60201c565b9050806000806101000a81548173ffffffffffffffffffffffffffffffffffffffff021916908373ffffffffffffffffffffffffffffffffffffffff1602179055508073ffffffffffffffffffffffffffffffffffffffff16600073ffffffffffffffffffffffffffffffffffffffff167f8be0079c531659141344cd1fd0a4f28419497f9722a3daafe3b4186f6b6457e060405160405180910390a3508160069080519060200190620001759291906200023e565b5080600790805190602001906200018e9291906200023e565b5050506000600c60006101000a81548160ff02191690831515021790555080601560006101000a81548173ffffffffffffffffffffffffffffffffffffffff021916908373ffffffffffffffffffffffffffffffffffffffff16021790555081601260006101000a81548173ffffffffffffffffffffffffffffffffffffffff021916908373ffffffffffffffffffffffffffffffffffffffff1602179055505050620003f9565b600033905090565b8280546200024c906200037a565b90600052602060002090601f016020900481019282620002705760008555620002bc565b82601f106200028b57805160ff1916838001178555620002bc565b82800160010185558215620002bc579182015b82811115620002bb5782518255916020019190600101906200029e565b5b509050620002cb9190620002cf565b5090565b5b80821115620002ea576000816000905550600101620002d0565b5090565b600081519050620002ff81620003df565b92915050565b600080604083850312156200031957600080fd5b60006200032985828601620002ee565b92505060206200033c85828601620002ee565b9150509250929050565b600062000353826200035a565b9050919050565b600073ffffffffffffffffffffffffffffffffffffffff82169050919050565b600060028204905060018216806200039357607f821691505b60208210811415620003aa57620003a9620003b0565b5b50919050565b7f4e487b7100000000000000000000000000000000000000000000000000000000600052602260045260246000fd5b620003ea8162000346565b8114620003f657600080fd5b50565b615a5680620004096000396000f3fe608060405234801561001057600080fd5b50600436106102325760003560e01c8063633423be1161013057806395d89b41116100b8578063ddca3f431161007c578063ddca3f43146106b5578063e985e9c5146106d3578063e9cbd82214610703578063f2fde38b14610721578063f5eed98d1461073d57610232565b806395d89b41146105ff578063a22cb4651461061d578063b88d4fde14610639578063c87b56dd14610655578063d6d2c4441461068557610232565b8063715018a6116100ff578063715018a614610581578063756af45f1461058b578063761901bb146105a75780638456cb59146105d75780638da5cb5b146105e157610232565b8063633423be146104cd5780636352211e146104eb5780636efaa6991461051b57806370a082311461055157610232565b80632f745c59116101be5780634f6ccce7116101825780634f6ccce71461042b57806354d7a2b51461045b5780635c975abb146104775780635cdf76f8146104955780635e1e1004146104b157610232565b80632f745c59146103895780633f4ba83a146103b957806342842e0e146103c357806342966c68146103df578063435da82a146103fb57610232565b80631626ba7e116102055780631626ba7e146102d157806318160ddd1461030157806323b872dd1461031f57806329ee566c1461033b5780632aa222c81461035957610232565b806301ffc9a71461023757806306fdde0314610267578063081812fc14610285578063095ea7b3146102b5575b600080fd5b610251600480360381019061024c919061404c565b61075b565b60405161025e91906148a2565b60405180910390f35b61026f61076d565b60405161027c9190614968565b60405180910390f35b61029f600480360381019061029a919061409e565b6107ff565b6040516102ac919061475e565b60405180910390f35b6102cf60048036038101906102ca9190613f93565b610884565b005b6102eb60048036038101906102e69190613ff8565b61099c565b6040516102f89190614902565b60405180910390f35b610309610a01565b6040516103169190614d4a565b60405180910390f35b61033960048036038101906103349190613e8d565b610a0e565b005b610343610a6e565b6040516103509190614d4a565b60405180910390f35b610373600480360381019061036e9190613dff565b610a74565b6040516103809190614d4a565b60405180910390f35b6103a3600480360381019061039e9190613f93565b610a8c565b6040516103b09190614d4a565b60405180910390f35b6103c1610b31565b005b6103dd60048036038101906103d89190613e8d565b610bb7565b005b6103f960048036038101906103f4919061409e565b610bd7565b005b6104156004803603810190610410919061409e565b610c33565b6040516104229190614968565b60405180910390f35b6104456004803603810190610440919061409e565b610cd3565b6040516104529190614d4a565b60405180910390f35b6104756004803603810190610470919061409e565b610d6a565b005b61047f610df0565b60405161048c91906148a2565b60405180910390f35b6104af60048036038101906104aa919061409e565b610e07565b005b6104cb60048036038101906104c69190613dff565b610e8d565b005b6104d5610f4d565b6040516104e2919061475e565b60405180910390f35b6105056004803603810190610500919061409e565b610f73565b604051610512919061475e565b60405180910390f35b61053560048036038101906105309190613f93565b611025565b60405161054897969594939291906147a2565b60405180910390f35b61056b60048036038101906105669190613dff565b6111d1565b6040516105789190614d4a565b60405180910390f35b610589611289565b005b6105a560048036038101906105a09190613e28565b6113c3565b005b6105c160048036038101906105bc9190613dff565b61162e565b6040516105ce9190614d4a565b60405180910390f35b6105df611646565b005b6105e96116cc565b6040516105f6919061475e565b60405180910390f35b6106076116f5565b6040516106149190614968565b60405180910390f35b61063760048036038101906106329190613f57565b611787565b005b610653600480360381019061064e9190613edc565b611908565b005b61066f600480360381019061066a919061409e565b61196a565b60405161067c9190614968565b60405180910390f35b61069f600480360381019061069a91906140f0565b611a11565b6040516106ac91906148a2565b60405180910390f35b6106bd611f89565b6040516106ca9190614d4a565b60405180910390f35b6106ed60048036038101906106e89190613e51565b611f8f565b6040516106fa91906148a2565b60405180910390f35b61070b612023565b604051610718919061494d565b60405180910390f35b61073b60048036038101906107369190613dff565b612049565b005b6107456121f2565b6040516107529190614d4a565b60405180910390f35b6000610766826121f8565b9050919050565b60606006805461077c9061504c565b80601f01602080910402602001604051908101604052809291908181526020018280546107a89061504c565b80156107f55780601f106107ca576101008083540402835291602001916107f5565b820191906000526020600020905b8154815290600101906020018083116107d857829003601f168201915b5050505050905090565b600061080a82612272565b610849576040517f08c379a000000000000000000000000000000000000000000000000000000000815260040161084090614c4a565b60405180910390fd5b600a600083815260200190815260200160002060009054906101000a900473ffffffffffffffffffffffffffffffffffffffff169050919050565b600061088f82610f73565b90508073ffffffffffffffffffffffffffffffffffffffff168373ffffffffffffffffffffffffffffffffffffffff161415610900576040517f08c379a00000000000000000000000000000000000000000000000000000000081526004016108f790614cca565b60405180910390fd5b8073ffffffffffffffffffffffffffffffffffffffff1661091f6122de565b73ffffffffffffffffffffffffffffffffffffffff16148061094e575061094d816109486122de565b611f8f565b5b61098d576040517f08c379a000000000000000000000000000000000000000000000000000000000815260040161098490614b6a565b60405180910390fd5b61099783836122e6565b505050565b6000806109a9848461239f565b90506109b36116cc565b73ffffffffffffffffffffffffffffffffffffffff168173ffffffffffffffffffffffffffffffffffffffff16146109ef57600060e01b6109f8565b631626ba7e60e01b5b91505092915050565b6000600f80549050905090565b610a1f610a196122de565b82612469565b610a5e576040517f08c379a0000000000000000000000000000000000000000000000000000000008152600401610a5590614cea565b60405180910390fd5b610a69838383612547565b505050565b60135481565b60046020528060005260406000206000915090505481565b6000610a97836111d1565b8210610ad8576040517f08c379a0000000000000000000000000000000000000000000000000000000008152600401610acf90614a2a565b60405180910390fd5b600d60008473ffffffffffffffffffffffffffffffffffffffff1673ffffffffffffffffffffffffffffffffffffffff168152602001908152602001600020600083815260200190815260200160002054905092915050565b610b396122de565b73ffffffffffffffffffffffffffffffffffffffff16610b576116cc565b73ffffffffffffffffffffffffffffffffffffffff1614610bad576040517f08c379a0000000000000000000000000000000000000000000000000000000008152600401610ba490614c6a565b60405180910390fd5b610bb56127a3565b565b610bd283838360405180602001604052806000815250611908565b505050565b610be8610be26122de565b82612469565b610c27576040517f08c379a0000000000000000000000000000000000000000000000000000000008152600401610c1e90614d2a565b60405180910390fd5b610c3081612845565b50565b60166020528060005260406000206000915090508054610c529061504c565b80601f0160208091040260200160405190810160405280929190818152602001828054610c7e9061504c565b8015610ccb5780601f10610ca057610100808354040283529160200191610ccb565b820191906000526020600020905b815481529060010190602001808311610cae57829003601f168201915b505050505081565b6000610cdd610a01565b8210610d1e576040517f08c379a0000000000000000000000000000000000000000000000000000000008152600401610d1590614d0a565b60405180910390fd5b600f8281548110610d58577f4e487b7100000000000000000000000000000000000000000000000000000000600052603260045260246000fd5b90600052602060002001549050919050565b610d726122de565b73ffffffffffffffffffffffffffffffffffffffff16610d906116cc565b73ffffffffffffffffffffffffffffffffffffffff1614610de6576040517f08c379a0000000000000000000000000000000000000000000000000000000008152600401610ddd90614c6a565b60405180910390fd5b8060138190555050565b6000600c60009054906101000a900460ff16905090565b610e0f6122de565b73ffffffffffffffffffffffffffffffffffffffff16610e2d6116cc565b73ffffffffffffffffffffffffffffffffffffffff1614610e83576040517f08c379a0000000000000000000000000000000000000000000000000000000008152600401610e7a90614c6a565b60405180910390fd5b8060148190555050565b610e956122de565b73ffffffffffffffffffffffffffffffffffffffff16610eb36116cc565b73ffffffffffffffffffffffffffffffffffffffff1614610f09576040517f08c379a0000000000000000000000000000000000000000000000000000000008152600401610f0090614c6a565b60405180910390fd5b80601560006101000a81548173ffffffffffffffffffffffffffffffffffffffff021916908373ffffffffffffffffffffffffffffffffffffffff16021790555050565b601560009054906101000a900473ffffffffffffffffffffffffffffffffffffffff1681565b6000806008600084815260200190815260200160002060009054906101000a900473ffffffffffffffffffffffffffffffffffffffff169050600073ffffffffffffffffffffffffffffffffffffffff168173ffffffffffffffffffffffffffffffffffffffff16141561101c576040517f08c379a000000000000000000000000000000000000000000000000000000000815260040161101390614bca565b60405180910390fd5b80915050919050565b6005602052816000526040600020602052806000526040600020600091509150508060000160009054906101000a900473ffffffffffffffffffffffffffffffffffffffff16908060010160009054906101000a900473ffffffffffffffffffffffffffffffffffffffff16908060020180546110a19061504c565b80601f01602080910402602001604051908101604052809291908181526020018280546110cd9061504c565b801561111a5780601f106110ef5761010080835404028352916020019161111a565b820191906000526020600020905b8154815290600101906020018083116110fd57829003601f168201915b50505050509080600301805461112f9061504c565b80601f016020809104026020016040519081016040528092919081815260200182805461115b9061504c565b80156111a85780601f1061117d576101008083540402835291602001916111a8565b820191906000526020600020905b81548152906001019060200180831161118b57829003601f168201915b5050505050908060040154908060050160009054906101000a900460ff16908060060154905087565b60008073ffffffffffffffffffffffffffffffffffffffff168273ffffffffffffffffffffffffffffffffffffffff161415611242576040517f08c379a000000000000000000000000000000000000000000000000000000000815260040161123990614baa565b60405180910390fd5b600960008373ffffffffffffffffffffffffffffffffffffffff1673ffffffffffffffffffffffffffffffffffffffff168152602001908152602001600020549050919050565b6112916122de565b73ffffffffffffffffffffffffffffffffffffffff166112af6116cc565b73ffffffffffffffffffffffffffffffffffffffff1614611305576040517f08c379a00000000000000000000000000000000000000000000000000000000081526004016112fc90614c6a565b60405180910390fd5b600073ffffffffffffffffffffffffffffffffffffffff1660008054906101000a900473ffffffffffffffffffffffffffffffffffffffff1673ffffffffffffffffffffffffffffffffffffffff167f8be0079c531659141344cd1fd0a4f28419497f9722a3daafe3b4186f6b6457e060405160405180910390a360008060006101000a81548173ffffffffffffffffffffffffffffffffffffffff021916908373ffffffffffffffffffffffffffffffffffffffff160217905550565b6113cb6122de565b73ffffffffffffffffffffffffffffffffffffffff166113e96116cc565b73ffffffffffffffffffffffffffffffffffffffff161461143f576040517f08c379a000000000000000000000000000000000000000000000000000000000815260040161143690614c6a565b60405180910390fd5b6000601260009054906101000a900473ffffffffffffffffffffffffffffffffffffffff1673ffffffffffffffffffffffffffffffffffffffff166370a08231306040518263ffffffff1660e01b815260040161149c919061475e565b60206040518083038186803b1580156114b457600080fd5b505afa1580156114c8573d6000803e3d6000fd5b505050506040513d601f19601f820116820180604052508101906114ec91906140c7565b9050601260009054906101000a900473ffffffffffffffffffffffffffffffffffffffff1673ffffffffffffffffffffffffffffffffffffffff1663a9059cbb83836040518363ffffffff1660e01b815260040161154b929190614779565b602060405180830381600087803b15801561156557600080fd5b505af1158015611579573d6000803e3d6000fd5b505050506040513d601f19601f8201168201806040525081019061159d9190613fcf565b6115dc576040517f08c379a00000000000000000000000000000000000000000000000000000000081526004016115d390614b8a565b60405180910390fd5b8173ffffffffffffffffffffffffffffffffffffffff167f7084f5476618d8e60b11ef0d7d3f06914655adb8793e28ff7f018d4c76d505d5826040516116229190614d4a565b60405180910390a25050565b60036020528060005260406000206000915090505481565b61164e6122de565b73ffffffffffffffffffffffffffffffffffffffff1661166c6116cc565b73ffffffffffffffffffffffffffffffffffffffff16146116c2576040517f08c379a00000000000000000000000000000000000000000000000000000000081526004016116b990614c6a565b60405180910390fd5b6116ca612956565b565b60008060009054906101000a900473ffffffffffffffffffffffffffffffffffffffff16905090565b6060600780546117049061504c565b80601f01602080910402602001604051908101604052809291908181526020018280546117309061504c565b801561177d5780601f106117525761010080835404028352916020019161177d565b820191906000526020600020905b81548152906001019060200180831161176057829003601f168201915b5050505050905090565b61178f6122de565b73ffffffffffffffffffffffffffffffffffffffff168273ffffffffffffffffffffffffffffffffffffffff1614156117fd576040517f08c379a00000000000000000000000000000000000000000000000000000000081526004016117f490614aca565b60405180910390fd5b80600b600061180a6122de565b73ffffffffffffffffffffffffffffffffffffffff1673ffffffffffffffffffffffffffffffffffffffff16815260200190815260200160002060008473ffffffffffffffffffffffffffffffffffffffff1673ffffffffffffffffffffffffffffffffffffffff16815260200190815260200160002060006101000a81548160ff0219169083151502179055508173ffffffffffffffffffffffffffffffffffffffff166118b76122de565b73ffffffffffffffffffffffffffffffffffffffff167f17307eab39ab6107e8899845ad3d59bd9653f200f220920489ca2b5937696c31836040516118fc91906148a2565b60405180910390a35050565b6119196119136122de565b83612469565b611958576040517f08c379a000000000000000000000000000000000000000000000000000000000815260040161194f90614cea565b60405180910390fd5b611964848484846129f9565b50505050565b606061197582612272565b6119b4576040517f08c379a00000000000000000000000000000000000000000000000000000000081526004016119ab90614caa565b60405180910390fd5b60006119be612a55565b905060008151116119de5760405180602001604052806000815250611a09565b806119e884612a6c565b6040516020016119f992919061473a565b6040516020818303038152906040525b915050919050565b60006014881115611a57576040517f08c379a0000000000000000000000000000000000000000000000000000000008152600401611a4e90614b4a565b60405180910390fd5b6000881415611a9b576040517f08c379a0000000000000000000000000000000000000000000000000000000008152600401611a9290614bea565b60405180910390fd5b60016000815480929190611aae906150af565b9190505550600260003373ffffffffffffffffffffffffffffffffffffffff1673ffffffffffffffffffffffffffffffffffffffff16815260200190815260200160002060030160019054906101000a900460ff16611c4e576040518060a001604052808481526020013373ffffffffffffffffffffffffffffffffffffffff16815260200183815260200160001515815260200160011515815250600260003373ffffffffffffffffffffffffffffffffffffffff1673ffffffffffffffffffffffffffffffffffffffff1681526020019081526020016000206000820151816000019080519060200190611ba5929190613b49565b5060208201518160010160006101000a81548173ffffffffffffffffffffffffffffffffffffffff021916908373ffffffffffffffffffffffffffffffffffffffff1602179055506040820151816002019080519060200190611c09929190613b49565b5060608201518160030160006101000a81548160ff02191690831515021790555060808201518160030160016101000a81548160ff0219169083151502179055509050505b6000600460003373ffffffffffffffffffffffffffffffffffffffff1673ffffffffffffffffffffffffffffffffffffffff1681526020019081526020016000205490506040518060e001604052803373ffffffffffffffffffffffffffffffffffffffff1681526020018973ffffffffffffffffffffffffffffffffffffffff16815260200188815260200187815260200160016002811115611d1b577f4e487b7100000000000000000000000000000000000000000000000000000000600052602160045260246000fd5b815260200186151581526020018a815250600560003373ffffffffffffffffffffffffffffffffffffffff1673ffffffffffffffffffffffffffffffffffffffff168152602001908152602001600020600083815260200190815260200160002060008201518160000160006101000a81548173ffffffffffffffffffffffffffffffffffffffff021916908373ffffffffffffffffffffffffffffffffffffffff16021790555060208201518160010160006101000a81548173ffffffffffffffffffffffffffffffffffffffff021916908373ffffffffffffffffffffffffffffffffffffffff1602179055506040820151816002019080519060200190611e26929190613b49565b506060820151816003019080519060200190611e43929190613bcf565b506080820151816004015560a08201518160050160006101000a81548160ff02191690831515021790555060c08201518160060155905050600460003373ffffffffffffffffffffffffffffffffffffffff1673ffffffffffffffffffffffffffffffffffffffff1681526020019081526020016000206000815480929190611ecb906150af565b919050555086604051611ede9190614723565b60405180910390203373ffffffffffffffffffffffffffffffffffffffff167f9042e5647d6e4922998cda262eb9ec97928c51e4f01aa8bfbddf71bc231c7b668884604051611f2e92919061491d565b60405180910390a360005b89811015611f7857611f4b6011612c19565b6000611f576011612c2f565b9050611f648a828a612c3d565b508080611f70906150af565b915050611f39565b506001915050979650505050505050565b60145481565b6000600b60008473ffffffffffffffffffffffffffffffffffffffff1673ffffffffffffffffffffffffffffffffffffffff16815260200190815260200160002060008373ffffffffffffffffffffffffffffffffffffffff1673ffffffffffffffffffffffffffffffffffffffff16815260200190815260200160002060009054906101000a900460ff16905092915050565b601260009054906101000a900473ffffffffffffffffffffffffffffffffffffffff1681565b6120516122de565b73ffffffffffffffffffffffffffffffffffffffff1661206f6116cc565b73ffffffffffffffffffffffffffffffffffffffff16146120c5576040517f08c379a00000000000000000000000000000000000000000000000000000000081526004016120bc90614c6a565b60405180910390fd5b600073ffffffffffffffffffffffffffffffffffffffff168173ffffffffffffffffffffffffffffffffffffffff161415612135576040517f08c379a000000000000000000000000000000000000000000000000000000000815260040161212c90614a6a565b60405180910390fd5b8073ffffffffffffffffffffffffffffffffffffffff1660008054906101000a900473ffffffffffffffffffffffffffffffffffffffff1673ffffffffffffffffffffffffffffffffffffffff167f8be0079c531659141344cd1fd0a4f28419497f9722a3daafe3b4186f6b6457e060405160405180910390a3806000806101000a81548173ffffffffffffffffffffffffffffffffffffffff021916908373ffffffffffffffffffffffffffffffffffffffff16021790555050565b60015481565b60007f780e9d63000000000000000000000000000000000000000000000000000000007bffffffffffffffffffffffffffffffffffffffffffffffffffffffff1916827bffffffffffffffffffffffffffffffffffffffffffffffffffffffff1916148061226b575061226a82612c98565b5b9050919050565b60008073ffffffffffffffffffffffffffffffffffffffff166008600084815260200190815260200160002060009054906101000a900473ffffffffffffffffffffffffffffffffffffffff1673ffffffffffffffffffffffffffffffffffffffff1614159050919050565b600033905090565b81600a600083815260200190815260200160002060006101000a81548173ffffffffffffffffffffffffffffffffffffffff021916908373ffffffffffffffffffffffffffffffffffffffff160217905550808273ffffffffffffffffffffffffffffffffffffffff1661235983610f73565b73ffffffffffffffffffffffffffffffffffffffff167f8c5be1e5ebec7d5bd14f71427d1e84f3dd0314c0f7b2291e5b200ac8c7c3b92560405160405180910390a45050565b6000806000806041855114156123cc576020850151925060408501519150606085015160001a9050612452565b604085511415612416576040850151602086015193507f7fffffffffffffffffffffffffffffffffffffffffffffffffffffffffffffff81169250601b8160ff1c01915050612451565b6040517f08c379a000000000000000000000000000000000000000000000000000000000815260040161244890614a0a565b60405180910390fd5b5b61245e86828585612d7a565b935050505092915050565b600061247482612272565b6124b3576040517f08c379a00000000000000000000000000000000000000000000000000000000081526004016124aa90614b0a565b60405180910390fd5b60006124be83610f73565b90508073ffffffffffffffffffffffffffffffffffffffff168473ffffffffffffffffffffffffffffffffffffffff16148061252d57508373ffffffffffffffffffffffffffffffffffffffff16612515846107ff565b73ffffffffffffffffffffffffffffffffffffffff16145b8061253e575061253d8185611f8f565b5b91505092915050565b8273ffffffffffffffffffffffffffffffffffffffff1661256782610f73565b73ffffffffffffffffffffffffffffffffffffffff16146125bd576040517f08c379a00000000000000000000000000000000000000000000000000000000081526004016125b490614c8a565b60405180910390fd5b600073ffffffffffffffffffffffffffffffffffffffff168273ffffffffffffffffffffffffffffffffffffffff16141561262d576040517f08c379a000000000000000000000000000000000000000000000000000000000815260040161262490614aaa565b60405180910390fd5b612638838383612f05565b6126436000826122e6565b6001600960008573ffffffffffffffffffffffffffffffffffffffff1673ffffffffffffffffffffffffffffffffffffffff16815260200190815260200160002060008282546126939190614edf565b925050819055506001600960008473ffffffffffffffffffffffffffffffffffffffff1673ffffffffffffffffffffffffffffffffffffffff16815260200190815260200160002060008282546126ea9190614e58565b92505081905550816008600083815260200190815260200160002060006101000a81548173ffffffffffffffffffffffffffffffffffffffff021916908373ffffffffffffffffffffffffffffffffffffffff160217905550808273ffffffffffffffffffffffffffffffffffffffff168473ffffffffffffffffffffffffffffffffffffffff167fddf252ad1be2c89b69c2b068fc378daa952ba7f163c4a11628f55a4df523b3ef60405160405180910390a4505050565b6127ab610df0565b6127ea576040517f08c379a00000000000000000000000000000000000000000000000000000000081526004016127e1906149ca565b60405180910390fd5b6000600c60006101000a81548160ff0219169083151502179055507f5db9ee0a495bf2e6ff9c91a7834c1ba4fdd244a5e8aa4e537bd38aeae4b073aa61282e6122de565b60405161283b919061475e565b60405180910390a1565b600061285082610f73565b905061285e81600084612f05565b6128696000836122e6565b6001600960008373ffffffffffffffffffffffffffffffffffffffff1673ffffffffffffffffffffffffffffffffffffffff16815260200190815260200160002060008282546128b99190614edf565b925050819055506008600083815260200190815260200160002060006101000a81549073ffffffffffffffffffffffffffffffffffffffff021916905581600073ffffffffffffffffffffffffffffffffffffffff168273ffffffffffffffffffffffffffffffffffffffff167fddf252ad1be2c89b69c2b068fc378daa952ba7f163c4a11628f55a4df523b3ef60405160405180910390a45050565b61295e610df0565b1561299e576040517f08c379a000000000000000000000000000000000000000000000000000000000815260040161299590614b2a565b60405180910390fd5b6001600c60006101000a81548160ff0219169083151502179055507f62e78cea01bee320cd4e420270b5ea74000d11b0c9f74754ebdbfc544b05a2586129e26122de565b6040516129ef919061475e565b60405180910390a1565b612a04848484612547565b612a1084848484612f54565b612a4f576040517f08c379a0000000000000000000000000000000000000000000000000000000008152600401612a4690614a4a565b60405180910390fd5b50505050565b606060405180602001604052806000815250905090565b60606000821415612ab4576040518060400160405280600181526020017f30000000000000000000000000000000000000000000000000000000000000008152509050612c14565b600082905060005b60008214612ae6578080612acf906150af565b915050600a82612adf9190614eae565b9150612abc565b60008167ffffffffffffffff811115612b28577f4e487b7100000000000000000000000000000000000000000000000000000000600052604160045260246000fd5b6040519080825280601f01601f191660200182016040528015612b5a5781602001600182028036833780820191505090505b5090505b60008514612c0d57600182612b739190614edf565b9150600a85612b8291906150f8565b6030612b8e9190614e58565b60f81b818381518110612bca577f4e487b7100000000000000000000000000000000000000000000000000000000600052603260045260246000fd5b60200101907effffffffffffffffffffffffffffffffffffffffffffffffffffffffffffff1916908160001a905350600a85612c069190614eae565b9450612b5e565b8093505050505b919050565b6001816000016000828254019250508190555050565b600081600001549050919050565b612c4783836130eb565b612c546000848484612f54565b612c93576040517f08c379a0000000000000000000000000000000000000000000000000000000008152600401612c8a90614a4a565b60405180910390fd5b505050565b60007f80ac58cd000000000000000000000000000000000000000000000000000000007bffffffffffffffffffffffffffffffffffffffffffffffffffffffff1916827bffffffffffffffffffffffffffffffffffffffffffffffffffffffff19161480612d6357507f5b5e139f000000000000000000000000000000000000000000000000000000007bffffffffffffffffffffffffffffffffffffffffffffffffffffffff1916827bffffffffffffffffffffffffffffffffffffffffffffffffffffffff1916145b80612d735750612d72826132b9565b5b9050919050565b60007f7fffffffffffffffffffffffffffffff5d576e7357a4501ddfe92f46681b20a08260001c1115612de2576040517f08c379a0000000000000000000000000000000000000000000000000000000008152600401612dd990614aea565b60405180910390fd5b601b8460ff161480612df75750601c8460ff16145b612e36576040517f08c379a0000000000000000000000000000000000000000000000000000000008152600401612e2d90614c0a565b60405180910390fd5b600060018686868660405160008152602001604052604051612e5b94939291906148bd565b6020604051602081039080840390855afa158015612e7d573d6000803e3d6000fd5b505050602060405103519050600073ffffffffffffffffffffffffffffffffffffffff168173ffffffffffffffffffffffffffffffffffffffff161415612ef9576040517f08c379a0000000000000000000000000000000000000000000000000000000008152600401612ef09061498a565b60405180910390fd5b80915050949350505050565b600073ffffffffffffffffffffffffffffffffffffffff168273ffffffffffffffffffffffffffffffffffffffff1614612f4457612f438382613323565b5b612f4f83838361364d565b505050565b6000612f758473ffffffffffffffffffffffffffffffffffffffff16613761565b156130de578373ffffffffffffffffffffffffffffffffffffffff1663150b7a02612f9e6122de565b8786866040518563ffffffff1660e01b8152600401612fc09493929190614856565b602060405180830381600087803b158015612fda57600080fd5b505af192505050801561300b57506040513d601f19601f820116820180604052508101906130089190614075565b60015b61308e573d806000811461303b576040519150601f19603f3d011682016040523d82523d6000602084013e613040565b606091505b50600081511415613086576040517f08c379a000000000000000000000000000000000000000000000000000000000815260040161307d90614a4a565b60405180910390fd5b805181602001fd5b63150b7a0260e01b7bffffffffffffffffffffffffffffffffffffffffffffffffffffffff1916817bffffffffffffffffffffffffffffffffffffffffffffffffffffffff1916149150506130e3565b600190505b949350505050565b600073ffffffffffffffffffffffffffffffffffffffff168273ffffffffffffffffffffffffffffffffffffffff16141561315b576040517f08c379a000000000000000000000000000000000000000000000000000000000815260040161315290614c2a565b60405180910390fd5b61316481612272565b156131a4576040517f08c379a000000000000000000000000000000000000000000000000000000000815260040161319b90614a8a565b60405180910390fd5b6131b060008383612f05565b6001600960008473ffffffffffffffffffffffffffffffffffffffff1673ffffffffffffffffffffffffffffffffffffffff16815260200190815260200160002060008282546132009190614e58565b92505081905550816008600083815260200190815260200160002060006101000a81548173ffffffffffffffffffffffffffffffffffffffff021916908373ffffffffffffffffffffffffffffffffffffffff160217905550808273ffffffffffffffffffffffffffffffffffffffff16600073ffffffffffffffffffffffffffffffffffffffff167fddf252ad1be2c89b69c2b068fc378daa952ba7f163c4a11628f55a4df523b3ef60405160405180910390a45050565b60007f01ffc9a7000000000000000000000000000000000000000000000000000000007bffffffffffffffffffffffffffffffffffffffffffffffffffffffff1916827bffffffffffffffffffffffffffffffffffffffffffffffffffffffff1916149050919050565b600073ffffffffffffffffffffffffffffffffffffffff16601560009054906101000a900473ffffffffffffffffffffffffffffffffffffffff1673ffffffffffffffffffffffffffffffffffffffff1614156133b5576040517f08c379a00000000000000000000000000000000000000000000000000000000081526004016133ac906149ea565b60405180910390fd5b601260009054906101000a900473ffffffffffffffffffffffffffffffffffffffff1673ffffffffffffffffffffffffffffffffffffffff166323b872dd83306014546040518463ffffffff1660e01b81526004016134169392919061481f565b602060405180830381600087803b15801561343057600080fd5b505af1158015613444573d6000803e3d6000fd5b505050506040513d601f19601f820116820180604052508101906134689190613fcf565b6134a7576040517f08c379a000000000000000000000000000000000000000000000000000000000815260040161349e90614b8a565b60405180910390fd5b601260009054906101000a900473ffffffffffffffffffffffffffffffffffffffff1673ffffffffffffffffffffffffffffffffffffffff166323b872dd83601560009054906101000a900473ffffffffffffffffffffffffffffffffffffffff166013546040518463ffffffff1660e01b815260040161352a9392919061481f565b602060405180830381600087803b15801561354457600080fd5b505af1158015613558573d6000803e3d6000fd5b505050506040513d601f19601f8201168201806040525081019061357c9190613fcf565b6135bb576040517f08c379a00000000000000000000000000000000000000000000000000000000081526004016135b290614b8a565b60405180910390fd5b601560009054906101000a900473ffffffffffffffffffffffffffffffffffffffff1673ffffffffffffffffffffffffffffffffffffffff168273ffffffffffffffffffffffffffffffffffffffff16827fbe88f4b50295cd4ba6297b8faffa2e54364bd9520682ecdfa7ac6f44b931e994601454601354604051613641929190614d65565b60405180910390a45050565b613658838383613774565b600073ffffffffffffffffffffffffffffffffffffffff168373ffffffffffffffffffffffffffffffffffffffff16141561369b57613696816137cc565b6136da565b8173ffffffffffffffffffffffffffffffffffffffff168373ffffffffffffffffffffffffffffffffffffffff16146136d9576136d88382613815565b5b5b600073ffffffffffffffffffffffffffffffffffffffff168273ffffffffffffffffffffffffffffffffffffffff16141561371d5761371881613982565b61375c565b8273ffffffffffffffffffffffffffffffffffffffff168273ffffffffffffffffffffffffffffffffffffffff161461375b5761375a8282613ac5565b5b5b505050565b600080823b905060008111915050919050565b61377f838383613b44565b613787610df0565b156137c7576040517f08c379a00000000000000000000000000000000000000000000000000000000081526004016137be906149aa565b60405180910390fd5b505050565b600f805490506010600083815260200190815260200160002081905550600f81908060018154018082558091505060019003906000526020600020016000909190919091505550565b60006001613822846111d1565b61382c9190614edf565b90506000600e6000848152602001908152602001600020549050818114613911576000600d60008673ffffffffffffffffffffffffffffffffffffffff1673ffffffffffffffffffffffffffffffffffffffff168152602001908152602001600020600084815260200190815260200160002054905080600d60008773ffffffffffffffffffffffffffffffffffffffff1673ffffffffffffffffffffffffffffffffffffffff16815260200190815260200160002060008481526020019081526020016000208190555081600e600083815260200190815260200160002081905550505b600e600084815260200190815260200160002060009055600d60008573ffffffffffffffffffffffffffffffffffffffff1673ffffffffffffffffffffffffffffffffffffffff16815260200190815260200160002060008381526020019081526020016000206000905550505050565b60006001600f805490506139969190614edf565b90506000601060008481526020019081526020016000205490506000600f83815481106139ec577f4e487b7100000000000000000000000000000000000000000000000000000000600052603260045260246000fd5b9060005260206000200154905080600f8381548110613a34577f4e487b7100000000000000000000000000000000000000000000000000000000600052603260045260246000fd5b90600052602060002001819055508160106000838152602001908152602001600020819055506010600085815260200190815260200160002060009055600f805480613aa9577f4e487b7100000000000000000000000000000000000000000000000000000000600052603160045260246000fd5b6001900381819060005260206000200160009055905550505050565b6000613ad0836111d1565b905081600d60008573ffffffffffffffffffffffffffffffffffffffff1673ffffffffffffffffffffffffffffffffffffffff16815260200190815260200160002060008381526020019081526020016000208190555080600e600084815260200190815260200160002081905550505050565b505050565b828054613b559061504c565b90600052602060002090601f016020900481019282613b775760008555613bbe565b82601f10613b9057805160ff1916838001178555613bbe565b82800160010185558215613bbe579182015b82811115613bbd578251825591602001919060010190613ba2565b5b509050613bcb9190613c55565b5090565b828054613bdb9061504c565b90600052602060002090601f016020900481019282613bfd5760008555613c44565b82601f10613c1657805160ff1916838001178555613c44565b82800160010185558215613c44579182015b82811115613c43578251825591602001919060010190613c28565b5b509050613c519190613c55565b5090565b5b80821115613c6e576000816000905550600101613c56565b5090565b6000613c85613c8084614db3565b614d8e565b905082815260208101848484011115613c9d57600080fd5b613ca884828561500a565b509392505050565b6000613cc3613cbe84614de4565b614d8e565b905082815260208101848484011115613cdb57600080fd5b613ce684828561500a565b509392505050565b600081359050613cfd81615996565b92915050565b600081359050613d12816159ad565b92915050565b600081359050613d27816159c4565b92915050565b600081519050613d3c816159c4565b92915050565b600081359050613d51816159db565b92915050565b600081359050613d66816159f2565b92915050565b600081519050613d7b816159f2565b92915050565b600082601f830112613d9257600080fd5b8135613da2848260208601613c72565b91505092915050565b600082601f830112613dbc57600080fd5b8135613dcc848260208601613cb0565b91505092915050565b600081359050613de481615a09565b92915050565b600081519050613df981615a09565b92915050565b600060208284031215613e1157600080fd5b6000613e1f84828501613cee565b91505092915050565b600060208284031215613e3a57600080fd5b6000613e4884828501613d03565b91505092915050565b60008060408385031215613e6457600080fd5b6000613e7285828601613cee565b9250506020613e8385828601613cee565b9150509250929050565b600080600060608486031215613ea257600080fd5b6000613eb086828701613cee565b9350506020613ec186828701613cee565b9250506040613ed286828701613dd5565b9150509250925092565b60008060008060808587031215613ef257600080fd5b6000613f0087828801613cee565b9450506020613f1187828801613cee565b9350506040613f2287828801613dd5565b925050606085013567ffffffffffffffff811115613f3f57600080fd5b613f4b87828801613d81565b91505092959194509250565b60008060408385031215613f6a57600080fd5b6000613f7885828601613cee565b9250506020613f8985828601613d18565b9150509250929050565b60008060408385031215613fa657600080fd5b6000613fb485828601613cee565b9250506020613fc585828601613dd5565b9150509250929050565b600060208284031215613fe157600080fd5b6000613fef84828501613d2d565b91505092915050565b6000806040838503121561400b57600080fd5b600061401985828601613d42565b925050602083013567ffffffffffffffff81111561403657600080fd5b61404285828601613d81565b9150509250929050565b60006020828403121561405e57600080fd5b600061406c84828501613d57565b91505092915050565b60006020828403121561408757600080fd5b600061409584828501613d6c565b91505092915050565b6000602082840312156140b057600080fd5b60006140be84828501613dd5565b91505092915050565b6000602082840312156140d957600080fd5b60006140e784828501613dea565b91505092915050565b600080600080600080600060e0888a03121561410b57600080fd5b60006141198a828b01613dd5565b975050602061412a8a828b01613cee565b965050604088013567ffffffffffffffff81111561414757600080fd5b6141538a828b01613dab565b955050606088013567ffffffffffffffff81111561417057600080fd5b61417c8a828b01613d81565b945050608061418d8a828b01613d18565b93505060a088013567ffffffffffffffff8111156141aa57600080fd5b6141b68a828b01613dab565b92505060c088013567ffffffffffffffff8111156141d357600080fd5b6141df8a828b01613dab565b91505092959891949750929550565b6141f781614fb0565b82525050565b61420681614f13565b82525050565b61421581614f37565b82525050565b61422481614f43565b82525050565b61423381614f4d565b82525050565b600061424482614e15565b61424e8185614e2b565b935061425e818560208601615019565b614267816151e5565b840191505092915050565b61427b81614fc2565b82525050565b600061428c82614e20565b6142968185614e3c565b93506142a6818560208601615019565b6142af816151e5565b840191505092915050565b60006142c582614e20565b6142cf8185614e4d565b93506142df818560208601615019565b80840191505092915050565b60006142f8601883614e3c565b9150614303826151f6565b602082019050919050565b600061431b602b83614e3c565b91506143268261521f565b604082019050919050565b600061433e601483614e3c565b91506143498261526e565b602082019050919050565b6000614361602183614e3c565b915061436c82615297565b604082019050919050565b6000614384601f83614e3c565b915061438f826152e6565b602082019050919050565b60006143a7602b83614e3c565b91506143b28261530f565b604082019050919050565b60006143ca603283614e3c565b91506143d58261535e565b604082019050919050565b60006143ed602683614e3c565b91506143f8826153ad565b604082019050919050565b6000614410601c83614e3c565b915061441b826153fc565b602082019050919050565b6000614433602483614e3c565b915061443e82615425565b604082019050919050565b6000614456601983614e3c565b915061446182615474565b602082019050919050565b6000614479602283614e3c565b91506144848261549d565b604082019050919050565b600061449c602c83614e3c565b91506144a7826154ec565b604082019050919050565b60006144bf601083614e3c565b91506144ca8261553b565b602082019050919050565b60006144e2601b83614e3c565b91506144ed82615564565b602082019050919050565b6000614505603883614e3c565b91506145108261558d565b604082019050919050565b6000614528601583614e3c565b9150614533826155dc565b602082019050919050565b600061454b602a83614e3c565b915061455682615605565b604082019050919050565b600061456e602983614e3c565b915061457982615654565b604082019050919050565b6000614591601683614e3c565b915061459c826156a3565b602082019050919050565b60006145b4602283614e3c565b91506145bf826156cc565b604082019050919050565b60006145d7602083614e3c565b91506145e28261571b565b602082019050919050565b60006145fa602c83614e3c565b915061460582615744565b604082019050919050565b600061461d602083614e3c565b915061462882615793565b602082019050919050565b6000614640602983614e3c565b915061464b826157bc565b604082019050919050565b6000614663602f83614e3c565b915061466e8261580b565b604082019050919050565b6000614686602183614e3c565b91506146918261585a565b604082019050919050565b60006146a9603183614e3c565b91506146b4826158a9565b604082019050919050565b60006146cc602c83614e3c565b91506146d7826158f8565b604082019050919050565b60006146ef603083614e3c565b91506146fa82615947565b604082019050919050565b61470e81614f99565b82525050565b61471d81614fa3565b82525050565b600061472f82846142ba565b915081905092915050565b600061474682856142ba565b915061475282846142ba565b91508190509392505050565b600060208201905061477360008301846141fd565b92915050565b600060408201905061478e60008301856141ee565b61479b6020830184614705565b9392505050565b600060e0820190506147b7600083018a6141fd565b6147c460208301896141fd565b81810360408301526147d68188614281565b905081810360608301526147ea8187614239565b90506147f96080830186614705565b61480660a083018561420c565b61481360c0830184614705565b98975050505050505050565b600060608201905061483460008301866141fd565b61484160208301856141fd565b61484e6040830184614705565b949350505050565b600060808201905061486b60008301876141fd565b61487860208301866141fd565b6148856040830185614705565b81810360608301526148978184614239565b905095945050505050565b60006020820190506148b7600083018461420c565b92915050565b60006080820190506148d2600083018761421b565b6148df6020830186614714565b6148ec604083018561421b565b6148f9606083018461421b565b95945050505050565b6000602082019050614917600083018461422a565b92915050565b600060408201905081810360008301526149378185614239565b90506149466020830184614705565b9392505050565b60006020820190506149626000830184614272565b92915050565b600060208201905081810360008301526149828184614281565b905092915050565b600060208201905081810360008301526149a3816142eb565b9050919050565b600060208201905081810360008301526149c38161430e565b9050919050565b600060208201905081810360008301526149e381614331565b9050919050565b60006020820190508181036000830152614a0381614354565b9050919050565b60006020820190508181036000830152614a2381614377565b9050919050565b60006020820190508181036000830152614a438161439a565b9050919050565b60006020820190508181036000830152614a63816143bd565b9050919050565b60006020820190508181036000830152614a83816143e0565b9050919050565b60006020820190508181036000830152614aa381614403565b9050919050565b60006020820190508181036000830152614ac381614426565b9050919050565b60006020820190508181036000830152614ae381614449565b9050919050565b60006020820190508181036000830152614b038161446c565b9050919050565b60006020820190508181036000830152614b238161448f565b9050919050565b60006020820190508181036000830152614b43816144b2565b9050919050565b60006020820190508181036000830152614b63816144d5565b9050919050565b60006020820190508181036000830152614b83816144f8565b9050919050565b60006020820190508181036000830152614ba38161451b565b9050919050565b60006020820190508181036000830152614bc38161453e565b9050919050565b60006020820190508181036000830152614be381614561565b9050919050565b60006020820190508181036000830152614c0381614584565b9050919050565b60006020820190508181036000830152614c23816145a7565b9050919050565b60006020820190508181036000830152614c43816145ca565b9050919050565b60006020820190508181036000830152614c63816145ed565b9050919050565b60006020820190508181036000830152614c8381614610565b9050919050565b60006020820190508181036000830152614ca381614633565b9050919050565b60006020820190508181036000830152614cc381614656565b9050919050565b60006020820190508181036000830152614ce381614679565b9050919050565b60006020820190508181036000830152614d038161469c565b9050919050565b60006020820190508181036000830152614d23816146bf565b9050919050565b60006020820190508181036000830152614d43816146e2565b9050919050565b6000602082019050614d5f6000830184614705565b92915050565b6000604082019050614d7a6000830185614705565b614d876020830184614705565b9392505050565b6000614d98614da9565b9050614da4828261507e565b919050565b6000604051905090565b600067ffffffffffffffff821115614dce57614dcd6151b6565b5b614dd7826151e5565b9050602081019050919050565b600067ffffffffffffffff821115614dff57614dfe6151b6565b5b614e08826151e5565b9050602081019050919050565b600081519050919050565b600081519050919050565b600082825260208201905092915050565b600082825260208201905092915050565b600081905092915050565b6000614e6382614f99565b9150614e6e83614f99565b9250827fffffffffffffffffffffffffffffffffffffffffffffffffffffffffffffffff03821115614ea357614ea2615129565b5b828201905092915050565b6000614eb982614f99565b9150614ec483614f99565b925082614ed457614ed3615158565b5b828204905092915050565b6000614eea82614f99565b9150614ef583614f99565b925082821015614f0857614f07615129565b5b828203905092915050565b6000614f1e82614f79565b9050919050565b6000614f3082614f79565b9050919050565b60008115159050919050565b6000819050919050565b60007fffffffff0000000000000000000000000000000000000000000000000000000082169050919050565b600073ffffffffffffffffffffffffffffffffffffffff82169050919050565b6000819050919050565b600060ff82169050919050565b6000614fbb82614fe6565b9050919050565b6000614fcd82614fd4565b9050919050565b6000614fdf82614f79565b9050919050565b6000614ff182614ff8565b9050919050565b600061500382614f79565b9050919050565b82818337600083830152505050565b60005b8381101561503757808201518184015260208101905061501c565b83811115615046576000848401525b50505050565b6000600282049050600182168061506457607f821691505b6020821081141561507857615077615187565b5b50919050565b615087826151e5565b810181811067ffffffffffffffff821117156150a6576150a56151b6565b5b80604052505050565b60006150ba82614f99565b91507fffffffffffffffffffffffffffffffffffffffffffffffffffffffffffffffff8214156150ed576150ec615129565b5b600182019050919050565b600061510382614f99565b915061510e83614f99565b92508261511e5761511d615158565b5b828206905092915050565b7f4e487b7100000000000000000000000000000000000000000000000000000000600052601160045260246000fd5b7f4e487b7100000000000000000000000000000000000000000000000000000000600052601260045260246000fd5b7f4e487b7100000000000000000000000000000000000000000000000000000000600052602260045260246000fd5b7f4e487b7100000000000000000000000000000000000000000000000000000000600052604160045260246000fd5b6000601f19601f8301169050919050565b7f45434453413a20696e76616c6964207369676e61747572650000000000000000600082015250565b7f4552433732315061757361626c653a20746f6b656e207472616e73666572207760008201527f68696c6520706175736564000000000000000000000000000000000000000000602082015250565b7f5061757361626c653a206e6f7420706175736564000000000000000000000000600082015250565b7f4b4c49503a204d75737420686176652061207061796d656e742061646472657360008201527f7300000000000000000000000000000000000000000000000000000000000000602082015250565b7f45434453413a20696e76616c6964207369676e6174757265206c656e67746800600082015250565b7f455243373231456e756d657261626c653a206f776e657220696e646578206f7560008201527f74206f6620626f756e6473000000000000000000000000000000000000000000602082015250565b7f4552433732313a207472616e7366657220746f206e6f6e20455243373231526560008201527f63656976657220696d706c656d656e7465720000000000000000000000000000602082015250565b7f4f776e61626c653a206e6577206f776e657220697320746865207a65726f206160008201527f6464726573730000000000000000000000000000000000000000000000000000602082015250565b7f4552433732313a20746f6b656e20616c7265616479206d696e74656400000000600082015250565b7f4552433732313a207472616e7366657220746f20746865207a65726f2061646460008201527f7265737300000000000000000000000000000000000000000000000000000000602082015250565b7f4552433732313a20617070726f766520746f2063616c6c657200000000000000600082015250565b7f45434453413a20696e76616c6964207369676e6174757265202773272076616c60008201527f7565000000000000000000000000000000000000000000000000000000000000602082015250565b7f4552433732313a206f70657261746f7220717565727920666f72206e6f6e657860008201527f697374656e7420746f6b656e0000000000000000000000000000000000000000602082015250565b7f5061757361626c653a2070617573656400000000000000000000000000000000600082015250565b7f5175616e74697479206d757374206265203230206f72206c6573730000000000600082015250565b7f4552433732313a20617070726f76652063616c6c6572206973206e6f74206f7760008201527f6e6572206e6f7220617070726f76656420666f7220616c6c0000000000000000602082015250565b7f4b4c49503a205472616e73666572206661696c65640000000000000000000000600082015250565b7f4552433732313a2062616c616e636520717565727920666f7220746865207a6560008201527f726f206164647265737300000000000000000000000000000000000000000000602082015250565b7f4552433732313a206f776e657220717565727920666f72206e6f6e657869737460008201527f656e7420746f6b656e0000000000000000000000000000000000000000000000602082015250565b7f5175616e74697479206d757374206e6f74206265203000000000000000000000600082015250565b7f45434453413a20696e76616c6964207369676e6174757265202776272076616c60008201527f7565000000000000000000000000000000000000000000000000000000000000602082015250565b7f4552433732313a206d696e7420746f20746865207a65726f2061646472657373600082015250565b7f4552433732313a20617070726f76656420717565727920666f72206e6f6e657860008201527f697374656e7420746f6b656e0000000000000000000000000000000000000000602082015250565b7f4f776e61626c653a2063616c6c6572206973206e6f7420746865206f776e6572600082015250565b7f4552433732313a207472616e73666572206f6620746f6b656e2074686174206960008201527f73206e6f74206f776e0000000000000000000000000000000000000000000000602082015250565b7f4552433732314d657461646174613a2055524920717565727920666f72206e6f60008201527f6e6578697374656e7420746f6b656e0000000000000000000000000000000000602082015250565b7f4552433732313a20617070726f76616c20746f2063757272656e74206f776e6560008201527f7200000000000000000000000000000000000000000000000000000000000000602082015250565b7f4552433732313a207472616e736665722063616c6c6572206973206e6f74206f60008201527f776e6572206e6f7220617070726f766564000000000000000000000000000000602082015250565b7f455243373231456e756d657261626c653a20676c6f62616c20696e646578206f60008201527f7574206f6620626f756e64730000000000000000000000000000000000000000602082015250565b7f4552433732314275726e61626c653a2063616c6c6572206973206e6f74206f7760008201527f6e6572206e6f7220617070726f76656400000000000000000000000000000000602082015250565b61599f81614f13565b81146159aa57600080fd5b50565b6159b681614f25565b81146159c157600080fd5b50565b6159cd81614f37565b81146159d857600080fd5b50565b6159e481614f43565b81146159ef57600080fd5b50565b6159fb81614f4d565b8114615a0657600080fd5b50565b615a1281614f99565b8114615a1d57600080fd5b5056fea26469706673582212200394756d8b30c52aa78e0583948f810fe1c7d54e1ddd973579f0056ae22b875a64736f6c63430008040033",
  "linkReferences": {},
  "deployedLinkReferences": {}
}